{
	"contracts/driftBottle.sol": {
		"DriftBottle": {
			"abi": [
				{
					"anonymous": false,
					"inputs": [
						{
							"indexed": true,
							"internalType": "uint256",
							"name": "bottleId",
							"type": "uint256"
						},
						{
							"indexed": true,
							"internalType": "address",
							"name": "from",
							"type": "address"
						}
					],
					"name": "BottleCreated",
					"type": "event"
				},
				{
					"anonymous": false,
					"inputs": [
						{
							"indexed": true,
							"internalType": "uint256",
							"name": "bottleId",
							"type": "uint256"
						},
						{
							"indexed": true,
							"internalType": "address",
							"name": "to",
							"type": "address"
						}
					],
					"name": "BottleReplied",
					"type": "event"
				},
				{
					"inputs": [
						{
							"internalType": "uint256",
							"name": "",
							"type": "uint256"
						}
					],
					"name": "allBottles",
					"outputs": [
						{
							"internalType": "uint256",
							"name": "id",
							"type": "uint256"
						},
						{
							"internalType": "address",
							"name": "from",
							"type": "address"
						},
						{
							"internalType": "uint256",
							"name": "fromTime",
							"type": "uint256"
						},
						{
							"internalType": "bool",
							"name": "isOpen",
							"type": "bool"
						},
						{
							"internalType": "address",
							"name": "to",
							"type": "address"
						},
						{
							"internalType": "uint256",
							"name": "replyTime",
							"type": "uint256"
						}
					],
					"stateMutability": "view",
					"type": "function"
				},
				{
					"inputs": [
						{
							"internalType": "address",
							"name": "",
							"type": "address"
						},
						{
							"internalType": "uint256",
							"name": "",
							"type": "uint256"
						}
					],
					"name": "bottleOwned",
					"outputs": [
						{
							"internalType": "uint256",
							"name": "",
							"type": "uint256"
						}
					],
					"stateMutability": "view",
					"type": "function"
				},
				{
					"inputs": [
						{
							"internalType": "string[]",
							"name": "ipfsHashs",
							"type": "string[]"
						}
					],
					"name": "createBottle",
					"outputs": [],
					"stateMutability": "nonpayable",
					"type": "function"
				},
				{
					"inputs": [],
					"name": "getAllBottles",
					"outputs": [
						{
							"components": [
								{
									"internalType": "uint256",
									"name": "id",
									"type": "uint256"
								},
								{
									"internalType": "address",
									"name": "from",
									"type": "address"
								},
								{
									"internalType": "uint256",
									"name": "fromTime",
									"type": "uint256"
								},
								{
									"internalType": "bool",
									"name": "isOpen",
									"type": "bool"
								},
								{
									"internalType": "address",
									"name": "to",
									"type": "address"
								},
								{
									"internalType": "uint256",
									"name": "replyTime",
									"type": "uint256"
								},
								{
									"components": [
										{
											"internalType": "string",
											"name": "ipfsHash",
											"type": "string"
										}
									],
									"internalType": "struct DriftBottle.BlobInfo[]",
									"name": "msgs",
									"type": "tuple[]"
								}
							],
							"internalType": "struct DriftBottle.BottleInfo[]",
							"name": "",
							"type": "tuple[]"
						}
					],
					"stateMutability": "view",
					"type": "function"
				},
				{
					"inputs": [
						{
							"internalType": "uint256",
							"name": "_id",
							"type": "uint256"
						}
					],
					"name": "getBottleMessages",
					"outputs": [
						{
							"components": [
								{
									"internalType": "string",
									"name": "ipfsHash",
									"type": "string"
								}
							],
							"internalType": "struct DriftBottle.BlobInfo[]",
							"name": "",
							"type": "tuple[]"
						}
					],
					"stateMutability": "view",
					"type": "function"
				},
				{
					"inputs": [
						{
							"internalType": "uint256",
							"name": "",
							"type": "uint256"
						}
					],
					"name": "idToBottle",
					"outputs": [
						{
							"internalType": "uint256",
							"name": "id",
							"type": "uint256"
						},
						{
							"internalType": "address",
							"name": "from",
							"type": "address"
						},
						{
							"internalType": "uint256",
							"name": "fromTime",
							"type": "uint256"
						},
						{
							"internalType": "bool",
							"name": "isOpen",
							"type": "bool"
						},
						{
							"internalType": "address",
							"name": "to",
							"type": "address"
						},
						{
							"internalType": "uint256",
							"name": "replyTime",
							"type": "uint256"
						}
					],
					"stateMutability": "view",
					"type": "function"
				},
				{
					"inputs": [
						{
							"internalType": "uint256",
							"name": "_id",
							"type": "uint256"
						},
						{
							"internalType": "string[]",
							"name": "ipfsHashs",
							"type": "string[]"
						}
					],
					"name": "openAndReplyBottle",
					"outputs": [],
					"stateMutability": "nonpayable",
					"type": "function"
				},
				{
					"inputs": [],
					"name": "totalBottles",
					"outputs": [
						{
							"internalType": "uint256",
							"name": "",
							"type": "uint256"
						}
					],
					"stateMutability": "view",
					"type": "function"
				}
			],
			"devdoc": {
				"kind": "dev",
				"methods": {},
				"version": 1
			},
			"evm": {
				"assembly": "    /* \"contracts/driftBottle.sol\":60:2502  contract DriftBottle {... */\n  mstore(0x40, 0x80)\n  callvalue\n  dup1\n  iszero\n  tag_1\n  jumpi\n  0x00\n  dup1\n  revert\ntag_1:\n  pop\n  dataSize(sub_0)\n  dup1\n  dataOffset(sub_0)\n  0x00\n  codecopy\n  0x00\n  return\nstop\n\nsub_0: assembly {\n        /* \"contracts/driftBottle.sol\":60:2502  contract DriftBottle {... */\n      mstore(0x40, 0x80)\n      callvalue\n      dup1\n      iszero\n      tag_1\n      jumpi\n      0x00\n      dup1\n      revert\n    tag_1:\n      pop\n      jumpi(tag_2, lt(calldatasize, 0x04))\n      shr(0xe0, calldataload(0x00))\n      dup1\n      0x9eedc7a6\n      gt\n      tag_11\n      jumpi\n      dup1\n      0x9eedc7a6\n      eq\n      tag_7\n      jumpi\n      dup1\n      0xaff6b515\n      eq\n      tag_8\n      jumpi\n      dup1\n      0xdf59e477\n      eq\n      tag_9\n      jumpi\n      dup1\n      0xf62c9e3c\n      eq\n      tag_10\n      jumpi\n      jump(tag_2)\n    tag_11:\n      dup1\n      0x437e7e5c\n      eq\n      tag_3\n      jumpi\n      dup1\n      0x52b31faa\n      eq\n      tag_4\n      jumpi\n      dup1\n      0x8a3aa27f\n      eq\n      tag_5\n      jumpi\n      dup1\n      0x9d0d9b2e\n      eq\n      tag_6\n      jumpi\n    tag_2:\n      0x00\n      dup1\n      revert\n        /* \"contracts/driftBottle.sol\":509:557  mapping(uint256 => BottleInfo) public idToBottle */\n    tag_3:\n      tag_12\n      0x04\n      dup1\n      calldatasize\n      sub\n      dup2\n      add\n      swap1\n      tag_13\n      swap2\n      swap1\n      tag_14\n      jump\t// in\n    tag_13:\n      tag_15\n      jump\t// in\n    tag_12:\n      mload(0x40)\n      tag_16\n      swap7\n      swap6\n      swap5\n      swap4\n      swap3\n      swap2\n      swap1\n      tag_17\n      jump\t// in\n    tag_16:\n      mload(0x40)\n      dup1\n      swap2\n      sub\n      swap1\n      return\n        /* \"contracts/driftBottle.sol\":377:407  BottleInfo[] public allBottles */\n    tag_4:\n      tag_18\n      0x04\n      dup1\n      calldatasize\n      sub\n      dup2\n      add\n      swap1\n      tag_19\n      swap2\n      swap1\n      tag_14\n      jump\t// in\n    tag_19:\n      tag_20\n      jump\t// in\n    tag_18:\n      mload(0x40)\n      tag_21\n      swap7\n      swap6\n      swap5\n      swap4\n      swap3\n      swap2\n      swap1\n      tag_17\n      jump\t// in\n    tag_21:\n      mload(0x40)\n      dup1\n      swap2\n      sub\n      swap1\n      return\n        /* \"contracts/driftBottle.sol\":454:502  mapping(address => uint256[]) public bottleOwned */\n    tag_5:\n      tag_22\n      0x04\n      dup1\n      calldatasize\n      sub\n      dup2\n      add\n      swap1\n      tag_23\n      swap2\n      swap1\n      tag_24\n      jump\t// in\n    tag_23:\n      tag_25\n      jump\t// in\n    tag_22:\n      mload(0x40)\n      tag_26\n      swap2\n      swap1\n      tag_27\n      jump\t// in\n    tag_26:\n      mload(0x40)\n      dup1\n      swap2\n      sub\n      swap1\n      return\n        /* \"contracts/driftBottle.sol\":2231:2336  function getAllBottles() external view returns (BottleInfo[] memory) {... */\n    tag_6:\n      tag_28\n      tag_29\n      jump\t// in\n    tag_28:\n      mload(0x40)\n      tag_30\n      swap2\n      swap1\n      tag_31\n      jump\t// in\n    tag_30:\n      mload(0x40)\n      dup1\n      swap2\n      sub\n      swap1\n      return\n        /* \"contracts/driftBottle.sol\":726:1529  function createBottle(string[] memory ipfsHashs) external {... */\n    tag_7:\n      tag_32\n      0x04\n      dup1\n      calldatasize\n      sub\n      dup2\n      add\n      swap1\n      tag_33\n      swap2\n      swap1\n      tag_34\n      jump\t// in\n    tag_33:\n      tag_35\n      jump\t// in\n    tag_32:\n      stop\n        /* \"contracts/driftBottle.sol\":1541:2219  function openAndReplyBottle(uint256 _id, string[] memory ipfsHashs) external {... */\n    tag_8:\n      tag_36\n      0x04\n      dup1\n      calldatasize\n      sub\n      dup2\n      add\n      swap1\n      tag_37\n      swap2\n      swap1\n      tag_38\n      jump\t// in\n    tag_37:\n      tag_39\n      jump\t// in\n    tag_36:\n      stop\n        /* \"contracts/driftBottle.sol\":2350:2479  function getBottleMessages(uint256 _id) public view returns (BlobInfo[] memory){... */\n    tag_9:\n      tag_40\n      0x04\n      dup1\n      calldatasize\n      sub\n      dup2\n      add\n      swap1\n      tag_41\n      swap2\n      swap1\n      tag_14\n      jump\t// in\n    tag_41:\n      tag_42\n      jump\t// in\n    tag_40:\n      mload(0x40)\n      tag_43\n      swap2\n      swap1\n      tag_44\n      jump\t// in\n    tag_43:\n      mload(0x40)\n      dup1\n      swap2\n      sub\n      swap1\n      return\n        /* \"contracts/driftBottle.sol\":414:441  uint256 public totalBottles */\n    tag_10:\n      tag_45\n      tag_46\n      jump\t// in\n    tag_45:\n      mload(0x40)\n      tag_47\n      swap2\n      swap1\n      tag_27\n      jump\t// in\n    tag_47:\n      mload(0x40)\n      dup1\n      swap2\n      sub\n      swap1\n      return\n        /* \"contracts/driftBottle.sol\":509:557  mapping(uint256 => BottleInfo) public idToBottle */\n    tag_15:\n      mstore(0x20, 0x03)\n      dup1\n      0x00\n      mstore\n      keccak256(0x00, 0x40)\n      0x00\n      swap2\n      pop\n      swap1\n      pop\n      dup1\n      0x00\n      add\n      sload\n      swap1\n      dup1\n      0x01\n      add\n      0x00\n      swap1\n      sload\n      swap1\n      0x0100\n      exp\n      swap1\n      div\n      0xffffffffffffffffffffffffffffffffffffffff\n      and\n      swap1\n      dup1\n      0x02\n      add\n      sload\n      swap1\n      dup1\n      0x03\n      add\n      0x00\n      swap1\n      sload\n      swap1\n      0x0100\n      exp\n      swap1\n      div\n      0xff\n      and\n      swap1\n      dup1\n      0x03\n      add\n      0x01\n      swap1\n      sload\n      swap1\n      0x0100\n      exp\n      swap1\n      div\n      0xffffffffffffffffffffffffffffffffffffffff\n      and\n      swap1\n      dup1\n      0x04\n      add\n      sload\n      swap1\n      pop\n      dup7\n      jump\t// out\n        /* \"contracts/driftBottle.sol\":377:407  BottleInfo[] public allBottles */\n    tag_20:\n      0x00\n      dup2\n      dup2\n      sload\n      dup2\n      lt\n      tag_48\n      jumpi\n      0x00\n      dup1\n      revert\n    tag_48:\n      swap1\n      0x00\n      mstore\n      keccak256(0x00, 0x20)\n      swap1\n      0x06\n      mul\n      add\n      0x00\n      swap2\n      pop\n      swap1\n      pop\n      dup1\n      0x00\n      add\n      sload\n      swap1\n      dup1\n      0x01\n      add\n      0x00\n      swap1\n      sload\n      swap1\n      0x0100\n      exp\n      swap1\n      div\n      0xffffffffffffffffffffffffffffffffffffffff\n      and\n      swap1\n      dup1\n      0x02\n      add\n      sload\n      swap1\n      dup1\n      0x03\n      add\n      0x00\n      swap1\n      sload\n      swap1\n      0x0100\n      exp\n      swap1\n      div\n      0xff\n      and\n      swap1\n      dup1\n      0x03\n      add\n      0x01\n      swap1\n      sload\n      swap1\n      0x0100\n      exp\n      swap1\n      div\n      0xffffffffffffffffffffffffffffffffffffffff\n      and\n      swap1\n      dup1\n      0x04\n      add\n      sload\n      swap1\n      pop\n      dup7\n      jump\t// out\n        /* \"contracts/driftBottle.sol\":454:502  mapping(address => uint256[]) public bottleOwned */\n    tag_25:\n      mstore(0x20, 0x02)\n      dup2\n      0x00\n      mstore\n      keccak256(0x00, 0x40)\n      dup2\n      dup2\n      sload\n      dup2\n      lt\n      tag_50\n      jumpi\n      0x00\n      dup1\n      revert\n    tag_50:\n      swap1\n      0x00\n      mstore\n      keccak256(0x00, 0x20)\n      add\n      0x00\n      swap2\n      pop\n      swap2\n      pop\n      pop\n      sload\n      dup2\n      jump\t// out\n        /* \"contracts/driftBottle.sol\":2231:2336  function getAllBottles() external view returns (BottleInfo[] memory) {... */\n    tag_29:\n        /* \"contracts/driftBottle.sol\":2279:2298  BottleInfo[] memory */\n      0x60\n        /* \"contracts/driftBottle.sol\":2318:2328  allBottles */\n      0x00\n        /* \"contracts/driftBottle.sol\":2311:2328  return allBottles */\n      dup1\n      sload\n      dup1\n      0x20\n      mul\n      0x20\n      add\n      mload(0x40)\n      swap1\n      dup2\n      add\n      0x40\n      mstore\n      dup1\n      swap3\n      swap2\n      swap1\n      dup2\n      dup2\n      mstore\n      0x20\n      add\n      0x00\n      swap1\n    tag_53:\n      dup3\n      dup3\n      lt\n      iszero\n      tag_54\n      jumpi\n      dup4\n      dup3\n      swap1\n      0x00\n      mstore\n      keccak256(0x00, 0x20)\n      swap1\n      0x06\n      mul\n      add\n      mload(0x40)\n      dup1\n      0xe0\n      add\n      0x40\n      mstore\n      swap1\n      dup2\n      0x00\n      dup3\n      add\n      sload\n      dup2\n      mstore\n      0x20\n      add\n      0x01\n      dup3\n      add\n      0x00\n      swap1\n      sload\n      swap1\n      0x0100\n      exp\n      swap1\n      div\n      0xffffffffffffffffffffffffffffffffffffffff\n      and\n      0xffffffffffffffffffffffffffffffffffffffff\n      and\n      0xffffffffffffffffffffffffffffffffffffffff\n      and\n      dup2\n      mstore\n      0x20\n      add\n      0x02\n      dup3\n      add\n      sload\n      dup2\n      mstore\n      0x20\n      add\n      0x03\n      dup3\n      add\n      0x00\n      swap1\n      sload\n      swap1\n      0x0100\n      exp\n      swap1\n      div\n      0xff\n      and\n      iszero\n      iszero\n      iszero\n      iszero\n      dup2\n      mstore\n      0x20\n      add\n      0x03\n      dup3\n      add\n      0x01\n      swap1\n      sload\n      swap1\n      0x0100\n      exp\n      swap1\n      div\n      0xffffffffffffffffffffffffffffffffffffffff\n      and\n      0xffffffffffffffffffffffffffffffffffffffff\n      and\n      0xffffffffffffffffffffffffffffffffffffffff\n      and\n      dup2\n      mstore\n      0x20\n      add\n      0x04\n      dup3\n      add\n      sload\n      dup2\n      mstore\n      0x20\n      add\n      0x05\n      dup3\n      add\n      dup1\n      sload\n      dup1\n      0x20\n      mul\n      0x20\n      add\n      mload(0x40)\n      swap1\n      dup2\n      add\n      0x40\n      mstore\n      dup1\n      swap3\n      swap2\n      swap1\n      dup2\n      dup2\n      mstore\n      0x20\n      add\n      0x00\n      swap1\n    tag_56:\n      dup3\n      dup3\n      lt\n      iszero\n      tag_57\n      jumpi\n      dup4\n      dup3\n      swap1\n      0x00\n      mstore\n      keccak256(0x00, 0x20)\n      add\n      mload(0x40)\n      dup1\n      0x20\n      add\n      0x40\n      mstore\n      swap1\n      dup2\n      0x00\n      dup3\n      add\n      dup1\n      sload\n      tag_59\n      swap1\n      tag_60\n      jump\t// in\n    tag_59:\n      dup1\n      0x1f\n      add\n      0x20\n      dup1\n      swap2\n      div\n      mul\n      0x20\n      add\n      mload(0x40)\n      swap1\n      dup2\n      add\n      0x40\n      mstore\n      dup1\n      swap3\n      swap2\n      swap1\n      dup2\n      dup2\n      mstore\n      0x20\n      add\n      dup3\n      dup1\n      sload\n      tag_61\n      swap1\n      tag_60\n      jump\t// in\n    tag_61:\n      dup1\n      iszero\n      tag_62\n      jumpi\n      dup1\n      0x1f\n      lt\n      tag_63\n      jumpi\n      0x0100\n      dup1\n      dup4\n      sload\n      div\n      mul\n      dup4\n      mstore\n      swap2\n      0x20\n      add\n      swap2\n      jump(tag_62)\n    tag_63:\n      dup3\n      add\n      swap2\n      swap1\n      0x00\n      mstore\n      keccak256(0x00, 0x20)\n      swap1\n    tag_64:\n      dup2\n      sload\n      dup2\n      mstore\n      swap1\n      0x01\n      add\n      swap1\n      0x20\n      add\n      dup1\n      dup4\n      gt\n      tag_64\n      jumpi\n      dup3\n      swap1\n      sub\n      0x1f\n      and\n      dup3\n      add\n      swap2\n    tag_62:\n      pop\n      pop\n      pop\n      pop\n      pop\n      dup2\n      mstore\n      pop\n      pop\n      dup2\n      mstore\n      0x20\n      add\n      swap1\n      0x01\n      add\n      swap1\n      jump(tag_56)\n    tag_57:\n      pop\n      pop\n      pop\n      pop\n      dup2\n      mstore\n      pop\n      pop\n      dup2\n      mstore\n      0x20\n      add\n      swap1\n      0x01\n      add\n      swap1\n      jump(tag_53)\n    tag_54:\n      pop\n      pop\n      pop\n      pop\n      swap1\n      pop\n        /* \"contracts/driftBottle.sol\":2231:2336  function getAllBottles() external view returns (BottleInfo[] memory) {... */\n      swap1\n      jump\t// out\n        /* \"contracts/driftBottle.sol\":726:1529  function createBottle(string[] memory ipfsHashs) external {... */\n    tag_35:\n        /* \"contracts/driftBottle.sol\":822:823  0 */\n      0x00\n        /* \"contracts/driftBottle.sol\":803:812  ipfsHashs */\n      dup2\n        /* \"contracts/driftBottle.sol\":803:819  ipfsHashs.length */\n      mload\n        /* \"contracts/driftBottle.sol\":803:823  ipfsHashs.length > 0 */\n      gt\n        /* \"contracts/driftBottle.sol\":795:848  require(ipfsHashs.length > 0, \"Blob cannot be empty\") */\n      tag_66\n      jumpi\n      mload(0x40)\n      0x08c379a000000000000000000000000000000000000000000000000000000000\n      dup2\n      mstore\n      0x04\n      add\n      tag_67\n      swap1\n      tag_68\n      jump\t// in\n    tag_67:\n      mload(0x40)\n      dup1\n      swap2\n      sub\n      swap1\n      revert\n    tag_66:\n        /* \"contracts/driftBottle.sol\":859:870  uint256 _id */\n      0x00\n        /* \"contracts/driftBottle.sol\":888:889  1 */\n      0x01\n        /* \"contracts/driftBottle.sol\":873:885  totalBottles */\n      dup1\n      sload\n        /* \"contracts/driftBottle.sol\":873:889  totalBottles + 1 */\n      tag_69\n      swap2\n      swap1\n      tag_70\n      jump\t// in\n    tag_69:\n        /* \"contracts/driftBottle.sol\":859:889  uint256 _id = totalBottles + 1 */\n      swap1\n      pop\n        /* \"contracts/driftBottle.sol\":911:939  BottleInfo storage newBottle */\n      0x00\n        /* \"contracts/driftBottle.sol\":942:952  idToBottle */\n      0x03\n        /* \"contracts/driftBottle.sol\":942:957  idToBottle[_id] */\n      0x00\n        /* \"contracts/driftBottle.sol\":953:956  _id */\n      dup4\n        /* \"contracts/driftBottle.sol\":942:957  idToBottle[_id] */\n      dup2\n      mstore\n      0x20\n      add\n      swap1\n      dup2\n      mstore\n      0x20\n      add\n      0x00\n      keccak256\n        /* \"contracts/driftBottle.sol\":911:957  BottleInfo storage newBottle = idToBottle[_id] */\n      swap1\n      pop\n        /* \"contracts/driftBottle.sol\":983:986  _id */\n      dup2\n        /* \"contracts/driftBottle.sol\":968:977  newBottle */\n      dup2\n        /* \"contracts/driftBottle.sol\":968:980  newBottle.id */\n      0x00\n      add\n        /* \"contracts/driftBottle.sol\":968:986  newBottle.id = _id */\n      dup2\n      swap1\n      sstore\n      pop\n        /* \"contracts/driftBottle.sol\":1014:1024  msg.sender */\n      caller\n        /* \"contracts/driftBottle.sol\":997:1006  newBottle */\n      dup2\n        /* \"contracts/driftBottle.sol\":997:1011  newBottle.from */\n      0x01\n      add\n      0x00\n        /* \"contracts/driftBottle.sol\":997:1024  newBottle.from = msg.sender */\n      0x0100\n      exp\n      dup2\n      sload\n      dup2\n      0xffffffffffffffffffffffffffffffffffffffff\n      mul\n      not\n      and\n      swap1\n      dup4\n      0xffffffffffffffffffffffffffffffffffffffff\n      and\n      mul\n      or\n      swap1\n      sstore\n      pop\n        /* \"contracts/driftBottle.sol\":1056:1071  block.timestamp */\n      timestamp\n        /* \"contracts/driftBottle.sol\":1035:1044  newBottle */\n      dup2\n        /* \"contracts/driftBottle.sol\":1035:1053  newBottle.fromTime */\n      0x02\n      add\n        /* \"contracts/driftBottle.sol\":1035:1071  newBottle.fromTime = block.timestamp */\n      dup2\n      swap1\n      sstore\n      pop\n        /* \"contracts/driftBottle.sol\":1101:1106  false */\n      0x00\n        /* \"contracts/driftBottle.sol\":1082:1091  newBottle */\n      dup2\n        /* \"contracts/driftBottle.sol\":1082:1098  newBottle.isOpen */\n      0x03\n      add\n      0x00\n        /* \"contracts/driftBottle.sol\":1082:1106  newBottle.isOpen = false */\n      0x0100\n      exp\n      dup2\n      sload\n      dup2\n      0xff\n      mul\n      not\n      and\n      swap1\n      dup4\n      iszero\n      iszero\n      mul\n      or\n      swap1\n      sstore\n      pop\n        /* \"contracts/driftBottle.sol\":1140:1141  0 */\n      0x00\n        /* \"contracts/driftBottle.sol\":1117:1126  newBottle */\n      dup2\n        /* \"contracts/driftBottle.sol\":1117:1129  newBottle.to */\n      0x03\n      add\n      0x01\n        /* \"contracts/driftBottle.sol\":1117:1142  newBottle.to = address(0) */\n      0x0100\n      exp\n      dup2\n      sload\n      dup2\n      0xffffffffffffffffffffffffffffffffffffffff\n      mul\n      not\n      and\n      swap1\n      dup4\n      0xffffffffffffffffffffffffffffffffffffffff\n      and\n      mul\n      or\n      swap1\n      sstore\n      pop\n        /* \"contracts/driftBottle.sol\":1175:1176  0 */\n      0x00\n        /* \"contracts/driftBottle.sol\":1153:1162  newBottle */\n      dup2\n        /* \"contracts/driftBottle.sol\":1153:1172  newBottle.replyTime */\n      0x04\n      add\n        /* \"contracts/driftBottle.sol\":1153:1176  newBottle.replyTime = 0 */\n      dup2\n      swap1\n      sstore\n      pop\n        /* \"contracts/driftBottle.sol\":1202:1211  uint256 i */\n      0x00\n        /* \"contracts/driftBottle.sol\":1197:1326  for (uint256 i = 0; i < ipfsHashs.length; i++) {... */\n    tag_71:\n        /* \"contracts/driftBottle.sol\":1221:1230  ipfsHashs */\n      dup4\n        /* \"contracts/driftBottle.sol\":1221:1237  ipfsHashs.length */\n      mload\n        /* \"contracts/driftBottle.sol\":1217:1218  i */\n      dup2\n        /* \"contracts/driftBottle.sol\":1217:1237  i < ipfsHashs.length */\n      lt\n        /* \"contracts/driftBottle.sol\":1197:1326  for (uint256 i = 0; i < ipfsHashs.length; i++) {... */\n      iszero\n      tag_72\n      jumpi\n        /* \"contracts/driftBottle.sol\":1259:1268  newBottle */\n      dup2\n        /* \"contracts/driftBottle.sol\":1259:1273  newBottle.msgs */\n      0x05\n      add\n        /* \"contracts/driftBottle.sol\":1279:1313  BlobInfo({ipfsHash: ipfsHashs[i]}) */\n      mload(0x40)\n      dup1\n      0x20\n      add\n      0x40\n      mstore\n      dup1\n        /* \"contracts/driftBottle.sol\":1299:1308  ipfsHashs */\n      dup7\n        /* \"contracts/driftBottle.sol\":1309:1310  i */\n      dup5\n        /* \"contracts/driftBottle.sol\":1299:1311  ipfsHashs[i] */\n      dup2\n      mload\n      dup2\n      lt\n      tag_74\n      jumpi\n      tag_75\n      tag_76\n      jump\t// in\n    tag_75:\n    tag_74:\n      0x20\n      mul\n      0x20\n      add\n      add\n      mload\n        /* \"contracts/driftBottle.sol\":1279:1313  BlobInfo({ipfsHash: ipfsHashs[i]}) */\n      dup2\n      mstore\n      pop\n        /* \"contracts/driftBottle.sol\":1259:1314  newBottle.msgs.push(BlobInfo({ipfsHash: ipfsHashs[i]})) */\n      swap1\n      dup1\n      0x01\n      dup2\n      sload\n      add\n      dup1\n      dup3\n      sstore\n      dup1\n      swap2\n      pop\n      pop\n      0x01\n      swap1\n      sub\n      swap1\n      0x00\n      mstore\n      keccak256(0x00, 0x20)\n      add\n      0x00\n      swap1\n      swap2\n      swap1\n      swap2\n      swap1\n      swap2\n      pop\n      0x00\n      dup3\n      add\n      mload\n      dup2\n      0x00\n      add\n      swap1\n      dup2\n      tag_78\n      swap2\n      swap1\n      tag_79\n      jump\t// in\n    tag_78:\n      pop\n      pop\n      pop\n        /* \"contracts/driftBottle.sol\":1239:1242  i++ */\n      dup1\n      dup1\n      0x01\n      add\n      swap2\n      pop\n      pop\n        /* \"contracts/driftBottle.sol\":1197:1326  for (uint256 i = 0; i < ipfsHashs.length; i++) {... */\n      jump(tag_71)\n    tag_72:\n      pop\n        /* \"contracts/driftBottle.sol\":1346:1356  allBottles */\n      0x00\n        /* \"contracts/driftBottle.sol\":1362:1371  newBottle */\n      dup2\n        /* \"contracts/driftBottle.sol\":1346:1372  allBottles.push(newBottle) */\n      swap1\n      dup1\n      0x01\n      dup2\n      sload\n      add\n      dup1\n      dup3\n      sstore\n      dup1\n      swap2\n      pop\n      pop\n      0x01\n      swap1\n      sub\n      swap1\n      0x00\n      mstore\n      keccak256(0x00, 0x20)\n      swap1\n      0x06\n      mul\n      add\n      0x00\n      swap1\n      swap2\n      swap1\n      swap2\n      swap1\n      swap2\n      pop\n      0x00\n      dup3\n      add\n      sload\n      dup2\n      0x00\n      add\n      sstore\n      0x01\n      dup3\n      add\n      0x00\n      swap1\n      sload\n      swap1\n      0x0100\n      exp\n      swap1\n      div\n      0xffffffffffffffffffffffffffffffffffffffff\n      and\n      dup2\n      0x01\n      add\n      exp(0x0100, 0x00)\n      dup2\n      sload\n      dup2\n      0xffffffffffffffffffffffffffffffffffffffff\n      mul\n      not\n      and\n      swap1\n      dup4\n      0xffffffffffffffffffffffffffffffffffffffff\n      and\n      mul\n      or\n      swap1\n      sstore\n      pop\n      0x02\n      dup3\n      add\n      sload\n      dup2\n      0x02\n      add\n      sstore\n      0x03\n      dup3\n      add\n      0x00\n      swap1\n      sload\n      swap1\n      0x0100\n      exp\n      swap1\n      div\n      0xff\n      and\n      dup2\n      0x03\n      add\n      exp(0x0100, 0x00)\n      dup2\n      sload\n      dup2\n      0xff\n      mul\n      not\n      and\n      swap1\n      dup4\n      iszero\n      iszero\n      mul\n      or\n      swap1\n      sstore\n      pop\n      0x03\n      dup3\n      add\n      0x01\n      swap1\n      sload\n      swap1\n      0x0100\n      exp\n      swap1\n      div\n      0xffffffffffffffffffffffffffffffffffffffff\n      and\n      dup2\n      0x03\n      add\n      exp(0x0100, 0x01)\n      dup2\n      sload\n      dup2\n      0xffffffffffffffffffffffffffffffffffffffff\n      mul\n      not\n      and\n      swap1\n      dup4\n      0xffffffffffffffffffffffffffffffffffffffff\n      and\n      mul\n      or\n      swap1\n      sstore\n      pop\n      0x04\n      dup3\n      add\n      sload\n      dup2\n      0x04\n      add\n      sstore\n      0x05\n      dup3\n      add\n      dup2\n      0x05\n      add\n      swap1\n      dup1\n      sload\n      tag_81\n      swap3\n      swap2\n      swap1\n      tag_82\n      jump\t// in\n    tag_81:\n      pop\n      pop\n      pop\n        /* \"contracts/driftBottle.sol\":1383:1394  bottleOwned */\n      0x02\n        /* \"contracts/driftBottle.sol\":1383:1406  bottleOwned[msg.sender] */\n      0x00\n        /* \"contracts/driftBottle.sol\":1395:1405  msg.sender */\n      caller\n        /* \"contracts/driftBottle.sol\":1383:1406  bottleOwned[msg.sender] */\n      0xffffffffffffffffffffffffffffffffffffffff\n      and\n      0xffffffffffffffffffffffffffffffffffffffff\n      and\n      dup2\n      mstore\n      0x20\n      add\n      swap1\n      dup2\n      mstore\n      0x20\n      add\n      0x00\n      keccak256\n        /* \"contracts/driftBottle.sol\":1412:1415  _id */\n      dup3\n        /* \"contracts/driftBottle.sol\":1383:1416  bottleOwned[msg.sender].push(_id) */\n      swap1\n      dup1\n      0x01\n      dup2\n      sload\n      add\n      dup1\n      dup3\n      sstore\n      dup1\n      swap2\n      pop\n      pop\n      0x01\n      swap1\n      sub\n      swap1\n      0x00\n      mstore\n      keccak256(0x00, 0x20)\n      add\n      0x00\n      swap1\n      swap2\n      swap1\n      swap2\n      swap1\n      swap2\n      pop\n      sstore\n        /* \"contracts/driftBottle.sol\":1435:1447  totalBottles */\n      0x01\n      0x00\n        /* \"contracts/driftBottle.sol\":1435:1450  totalBottles ++ */\n      dup2\n      sload\n      dup1\n      swap3\n      swap2\n      swap1\n      tag_84\n      swap1\n      tag_85\n      jump\t// in\n    tag_84:\n      swap2\n      swap1\n      pop\n      sstore\n      pop\n        /* \"contracts/driftBottle.sol\":1503:1513  msg.sender */\n      caller\n        /* \"contracts/driftBottle.sol\":1484:1514  BottleCreated(_id, msg.sender) */\n      0xffffffffffffffffffffffffffffffffffffffff\n      and\n        /* \"contracts/driftBottle.sol\":1498:1501  _id */\n      dup3\n        /* \"contracts/driftBottle.sol\":1484:1514  BottleCreated(_id, msg.sender) */\n      0x7419087b84863b9247a8c31c3a72be5d66788987efdd825e3ce76975df572e09\n      mload(0x40)\n      mload(0x40)\n      dup1\n      swap2\n      sub\n      swap1\n      log3\n        /* \"contracts/driftBottle.sol\":784:1529  {... */\n      pop\n      pop\n        /* \"contracts/driftBottle.sol\":726:1529  function createBottle(string[] memory ipfsHashs) external {... */\n      pop\n      jump\t// out\n        /* \"contracts/driftBottle.sol\":1541:2219  function openAndReplyBottle(uint256 _id, string[] memory ipfsHashs) external {... */\n    tag_39:\n        /* \"contracts/driftBottle.sol\":1656:1657  0 */\n      0x00\n        /* \"contracts/driftBottle.sol\":1637:1646  ipfsHashs */\n      dup2\n        /* \"contracts/driftBottle.sol\":1637:1653  ipfsHashs.length */\n      mload\n        /* \"contracts/driftBottle.sol\":1637:1657  ipfsHashs.length > 0 */\n      gt\n        /* \"contracts/driftBottle.sol\":1629:1682  require(ipfsHashs.length > 0, \"Blob cannot be empty\") */\n      tag_87\n      jumpi\n      mload(0x40)\n      0x08c379a000000000000000000000000000000000000000000000000000000000\n      dup2\n      mstore\n      0x04\n      add\n      tag_88\n      swap1\n      tag_68\n      jump\t// in\n    tag_88:\n      mload(0x40)\n      dup1\n      swap2\n      sub\n      swap1\n      revert\n    tag_87:\n        /* \"contracts/driftBottle.sol\":1703:1728  BottleInfo storage bottle */\n      0x00\n        /* \"contracts/driftBottle.sol\":1731:1741  idToBottle */\n      0x03\n        /* \"contracts/driftBottle.sol\":1731:1746  idToBottle[_id] */\n      0x00\n        /* \"contracts/driftBottle.sol\":1742:1745  _id */\n      dup5\n        /* \"contracts/driftBottle.sol\":1731:1746  idToBottle[_id] */\n      dup2\n      mstore\n      0x20\n      add\n      swap1\n      dup2\n      mstore\n      0x20\n      add\n      0x00\n      keccak256\n        /* \"contracts/driftBottle.sol\":1703:1746  BottleInfo storage bottle = idToBottle[_id] */\n      swap1\n      pop\n        /* \"contracts/driftBottle.sol\":1782:1787  false */\n      0x00\n        /* \"contracts/driftBottle.sol\":1765:1787  bottle.isOpen == false */\n      iszero\n      iszero\n        /* \"contracts/driftBottle.sol\":1765:1771  bottle */\n      dup2\n        /* \"contracts/driftBottle.sol\":1765:1778  bottle.isOpen */\n      0x03\n      add\n      0x00\n      swap1\n      sload\n      swap1\n      0x0100\n      exp\n      swap1\n      div\n      0xff\n      and\n        /* \"contracts/driftBottle.sol\":1765:1787  bottle.isOpen == false */\n      iszero\n      iszero\n      eq\n        /* \"contracts/driftBottle.sol\":1757:1813  require(bottle.isOpen == false, \"Bottle already opened\") */\n      tag_89\n      jumpi\n      mload(0x40)\n      0x08c379a000000000000000000000000000000000000000000000000000000000\n      dup2\n      mstore\n      0x04\n      add\n      tag_90\n      swap1\n      tag_91\n      jump\t// in\n    tag_90:\n      mload(0x40)\n      dup1\n      swap2\n      sub\n      swap1\n      revert\n    tag_89:\n        /* \"contracts/driftBottle.sol\":1839:1848  uint256 i */\n      0x00\n        /* \"contracts/driftBottle.sol\":1834:1961  for (uint256 i = 0; i < ipfsHashs.length; i++) {... */\n    tag_92:\n        /* \"contracts/driftBottle.sol\":1858:1867  ipfsHashs */\n      dup3\n        /* \"contracts/driftBottle.sol\":1858:1874  ipfsHashs.length */\n      mload\n        /* \"contracts/driftBottle.sol\":1854:1855  i */\n      dup2\n        /* \"contracts/driftBottle.sol\":1854:1874  i < ipfsHashs.length */\n      lt\n        /* \"contracts/driftBottle.sol\":1834:1961  for (uint256 i = 0; i < ipfsHashs.length; i++) {... */\n      iszero\n      tag_93\n      jumpi\n        /* \"contracts/driftBottle.sol\":1897:1903  bottle */\n      dup2\n        /* \"contracts/driftBottle.sol\":1897:1908  bottle.msgs */\n      0x05\n      add\n        /* \"contracts/driftBottle.sol\":1914:1948  BlobInfo({ipfsHash: ipfsHashs[i]}) */\n      mload(0x40)\n      dup1\n      0x20\n      add\n      0x40\n      mstore\n      dup1\n        /* \"contracts/driftBottle.sol\":1934:1943  ipfsHashs */\n      dup6\n        /* \"contracts/driftBottle.sol\":1944:1945  i */\n      dup5\n        /* \"contracts/driftBottle.sol\":1934:1946  ipfsHashs[i] */\n      dup2\n      mload\n      dup2\n      lt\n      tag_95\n      jumpi\n      tag_96\n      tag_76\n      jump\t// in\n    tag_96:\n    tag_95:\n      0x20\n      mul\n      0x20\n      add\n      add\n      mload\n        /* \"contracts/driftBottle.sol\":1914:1948  BlobInfo({ipfsHash: ipfsHashs[i]}) */\n      dup2\n      mstore\n      pop\n        /* \"contracts/driftBottle.sol\":1897:1949  bottle.msgs.push(BlobInfo({ipfsHash: ipfsHashs[i]})) */\n      swap1\n      dup1\n      0x01\n      dup2\n      sload\n      add\n      dup1\n      dup3\n      sstore\n      dup1\n      swap2\n      pop\n      pop\n      0x01\n      swap1\n      sub\n      swap1\n      0x00\n      mstore\n      keccak256(0x00, 0x20)\n      add\n      0x00\n      swap1\n      swap2\n      swap1\n      swap2\n      swap1\n      swap2\n      pop\n      0x00\n      dup3\n      add\n      mload\n      dup2\n      0x00\n      add\n      swap1\n      dup2\n      tag_98\n      swap2\n      swap1\n      tag_79\n      jump\t// in\n    tag_98:\n      pop\n      pop\n      pop\n        /* \"contracts/driftBottle.sol\":1876:1879  i++ */\n      dup1\n      dup1\n      0x01\n      add\n      swap2\n      pop\n      pop\n        /* \"contracts/driftBottle.sol\":1834:1961  for (uint256 i = 0; i < ipfsHashs.length; i++) {... */\n      jump(tag_92)\n    tag_93:\n      pop\n        /* \"contracts/driftBottle.sol\":1997:2001  true */\n      0x01\n        /* \"contracts/driftBottle.sol\":1981:1987  bottle */\n      dup2\n        /* \"contracts/driftBottle.sol\":1981:1994  bottle.isOpen */\n      0x03\n      add\n      0x00\n        /* \"contracts/driftBottle.sol\":1981:2001  bottle.isOpen = true */\n      0x0100\n      exp\n      dup2\n      sload\n      dup2\n      0xff\n      mul\n      not\n      and\n      swap1\n      dup4\n      iszero\n      iszero\n      mul\n      or\n      swap1\n      sstore\n      pop\n        /* \"contracts/driftBottle.sol\":2024:2034  msg.sender */\n      caller\n        /* \"contracts/driftBottle.sol\":2012:2018  bottle */\n      dup2\n        /* \"contracts/driftBottle.sol\":2012:2021  bottle.to */\n      0x03\n      add\n      0x01\n        /* \"contracts/driftBottle.sol\":2012:2034  bottle.to = msg.sender */\n      0x0100\n      exp\n      dup2\n      sload\n      dup2\n      0xffffffffffffffffffffffffffffffffffffffff\n      mul\n      not\n      and\n      swap1\n      dup4\n      0xffffffffffffffffffffffffffffffffffffffff\n      and\n      mul\n      or\n      swap1\n      sstore\n      pop\n        /* \"contracts/driftBottle.sol\":2064:2079  block.timestamp */\n      timestamp\n        /* \"contracts/driftBottle.sol\":2045:2051  bottle */\n      dup2\n        /* \"contracts/driftBottle.sol\":2045:2061  bottle.replyTime */\n      0x04\n      add\n        /* \"contracts/driftBottle.sol\":2045:2079  bottle.replyTime = block.timestamp */\n      dup2\n      swap1\n      sstore\n      pop\n        /* \"contracts/driftBottle.sol\":2104:2117  uint256 index */\n      0x00\n        /* \"contracts/driftBottle.sol\":2124:2125  1 */\n      0x01\n        /* \"contracts/driftBottle.sol\":2120:2123  _id */\n      dup5\n        /* \"contracts/driftBottle.sol\":2120:2125  _id-1 */\n      tag_99\n      swap2\n      swap1\n      tag_100\n      jump\t// in\n    tag_99:\n        /* \"contracts/driftBottle.sol\":2104:2125  uint256 index = _id-1 */\n      swap1\n      pop\n        /* \"contracts/driftBottle.sol\":2156:2162  bottle */\n      dup2\n        /* \"contracts/driftBottle.sol\":2136:2146  allBottles */\n      0x00\n        /* \"contracts/driftBottle.sol\":2147:2152  index */\n      dup3\n        /* \"contracts/driftBottle.sol\":2136:2153  allBottles[index] */\n      dup2\n      sload\n      dup2\n      lt\n      tag_101\n      jumpi\n      tag_102\n      tag_76\n      jump\t// in\n    tag_102:\n    tag_101:\n      swap1\n      0x00\n      mstore\n      keccak256(0x00, 0x20)\n      swap1\n      0x06\n      mul\n      add\n        /* \"contracts/driftBottle.sol\":2136:2162  allBottles[index] = bottle */\n      0x00\n      dup3\n      add\n      sload\n      dup2\n      0x00\n      add\n      sstore\n      0x01\n      dup3\n      add\n      0x00\n      swap1\n      sload\n      swap1\n      0x0100\n      exp\n      swap1\n      div\n      0xffffffffffffffffffffffffffffffffffffffff\n      and\n      dup2\n      0x01\n      add\n      exp(0x0100, 0x00)\n      dup2\n      sload\n      dup2\n      0xffffffffffffffffffffffffffffffffffffffff\n      mul\n      not\n      and\n      swap1\n      dup4\n      0xffffffffffffffffffffffffffffffffffffffff\n      and\n      mul\n      or\n      swap1\n      sstore\n      pop\n      0x02\n      dup3\n      add\n      sload\n      dup2\n      0x02\n      add\n      sstore\n      0x03\n      dup3\n      add\n      0x00\n      swap1\n      sload\n      swap1\n      0x0100\n      exp\n      swap1\n      div\n      0xff\n      and\n      dup2\n      0x03\n      add\n      exp(0x0100, 0x00)\n      dup2\n      sload\n      dup2\n      0xff\n      mul\n      not\n      and\n      swap1\n      dup4\n      iszero\n      iszero\n      mul\n      or\n      swap1\n      sstore\n      pop\n      0x03\n      dup3\n      add\n      0x01\n      swap1\n      sload\n      swap1\n      0x0100\n      exp\n      swap1\n      div\n      0xffffffffffffffffffffffffffffffffffffffff\n      and\n      dup2\n      0x03\n      add\n      exp(0x0100, 0x01)\n      dup2\n      sload\n      dup2\n      0xffffffffffffffffffffffffffffffffffffffff\n      mul\n      not\n      and\n      swap1\n      dup4\n      0xffffffffffffffffffffffffffffffffffffffff\n      and\n      mul\n      or\n      swap1\n      sstore\n      pop\n      0x04\n      dup3\n      add\n      sload\n      dup2\n      0x04\n      add\n      sstore\n      0x05\n      dup3\n      add\n      dup2\n      0x05\n      add\n      swap1\n      dup1\n      sload\n      tag_104\n      swap3\n      swap2\n      swap1\n      tag_82\n      jump\t// in\n    tag_104:\n      pop\n      swap1\n      pop\n      pop\n        /* \"contracts/driftBottle.sol\":2197:2207  msg.sender */\n      caller\n        /* \"contracts/driftBottle.sol\":2178:2208  BottleReplied(_id, msg.sender) */\n      0xffffffffffffffffffffffffffffffffffffffff\n      and\n        /* \"contracts/driftBottle.sol\":2192:2195  _id */\n      dup5\n        /* \"contracts/driftBottle.sol\":2178:2208  BottleReplied(_id, msg.sender) */\n      0x7f078c6460907c6dd14039d55eec592b282687310de4f597f33d141276a33498\n      mload(0x40)\n      mload(0x40)\n      dup1\n      swap2\n      sub\n      swap1\n      log3\n        /* \"contracts/driftBottle.sol\":1618:2219  {... */\n      pop\n      pop\n        /* \"contracts/driftBottle.sol\":1541:2219  function openAndReplyBottle(uint256 _id, string[] memory ipfsHashs) external {... */\n      pop\n      pop\n      jump\t// out\n        /* \"contracts/driftBottle.sol\":2350:2479  function getBottleMessages(uint256 _id) public view returns (BlobInfo[] memory){... */\n    tag_42:\n        /* \"contracts/driftBottle.sol\":2411:2428  BlobInfo[] memory */\n      0x60\n        /* \"contracts/driftBottle.sol\":2447:2457  idToBottle */\n      0x03\n        /* \"contracts/driftBottle.sol\":2447:2462  idToBottle[_id] */\n      0x00\n        /* \"contracts/driftBottle.sol\":2458:2461  _id */\n      dup4\n        /* \"contracts/driftBottle.sol\":2447:2462  idToBottle[_id] */\n      dup2\n      mstore\n      0x20\n      add\n      swap1\n      dup2\n      mstore\n      0x20\n      add\n      0x00\n      keccak256\n        /* \"contracts/driftBottle.sol\":2447:2467  idToBottle[_id].msgs */\n      0x05\n      add\n        /* \"contracts/driftBottle.sol\":2440:2467  return idToBottle[_id].msgs */\n      dup1\n      sload\n      dup1\n      0x20\n      mul\n      0x20\n      add\n      mload(0x40)\n      swap1\n      dup2\n      add\n      0x40\n      mstore\n      dup1\n      swap3\n      swap2\n      swap1\n      dup2\n      dup2\n      mstore\n      0x20\n      add\n      0x00\n      swap1\n    tag_106:\n      dup3\n      dup3\n      lt\n      iszero\n      tag_107\n      jumpi\n      dup4\n      dup3\n      swap1\n      0x00\n      mstore\n      keccak256(0x00, 0x20)\n      add\n      mload(0x40)\n      dup1\n      0x20\n      add\n      0x40\n      mstore\n      swap1\n      dup2\n      0x00\n      dup3\n      add\n      dup1\n      sload\n      tag_109\n      swap1\n      tag_60\n      jump\t// in\n    tag_109:\n      dup1\n      0x1f\n      add\n      0x20\n      dup1\n      swap2\n      div\n      mul\n      0x20\n      add\n      mload(0x40)\n      swap1\n      dup2\n      add\n      0x40\n      mstore\n      dup1\n      swap3\n      swap2\n      swap1\n      dup2\n      dup2\n      mstore\n      0x20\n      add\n      dup3\n      dup1\n      sload\n      tag_110\n      swap1\n      tag_60\n      jump\t// in\n    tag_110:\n      dup1\n      iszero\n      tag_111\n      jumpi\n      dup1\n      0x1f\n      lt\n      tag_112\n      jumpi\n      0x0100\n      dup1\n      dup4\n      sload\n      div\n      mul\n      dup4\n      mstore\n      swap2\n      0x20\n      add\n      swap2\n      jump(tag_111)\n    tag_112:\n      dup3\n      add\n      swap2\n      swap1\n      0x00\n      mstore\n      keccak256(0x00, 0x20)\n      swap1\n    tag_113:\n      dup2\n      sload\n      dup2\n      mstore\n      swap1\n      0x01\n      add\n      swap1\n      0x20\n      add\n      dup1\n      dup4\n      gt\n      tag_113\n      jumpi\n      dup3\n      swap1\n      sub\n      0x1f\n      and\n      dup3\n      add\n      swap2\n    tag_111:\n      pop\n      pop\n      pop\n      pop\n      pop\n      dup2\n      mstore\n      pop\n      pop\n      dup2\n      mstore\n      0x20\n      add\n      swap1\n      0x01\n      add\n      swap1\n      jump(tag_106)\n    tag_107:\n      pop\n      pop\n      pop\n      pop\n      swap1\n      pop\n        /* \"contracts/driftBottle.sol\":2350:2479  function getBottleMessages(uint256 _id) public view returns (BlobInfo[] memory){... */\n      swap2\n      swap1\n      pop\n      jump\t// out\n        /* \"contracts/driftBottle.sol\":414:441  uint256 public totalBottles */\n    tag_46:\n      sload(0x01)\n      dup2\n      jump\t// out\n    tag_82:\n      dup3\n      dup1\n      sload\n      dup3\n      dup3\n      sstore\n      swap1\n      0x00\n      mstore\n      keccak256(0x00, 0x20)\n      swap1\n      dup2\n      add\n      swap3\n      dup3\n      iszero\n      tag_114\n      jumpi\n      0x00\n      mstore\n      keccak256(0x00, 0x20)\n      swap2\n      dup3\n      add\n    tag_115:\n      dup3\n      dup2\n      gt\n      iszero\n      tag_116\n      jumpi\n      dup3\n      dup3\n      0x00\n      dup3\n      add\n      dup2\n      0x00\n      add\n      swap1\n      dup2\n      tag_117\n      swap2\n      swap1\n      tag_118\n      jump\t// in\n    tag_117:\n      pop\n      pop\n      pop\n      swap2\n      0x01\n      add\n      swap2\n      swap1\n      0x01\n      add\n      swap1\n      jump(tag_115)\n    tag_116:\n    tag_114:\n      pop\n      swap1\n      pop\n      tag_119\n      swap2\n      swap1\n      tag_120\n      jump\t// in\n    tag_119:\n      pop\n      swap1\n      jump\t// out\n    tag_120:\n    tag_121:\n      dup1\n      dup3\n      gt\n      iszero\n      tag_122\n      jumpi\n      0x00\n      dup1\n      dup3\n      add\n      0x00\n      tag_123\n      swap2\n      swap1\n      tag_124\n      jump\t// in\n    tag_123:\n      pop\n      0x01\n      add\n      jump(tag_121)\n    tag_122:\n      pop\n      swap1\n      jump\t// out\n    tag_124:\n      pop\n      dup1\n      sload\n      tag_125\n      swap1\n      tag_60\n      jump\t// in\n    tag_125:\n      0x00\n      dup3\n      sstore\n      dup1\n      0x1f\n      lt\n      tag_127\n      jumpi\n      pop\n      jump(tag_126)\n    tag_127:\n      0x1f\n      add\n      0x20\n      swap1\n      div\n      swap1\n      0x00\n      mstore\n      keccak256(0x00, 0x20)\n      swap1\n      dup2\n      add\n      swap1\n      tag_128\n      swap2\n      swap1\n      tag_129\n      jump\t// in\n    tag_128:\n    tag_126:\n      pop\n      jump\t// out\n    tag_129:\n    tag_130:\n      dup1\n      dup3\n      gt\n      iszero\n      tag_131\n      jumpi\n      0x00\n      dup2\n      0x00\n      swap1\n      sstore\n      pop\n      0x01\n      add\n      jump(tag_130)\n    tag_131:\n      pop\n      swap1\n      jump\t// out\n        /* \"#utility.yul\":7:82   */\n    tag_132:\n        /* \"#utility.yul\":40:46   */\n      0x00\n        /* \"#utility.yul\":73:75   */\n      0x40\n        /* \"#utility.yul\":67:76   */\n      mload\n        /* \"#utility.yul\":57:76   */\n      swap1\n      pop\n        /* \"#utility.yul\":7:82   */\n      swap1\n      jump\t// out\n        /* \"#utility.yul\":88:205   */\n    tag_133:\n        /* \"#utility.yul\":197:198   */\n      0x00\n        /* \"#utility.yul\":194:195   */\n      dup1\n        /* \"#utility.yul\":187:199   */\n      revert\n        /* \"#utility.yul\":211:328   */\n    tag_134:\n        /* \"#utility.yul\":320:321   */\n      0x00\n        /* \"#utility.yul\":317:318   */\n      dup1\n        /* \"#utility.yul\":310:322   */\n      revert\n        /* \"#utility.yul\":334:411   */\n    tag_135:\n        /* \"#utility.yul\":371:378   */\n      0x00\n        /* \"#utility.yul\":400:405   */\n      dup2\n        /* \"#utility.yul\":389:405   */\n      swap1\n      pop\n        /* \"#utility.yul\":334:411   */\n      swap2\n      swap1\n      pop\n      jump\t// out\n        /* \"#utility.yul\":417:539   */\n    tag_136:\n        /* \"#utility.yul\":490:514   */\n      tag_212\n        /* \"#utility.yul\":508:513   */\n      dup2\n        /* \"#utility.yul\":490:514   */\n      tag_135\n      jump\t// in\n    tag_212:\n        /* \"#utility.yul\":483:488   */\n      dup2\n        /* \"#utility.yul\":480:515   */\n      eq\n        /* \"#utility.yul\":470:533   */\n      tag_213\n      jumpi\n        /* \"#utility.yul\":529:530   */\n      0x00\n        /* \"#utility.yul\":526:527   */\n      dup1\n        /* \"#utility.yul\":519:531   */\n      revert\n        /* \"#utility.yul\":470:533   */\n    tag_213:\n        /* \"#utility.yul\":417:539   */\n      pop\n      jump\t// out\n        /* \"#utility.yul\":545:684   */\n    tag_137:\n        /* \"#utility.yul\":591:596   */\n      0x00\n        /* \"#utility.yul\":629:635   */\n      dup2\n        /* \"#utility.yul\":616:636   */\n      calldataload\n        /* \"#utility.yul\":607:636   */\n      swap1\n      pop\n        /* \"#utility.yul\":645:678   */\n      tag_215\n        /* \"#utility.yul\":672:677   */\n      dup2\n        /* \"#utility.yul\":645:678   */\n      tag_136\n      jump\t// in\n    tag_215:\n        /* \"#utility.yul\":545:684   */\n      swap3\n      swap2\n      pop\n      pop\n      jump\t// out\n        /* \"#utility.yul\":690:1019   */\n    tag_14:\n        /* \"#utility.yul\":749:755   */\n      0x00\n        /* \"#utility.yul\":798:800   */\n      0x20\n        /* \"#utility.yul\":786:795   */\n      dup3\n        /* \"#utility.yul\":777:784   */\n      dup5\n        /* \"#utility.yul\":773:796   */\n      sub\n        /* \"#utility.yul\":769:801   */\n      slt\n        /* \"#utility.yul\":766:885   */\n      iszero\n      tag_217\n      jumpi\n        /* \"#utility.yul\":804:883   */\n      tag_218\n      tag_133\n      jump\t// in\n    tag_218:\n        /* \"#utility.yul\":766:885   */\n    tag_217:\n        /* \"#utility.yul\":924:925   */\n      0x00\n        /* \"#utility.yul\":949:1002   */\n      tag_219\n        /* \"#utility.yul\":994:1001   */\n      dup5\n        /* \"#utility.yul\":985:991   */\n      dup3\n        /* \"#utility.yul\":974:983   */\n      dup6\n        /* \"#utility.yul\":970:992   */\n      add\n        /* \"#utility.yul\":949:1002   */\n      tag_137\n      jump\t// in\n    tag_219:\n        /* \"#utility.yul\":939:1002   */\n      swap2\n      pop\n        /* \"#utility.yul\":895:1012   */\n      pop\n        /* \"#utility.yul\":690:1019   */\n      swap3\n      swap2\n      pop\n      pop\n      jump\t// out\n        /* \"#utility.yul\":1025:1143   */\n    tag_138:\n        /* \"#utility.yul\":1112:1136   */\n      tag_221\n        /* \"#utility.yul\":1130:1135   */\n      dup2\n        /* \"#utility.yul\":1112:1136   */\n      tag_135\n      jump\t// in\n    tag_221:\n        /* \"#utility.yul\":1107:1110   */\n      dup3\n        /* \"#utility.yul\":1100:1137   */\n      mstore\n        /* \"#utility.yul\":1025:1143   */\n      pop\n      pop\n      jump\t// out\n        /* \"#utility.yul\":1149:1275   */\n    tag_139:\n        /* \"#utility.yul\":1186:1193   */\n      0x00\n        /* \"#utility.yul\":1226:1268   */\n      0xffffffffffffffffffffffffffffffffffffffff\n        /* \"#utility.yul\":1219:1224   */\n      dup3\n        /* \"#utility.yul\":1215:1269   */\n      and\n        /* \"#utility.yul\":1204:1269   */\n      swap1\n      pop\n        /* \"#utility.yul\":1149:1275   */\n      swap2\n      swap1\n      pop\n      jump\t// out\n        /* \"#utility.yul\":1281:1377   */\n    tag_140:\n        /* \"#utility.yul\":1318:1325   */\n      0x00\n        /* \"#utility.yul\":1347:1371   */\n      tag_224\n        /* \"#utility.yul\":1365:1370   */\n      dup3\n        /* \"#utility.yul\":1347:1371   */\n      tag_139\n      jump\t// in\n    tag_224:\n        /* \"#utility.yul\":1336:1371   */\n      swap1\n      pop\n        /* \"#utility.yul\":1281:1377   */\n      swap2\n      swap1\n      pop\n      jump\t// out\n        /* \"#utility.yul\":1383:1501   */\n    tag_141:\n        /* \"#utility.yul\":1470:1494   */\n      tag_226\n        /* \"#utility.yul\":1488:1493   */\n      dup2\n        /* \"#utility.yul\":1470:1494   */\n      tag_140\n      jump\t// in\n    tag_226:\n        /* \"#utility.yul\":1465:1468   */\n      dup3\n        /* \"#utility.yul\":1458:1495   */\n      mstore\n        /* \"#utility.yul\":1383:1501   */\n      pop\n      pop\n      jump\t// out\n        /* \"#utility.yul\":1507:1597   */\n    tag_142:\n        /* \"#utility.yul\":1541:1548   */\n      0x00\n        /* \"#utility.yul\":1584:1589   */\n      dup2\n        /* \"#utility.yul\":1577:1590   */\n      iszero\n        /* \"#utility.yul\":1570:1591   */\n      iszero\n        /* \"#utility.yul\":1559:1591   */\n      swap1\n      pop\n        /* \"#utility.yul\":1507:1597   */\n      swap2\n      swap1\n      pop\n      jump\t// out\n        /* \"#utility.yul\":1603:1712   */\n    tag_143:\n        /* \"#utility.yul\":1684:1705   */\n      tag_229\n        /* \"#utility.yul\":1699:1704   */\n      dup2\n        /* \"#utility.yul\":1684:1705   */\n      tag_142\n      jump\t// in\n    tag_229:\n        /* \"#utility.yul\":1679:1682   */\n      dup3\n        /* \"#utility.yul\":1672:1706   */\n      mstore\n        /* \"#utility.yul\":1603:1712   */\n      pop\n      pop\n      jump\t// out\n        /* \"#utility.yul\":1718:2481   */\n    tag_17:\n        /* \"#utility.yul\":1945:1949   */\n      0x00\n        /* \"#utility.yul\":1983:1986   */\n      0xc0\n        /* \"#utility.yul\":1972:1981   */\n      dup3\n        /* \"#utility.yul\":1968:1987   */\n      add\n        /* \"#utility.yul\":1960:1987   */\n      swap1\n      pop\n        /* \"#utility.yul\":1997:2068   */\n      tag_231\n        /* \"#utility.yul\":2065:2066   */\n      0x00\n        /* \"#utility.yul\":2054:2063   */\n      dup4\n        /* \"#utility.yul\":2050:2067   */\n      add\n        /* \"#utility.yul\":2041:2047   */\n      dup10\n        /* \"#utility.yul\":1997:2068   */\n      tag_138\n      jump\t// in\n    tag_231:\n        /* \"#utility.yul\":2078:2150   */\n      tag_232\n        /* \"#utility.yul\":2146:2148   */\n      0x20\n        /* \"#utility.yul\":2135:2144   */\n      dup4\n        /* \"#utility.yul\":2131:2149   */\n      add\n        /* \"#utility.yul\":2122:2128   */\n      dup9\n        /* \"#utility.yul\":2078:2150   */\n      tag_141\n      jump\t// in\n    tag_232:\n        /* \"#utility.yul\":2160:2232   */\n      tag_233\n        /* \"#utility.yul\":2228:2230   */\n      0x40\n        /* \"#utility.yul\":2217:2226   */\n      dup4\n        /* \"#utility.yul\":2213:2231   */\n      add\n        /* \"#utility.yul\":2204:2210   */\n      dup8\n        /* \"#utility.yul\":2160:2232   */\n      tag_138\n      jump\t// in\n    tag_233:\n        /* \"#utility.yul\":2242:2308   */\n      tag_234\n        /* \"#utility.yul\":2304:2306   */\n      0x60\n        /* \"#utility.yul\":2293:2302   */\n      dup4\n        /* \"#utility.yul\":2289:2307   */\n      add\n        /* \"#utility.yul\":2280:2286   */\n      dup7\n        /* \"#utility.yul\":2242:2308   */\n      tag_143\n      jump\t// in\n    tag_234:\n        /* \"#utility.yul\":2318:2391   */\n      tag_235\n        /* \"#utility.yul\":2386:2389   */\n      0x80\n        /* \"#utility.yul\":2375:2384   */\n      dup4\n        /* \"#utility.yul\":2371:2390   */\n      add\n        /* \"#utility.yul\":2362:2368   */\n      dup6\n        /* \"#utility.yul\":2318:2391   */\n      tag_141\n      jump\t// in\n    tag_235:\n        /* \"#utility.yul\":2401:2474   */\n      tag_236\n        /* \"#utility.yul\":2469:2472   */\n      0xa0\n        /* \"#utility.yul\":2458:2467   */\n      dup4\n        /* \"#utility.yul\":2454:2473   */\n      add\n        /* \"#utility.yul\":2445:2451   */\n      dup5\n        /* \"#utility.yul\":2401:2474   */\n      tag_138\n      jump\t// in\n    tag_236:\n        /* \"#utility.yul\":1718:2481   */\n      swap8\n      swap7\n      pop\n      pop\n      pop\n      pop\n      pop\n      pop\n      pop\n      jump\t// out\n        /* \"#utility.yul\":2487:2609   */\n    tag_144:\n        /* \"#utility.yul\":2560:2584   */\n      tag_238\n        /* \"#utility.yul\":2578:2583   */\n      dup2\n        /* \"#utility.yul\":2560:2584   */\n      tag_140\n      jump\t// in\n    tag_238:\n        /* \"#utility.yul\":2553:2558   */\n      dup2\n        /* \"#utility.yul\":2550:2585   */\n      eq\n        /* \"#utility.yul\":2540:2603   */\n      tag_239\n      jumpi\n        /* \"#utility.yul\":2599:2600   */\n      0x00\n        /* \"#utility.yul\":2596:2597   */\n      dup1\n        /* \"#utility.yul\":2589:2601   */\n      revert\n        /* \"#utility.yul\":2540:2603   */\n    tag_239:\n        /* \"#utility.yul\":2487:2609   */\n      pop\n      jump\t// out\n        /* \"#utility.yul\":2615:2754   */\n    tag_145:\n        /* \"#utility.yul\":2661:2666   */\n      0x00\n        /* \"#utility.yul\":2699:2705   */\n      dup2\n        /* \"#utility.yul\":2686:2706   */\n      calldataload\n        /* \"#utility.yul\":2677:2706   */\n      swap1\n      pop\n        /* \"#utility.yul\":2715:2748   */\n      tag_241\n        /* \"#utility.yul\":2742:2747   */\n      dup2\n        /* \"#utility.yul\":2715:2748   */\n      tag_144\n      jump\t// in\n    tag_241:\n        /* \"#utility.yul\":2615:2754   */\n      swap3\n      swap2\n      pop\n      pop\n      jump\t// out\n        /* \"#utility.yul\":2760:3234   */\n    tag_24:\n        /* \"#utility.yul\":2828:2834   */\n      0x00\n        /* \"#utility.yul\":2836:2842   */\n      dup1\n        /* \"#utility.yul\":2885:2887   */\n      0x40\n        /* \"#utility.yul\":2873:2882   */\n      dup4\n        /* \"#utility.yul\":2864:2871   */\n      dup6\n        /* \"#utility.yul\":2860:2883   */\n      sub\n        /* \"#utility.yul\":2856:2888   */\n      slt\n        /* \"#utility.yul\":2853:2972   */\n      iszero\n      tag_243\n      jumpi\n        /* \"#utility.yul\":2891:2970   */\n      tag_244\n      tag_133\n      jump\t// in\n    tag_244:\n        /* \"#utility.yul\":2853:2972   */\n    tag_243:\n        /* \"#utility.yul\":3011:3012   */\n      0x00\n        /* \"#utility.yul\":3036:3089   */\n      tag_245\n        /* \"#utility.yul\":3081:3088   */\n      dup6\n        /* \"#utility.yul\":3072:3078   */\n      dup3\n        /* \"#utility.yul\":3061:3070   */\n      dup7\n        /* \"#utility.yul\":3057:3079   */\n      add\n        /* \"#utility.yul\":3036:3089   */\n      tag_145\n      jump\t// in\n    tag_245:\n        /* \"#utility.yul\":3026:3089   */\n      swap3\n      pop\n        /* \"#utility.yul\":2982:3099   */\n      pop\n        /* \"#utility.yul\":3138:3140   */\n      0x20\n        /* \"#utility.yul\":3164:3217   */\n      tag_246\n        /* \"#utility.yul\":3209:3216   */\n      dup6\n        /* \"#utility.yul\":3200:3206   */\n      dup3\n        /* \"#utility.yul\":3189:3198   */\n      dup7\n        /* \"#utility.yul\":3185:3207   */\n      add\n        /* \"#utility.yul\":3164:3217   */\n      tag_137\n      jump\t// in\n    tag_246:\n        /* \"#utility.yul\":3154:3217   */\n      swap2\n      pop\n        /* \"#utility.yul\":3109:3227   */\n      pop\n        /* \"#utility.yul\":2760:3234   */\n      swap3\n      pop\n      swap3\n      swap1\n      pop\n      jump\t// out\n        /* \"#utility.yul\":3240:3462   */\n    tag_27:\n        /* \"#utility.yul\":3333:3337   */\n      0x00\n        /* \"#utility.yul\":3371:3373   */\n      0x20\n        /* \"#utility.yul\":3360:3369   */\n      dup3\n        /* \"#utility.yul\":3356:3374   */\n      add\n        /* \"#utility.yul\":3348:3374   */\n      swap1\n      pop\n        /* \"#utility.yul\":3384:3455   */\n      tag_248\n        /* \"#utility.yul\":3452:3453   */\n      0x00\n        /* \"#utility.yul\":3441:3450   */\n      dup4\n        /* \"#utility.yul\":3437:3454   */\n      add\n        /* \"#utility.yul\":3428:3434   */\n      dup5\n        /* \"#utility.yul\":3384:3455   */\n      tag_138\n      jump\t// in\n    tag_248:\n        /* \"#utility.yul\":3240:3462   */\n      swap3\n      swap2\n      pop\n      pop\n      jump\t// out\n        /* \"#utility.yul\":3468:3608   */\n    tag_146:\n        /* \"#utility.yul\":3561:3567   */\n      0x00\n        /* \"#utility.yul\":3595:3600   */\n      dup2\n        /* \"#utility.yul\":3589:3601   */\n      mload\n        /* \"#utility.yul\":3579:3601   */\n      swap1\n      pop\n        /* \"#utility.yul\":3468:3608   */\n      swap2\n      swap1\n      pop\n      jump\t// out\n        /* \"#utility.yul\":3614:3824   */\n    tag_147:\n        /* \"#utility.yul\":3739:3750   */\n      0x00\n        /* \"#utility.yul\":3773:3779   */\n      dup3\n        /* \"#utility.yul\":3768:3771   */\n      dup3\n        /* \"#utility.yul\":3761:3780   */\n      mstore\n        /* \"#utility.yul\":3813:3817   */\n      0x20\n        /* \"#utility.yul\":3808:3811   */\n      dup3\n        /* \"#utility.yul\":3804:3818   */\n      add\n        /* \"#utility.yul\":3789:3818   */\n      swap1\n      pop\n        /* \"#utility.yul\":3614:3824   */\n      swap3\n      swap2\n      pop\n      pop\n      jump\t// out\n        /* \"#utility.yul\":3830:3988   */\n    tag_148:\n        /* \"#utility.yul\":3923:3927   */\n      0x00\n        /* \"#utility.yul\":3946:3949   */\n      dup2\n        /* \"#utility.yul\":3938:3949   */\n      swap1\n      pop\n        /* \"#utility.yul\":3976:3980   */\n      0x20\n        /* \"#utility.yul\":3971:3974   */\n      dup3\n        /* \"#utility.yul\":3967:3981   */\n      add\n        /* \"#utility.yul\":3959:3981   */\n      swap1\n      pop\n        /* \"#utility.yul\":3830:3988   */\n      swap2\n      swap1\n      pop\n      jump\t// out\n        /* \"#utility.yul\":3994:4102   */\n    tag_149:\n        /* \"#utility.yul\":4071:4095   */\n      tag_253\n        /* \"#utility.yul\":4089:4094   */\n      dup2\n        /* \"#utility.yul\":4071:4095   */\n      tag_135\n      jump\t// in\n    tag_253:\n        /* \"#utility.yul\":4066:4069   */\n      dup3\n        /* \"#utility.yul\":4059:4096   */\n      mstore\n        /* \"#utility.yul\":3994:4102   */\n      pop\n      pop\n      jump\t// out\n        /* \"#utility.yul\":4108:4216   */\n    tag_150:\n        /* \"#utility.yul\":4185:4209   */\n      tag_255\n        /* \"#utility.yul\":4203:4208   */\n      dup2\n        /* \"#utility.yul\":4185:4209   */\n      tag_140\n      jump\t// in\n    tag_255:\n        /* \"#utility.yul\":4180:4183   */\n      dup3\n        /* \"#utility.yul\":4173:4210   */\n      mstore\n        /* \"#utility.yul\":4108:4216   */\n      pop\n      pop\n      jump\t// out\n        /* \"#utility.yul\":4222:4321   */\n    tag_151:\n        /* \"#utility.yul\":4293:4314   */\n      tag_257\n        /* \"#utility.yul\":4308:4313   */\n      dup2\n        /* \"#utility.yul\":4293:4314   */\n      tag_142\n      jump\t// in\n    tag_257:\n        /* \"#utility.yul\":4288:4291   */\n      dup3\n        /* \"#utility.yul\":4281:4315   */\n      mstore\n        /* \"#utility.yul\":4222:4321   */\n      pop\n      pop\n      jump\t// out\n        /* \"#utility.yul\":4327:4464   */\n    tag_152:\n        /* \"#utility.yul\":4417:4423   */\n      0x00\n        /* \"#utility.yul\":4451:4456   */\n      dup2\n        /* \"#utility.yul\":4445:4457   */\n      mload\n        /* \"#utility.yul\":4435:4457   */\n      swap1\n      pop\n        /* \"#utility.yul\":4327:4464   */\n      swap2\n      swap1\n      pop\n      jump\t// out\n        /* \"#utility.yul\":4470:4667   */\n    tag_153:\n        /* \"#utility.yul\":4582:4593   */\n      0x00\n        /* \"#utility.yul\":4616:4622   */\n      dup3\n        /* \"#utility.yul\":4611:4614   */\n      dup3\n        /* \"#utility.yul\":4604:4623   */\n      mstore\n        /* \"#utility.yul\":4656:4660   */\n      0x20\n        /* \"#utility.yul\":4651:4654   */\n      dup3\n        /* \"#utility.yul\":4647:4661   */\n      add\n        /* \"#utility.yul\":4632:4661   */\n      swap1\n      pop\n        /* \"#utility.yul\":4470:4667   */\n      swap3\n      swap2\n      pop\n      pop\n      jump\t// out\n        /* \"#utility.yul\":4673:4828   */\n    tag_154:\n        /* \"#utility.yul\":4763:4767   */\n      0x00\n        /* \"#utility.yul\":4786:4789   */\n      dup2\n        /* \"#utility.yul\":4778:4789   */\n      swap1\n      pop\n        /* \"#utility.yul\":4816:4820   */\n      0x20\n        /* \"#utility.yul\":4811:4814   */\n      dup3\n        /* \"#utility.yul\":4807:4821   */\n      add\n        /* \"#utility.yul\":4799:4821   */\n      swap1\n      pop\n        /* \"#utility.yul\":4673:4828   */\n      swap2\n      swap1\n      pop\n      jump\t// out\n        /* \"#utility.yul\":4834:4933   */\n    tag_155:\n        /* \"#utility.yul\":4886:4892   */\n      0x00\n        /* \"#utility.yul\":4920:4925   */\n      dup2\n        /* \"#utility.yul\":4914:4926   */\n      mload\n        /* \"#utility.yul\":4904:4926   */\n      swap1\n      pop\n        /* \"#utility.yul\":4834:4933   */\n      swap2\n      swap1\n      pop\n      jump\t// out\n        /* \"#utility.yul\":4939:5098   */\n    tag_156:\n        /* \"#utility.yul\":5013:5024   */\n      0x00\n        /* \"#utility.yul\":5047:5053   */\n      dup3\n        /* \"#utility.yul\":5042:5045   */\n      dup3\n        /* \"#utility.yul\":5035:5054   */\n      mstore\n        /* \"#utility.yul\":5087:5091   */\n      0x20\n        /* \"#utility.yul\":5082:5085   */\n      dup3\n        /* \"#utility.yul\":5078:5092   */\n      add\n        /* \"#utility.yul\":5063:5092   */\n      swap1\n      pop\n        /* \"#utility.yul\":4939:5098   */\n      swap3\n      swap2\n      pop\n      pop\n      jump\t// out\n        /* \"#utility.yul\":5104:5243   */\n    tag_157:\n        /* \"#utility.yul\":5193:5199   */\n      dup3\n        /* \"#utility.yul\":5188:5191   */\n      dup2\n        /* \"#utility.yul\":5183:5186   */\n      dup4\n        /* \"#utility.yul\":5177:5200   */\n      mcopy\n        /* \"#utility.yul\":5234:5235   */\n      0x00\n        /* \"#utility.yul\":5225:5231   */\n      dup4\n        /* \"#utility.yul\":5220:5223   */\n      dup4\n        /* \"#utility.yul\":5216:5232   */\n      add\n        /* \"#utility.yul\":5209:5236   */\n      mstore\n        /* \"#utility.yul\":5104:5243   */\n      pop\n      pop\n      pop\n      jump\t// out\n        /* \"#utility.yul\":5249:5351   */\n    tag_158:\n        /* \"#utility.yul\":5290:5296   */\n      0x00\n        /* \"#utility.yul\":5341:5343   */\n      0x1f\n        /* \"#utility.yul\":5337:5344   */\n      not\n        /* \"#utility.yul\":5332:5334   */\n      0x1f\n        /* \"#utility.yul\":5325:5330   */\n      dup4\n        /* \"#utility.yul\":5321:5335   */\n      add\n        /* \"#utility.yul\":5317:5345   */\n      and\n        /* \"#utility.yul\":5307:5345   */\n      swap1\n      pop\n        /* \"#utility.yul\":5249:5351   */\n      swap2\n      swap1\n      pop\n      jump\t// out\n        /* \"#utility.yul\":5357:5714   */\n    tag_159:\n        /* \"#utility.yul\":5435:5438   */\n      0x00\n        /* \"#utility.yul\":5463:5502   */\n      tag_266\n        /* \"#utility.yul\":5496:5501   */\n      dup3\n        /* \"#utility.yul\":5463:5502   */\n      tag_155\n      jump\t// in\n    tag_266:\n        /* \"#utility.yul\":5518:5579   */\n      tag_267\n        /* \"#utility.yul\":5572:5578   */\n      dup2\n        /* \"#utility.yul\":5567:5570   */\n      dup6\n        /* \"#utility.yul\":5518:5579   */\n      tag_156\n      jump\t// in\n    tag_267:\n        /* \"#utility.yul\":5511:5579   */\n      swap4\n      pop\n        /* \"#utility.yul\":5588:5653   */\n      tag_268\n        /* \"#utility.yul\":5646:5652   */\n      dup2\n        /* \"#utility.yul\":5641:5644   */\n      dup6\n        /* \"#utility.yul\":5634:5638   */\n      0x20\n        /* \"#utility.yul\":5627:5632   */\n      dup7\n        /* \"#utility.yul\":5623:5639   */\n      add\n        /* \"#utility.yul\":5588:5653   */\n      tag_157\n      jump\t// in\n    tag_268:\n        /* \"#utility.yul\":5678:5707   */\n      tag_269\n        /* \"#utility.yul\":5700:5706   */\n      dup2\n        /* \"#utility.yul\":5678:5707   */\n      tag_158\n      jump\t// in\n    tag_269:\n        /* \"#utility.yul\":5673:5676   */\n      dup5\n        /* \"#utility.yul\":5669:5708   */\n      add\n        /* \"#utility.yul\":5662:5708   */\n      swap2\n      pop\n        /* \"#utility.yul\":5439:5714   */\n      pop\n        /* \"#utility.yul\":5357:5714   */\n      swap3\n      swap2\n      pop\n      pop\n      jump\t// out\n        /* \"#utility.yul\":5786:6208   */\n    tag_160:\n        /* \"#utility.yul\":5891:5894   */\n      0x00\n        /* \"#utility.yul\":5927:5931   */\n      0x20\n        /* \"#utility.yul\":5922:5925   */\n      dup4\n        /* \"#utility.yul\":5918:5932   */\n      add\n        /* \"#utility.yul\":6018:6022   */\n      0x00\n        /* \"#utility.yul\":6011:6016   */\n      dup4\n        /* \"#utility.yul\":6007:6023   */\n      add\n        /* \"#utility.yul\":6001:6024   */\n      mload\n        /* \"#utility.yul\":6071:6074   */\n      dup5\n        /* \"#utility.yul\":6065:6069   */\n      dup3\n        /* \"#utility.yul\":6061:6075   */\n      sub\n        /* \"#utility.yul\":6054:6058   */\n      0x00\n        /* \"#utility.yul\":6049:6052   */\n      dup7\n        /* \"#utility.yul\":6045:6059   */\n      add\n        /* \"#utility.yul\":6038:6076   */\n      mstore\n        /* \"#utility.yul\":6097:6170   */\n      tag_271\n        /* \"#utility.yul\":6165:6169   */\n      dup3\n        /* \"#utility.yul\":6151:6163   */\n      dup3\n        /* \"#utility.yul\":6097:6170   */\n      tag_159\n      jump\t// in\n    tag_271:\n        /* \"#utility.yul\":6089:6170   */\n      swap2\n      pop\n        /* \"#utility.yul\":5942:6181   */\n      pop\n        /* \"#utility.yul\":6198:6202   */\n      dup1\n        /* \"#utility.yul\":6191:6202   */\n      swap2\n      pop\n        /* \"#utility.yul\":5896:6208   */\n      pop\n        /* \"#utility.yul\":5786:6208   */\n      swap3\n      swap2\n      pop\n      pop\n      jump\t// out\n        /* \"#utility.yul\":6214:6462   */\n    tag_161:\n        /* \"#utility.yul\":6329:6339   */\n      0x00\n        /* \"#utility.yul\":6364:6456   */\n      tag_273\n        /* \"#utility.yul\":6452:6455   */\n      dup4\n        /* \"#utility.yul\":6444:6450   */\n      dup4\n        /* \"#utility.yul\":6364:6456   */\n      tag_160\n      jump\t// in\n    tag_273:\n        /* \"#utility.yul\":6350:6456   */\n      swap1\n      pop\n        /* \"#utility.yul\":6214:6462   */\n      swap3\n      swap2\n      pop\n      pop\n      jump\t// out\n        /* \"#utility.yul\":6468:6604   */\n    tag_162:\n        /* \"#utility.yul\":6561:6565   */\n      0x00\n        /* \"#utility.yul\":6593:6597   */\n      0x20\n        /* \"#utility.yul\":6588:6591   */\n      dup3\n        /* \"#utility.yul\":6584:6598   */\n      add\n        /* \"#utility.yul\":6576:6598   */\n      swap1\n      pop\n        /* \"#utility.yul\":6468:6604   */\n      swap2\n      swap1\n      pop\n      jump\t// out\n        /* \"#utility.yul\":6680:7755   */\n    tag_163:\n        /* \"#utility.yul\":6835:6838   */\n      0x00\n        /* \"#utility.yul\":6864:6941   */\n      tag_276\n        /* \"#utility.yul\":6935:6940   */\n      dup3\n        /* \"#utility.yul\":6864:6941   */\n      tag_152\n      jump\t// in\n    tag_276:\n        /* \"#utility.yul\":6957:7056   */\n      tag_277\n        /* \"#utility.yul\":7049:7055   */\n      dup2\n        /* \"#utility.yul\":7044:7047   */\n      dup6\n        /* \"#utility.yul\":6957:7056   */\n      tag_153\n      jump\t// in\n    tag_277:\n        /* \"#utility.yul\":6950:7056   */\n      swap4\n      pop\n        /* \"#utility.yul\":7082:7085   */\n      dup4\n        /* \"#utility.yul\":7127:7131   */\n      0x20\n        /* \"#utility.yul\":7119:7125   */\n      dup3\n        /* \"#utility.yul\":7115:7132   */\n      mul\n        /* \"#utility.yul\":7110:7113   */\n      dup6\n        /* \"#utility.yul\":7106:7133   */\n      add\n        /* \"#utility.yul\":7157:7236   */\n      tag_278\n        /* \"#utility.yul\":7230:7235   */\n      dup6\n        /* \"#utility.yul\":7157:7236   */\n      tag_154\n      jump\t// in\n    tag_278:\n        /* \"#utility.yul\":7259:7266   */\n      dup1\n        /* \"#utility.yul\":7290:7291   */\n      0x00\n        /* \"#utility.yul\":7275:7710   */\n    tag_279:\n        /* \"#utility.yul\":7300:7306   */\n      dup6\n        /* \"#utility.yul\":7297:7298   */\n      dup2\n        /* \"#utility.yul\":7294:7307   */\n      lt\n        /* \"#utility.yul\":7275:7710   */\n      iszero\n      tag_281\n      jumpi\n        /* \"#utility.yul\":7371:7380   */\n      dup5\n        /* \"#utility.yul\":7365:7369   */\n      dup5\n        /* \"#utility.yul\":7361:7381   */\n      sub\n        /* \"#utility.yul\":7356:7359   */\n      dup10\n        /* \"#utility.yul\":7349:7382   */\n      mstore\n        /* \"#utility.yul\":7422:7428   */\n      dup2\n        /* \"#utility.yul\":7416:7429   */\n      mload\n        /* \"#utility.yul\":7450:7560   */\n      tag_282\n        /* \"#utility.yul\":7555:7559   */\n      dup6\n        /* \"#utility.yul\":7540:7553   */\n      dup3\n        /* \"#utility.yul\":7450:7560   */\n      tag_161\n      jump\t// in\n    tag_282:\n        /* \"#utility.yul\":7442:7560   */\n      swap5\n      pop\n        /* \"#utility.yul\":7583:7666   */\n      tag_283\n        /* \"#utility.yul\":7659:7665   */\n      dup4\n        /* \"#utility.yul\":7583:7666   */\n      tag_162\n      jump\t// in\n    tag_283:\n        /* \"#utility.yul\":7573:7666   */\n      swap3\n      pop\n        /* \"#utility.yul\":7695:7699   */\n      0x20\n        /* \"#utility.yul\":7690:7693   */\n      dup11\n        /* \"#utility.yul\":7686:7700   */\n      add\n        /* \"#utility.yul\":7679:7700   */\n      swap10\n      pop\n        /* \"#utility.yul\":7335:7710   */\n      pop\n        /* \"#utility.yul\":7322:7323   */\n      0x01\n        /* \"#utility.yul\":7319:7320   */\n      dup2\n        /* \"#utility.yul\":7315:7324   */\n      add\n        /* \"#utility.yul\":7310:7324   */\n      swap1\n      pop\n        /* \"#utility.yul\":7275:7710   */\n      jump(tag_279)\n    tag_281:\n        /* \"#utility.yul\":7279:7293   */\n      pop\n        /* \"#utility.yul\":7726:7730   */\n      dup3\n        /* \"#utility.yul\":7719:7730   */\n      swap8\n      pop\n        /* \"#utility.yul\":7746:7749   */\n      dup8\n        /* \"#utility.yul\":7739:7749   */\n      swap6\n      pop\n        /* \"#utility.yul\":6840:7755   */\n      pop\n      pop\n      pop\n      pop\n      pop\n        /* \"#utility.yul\":6680:7755   */\n      swap3\n      swap2\n      pop\n      pop\n      jump\t// out\n        /* \"#utility.yul\":7831:9376   */\n    tag_164:\n        /* \"#utility.yul\":7942:7945   */\n      0x00\n        /* \"#utility.yul\":7978:7982   */\n      0xe0\n        /* \"#utility.yul\":7973:7976   */\n      dup4\n        /* \"#utility.yul\":7969:7983   */\n      add\n        /* \"#utility.yul\":8063:8067   */\n      0x00\n        /* \"#utility.yul\":8056:8061   */\n      dup4\n        /* \"#utility.yul\":8052:8068   */\n      add\n        /* \"#utility.yul\":8046:8069   */\n      mload\n        /* \"#utility.yul\":8082:8145   */\n      tag_285\n        /* \"#utility.yul\":8139:8143   */\n      0x00\n        /* \"#utility.yul\":8134:8137   */\n      dup7\n        /* \"#utility.yul\":8130:8144   */\n      add\n        /* \"#utility.yul\":8116:8128   */\n      dup3\n        /* \"#utility.yul\":8082:8145   */\n      tag_149\n      jump\t// in\n    tag_285:\n        /* \"#utility.yul\":7993:8155   */\n      pop\n        /* \"#utility.yul\":8237:8241   */\n      0x20\n        /* \"#utility.yul\":8230:8235   */\n      dup4\n        /* \"#utility.yul\":8226:8242   */\n      add\n        /* \"#utility.yul\":8220:8243   */\n      mload\n        /* \"#utility.yul\":8256:8319   */\n      tag_286\n        /* \"#utility.yul\":8313:8317   */\n      0x20\n        /* \"#utility.yul\":8308:8311   */\n      dup7\n        /* \"#utility.yul\":8304:8318   */\n      add\n        /* \"#utility.yul\":8290:8302   */\n      dup3\n        /* \"#utility.yul\":8256:8319   */\n      tag_150\n      jump\t// in\n    tag_286:\n        /* \"#utility.yul\":8165:8329   */\n      pop\n        /* \"#utility.yul\":8415:8419   */\n      0x40\n        /* \"#utility.yul\":8408:8413   */\n      dup4\n        /* \"#utility.yul\":8404:8420   */\n      add\n        /* \"#utility.yul\":8398:8421   */\n      mload\n        /* \"#utility.yul\":8434:8497   */\n      tag_287\n        /* \"#utility.yul\":8491:8495   */\n      0x40\n        /* \"#utility.yul\":8486:8489   */\n      dup7\n        /* \"#utility.yul\":8482:8496   */\n      add\n        /* \"#utility.yul\":8468:8480   */\n      dup3\n        /* \"#utility.yul\":8434:8497   */\n      tag_149\n      jump\t// in\n    tag_287:\n        /* \"#utility.yul\":8339:8507   */\n      pop\n        /* \"#utility.yul\":8591:8595   */\n      0x60\n        /* \"#utility.yul\":8584:8589   */\n      dup4\n        /* \"#utility.yul\":8580:8596   */\n      add\n        /* \"#utility.yul\":8574:8597   */\n      mload\n        /* \"#utility.yul\":8610:8667   */\n      tag_288\n        /* \"#utility.yul\":8661:8665   */\n      0x60\n        /* \"#utility.yul\":8656:8659   */\n      dup7\n        /* \"#utility.yul\":8652:8666   */\n      add\n        /* \"#utility.yul\":8638:8650   */\n      dup3\n        /* \"#utility.yul\":8610:8667   */\n      tag_151\n      jump\t// in\n    tag_288:\n        /* \"#utility.yul\":8517:8677   */\n      pop\n        /* \"#utility.yul\":8757:8761   */\n      0x80\n        /* \"#utility.yul\":8750:8755   */\n      dup4\n        /* \"#utility.yul\":8746:8762   */\n      add\n        /* \"#utility.yul\":8740:8763   */\n      mload\n        /* \"#utility.yul\":8776:8839   */\n      tag_289\n        /* \"#utility.yul\":8833:8837   */\n      0x80\n        /* \"#utility.yul\":8828:8831   */\n      dup7\n        /* \"#utility.yul\":8824:8838   */\n      add\n        /* \"#utility.yul\":8810:8822   */\n      dup3\n        /* \"#utility.yul\":8776:8839   */\n      tag_150\n      jump\t// in\n    tag_289:\n        /* \"#utility.yul\":8687:8849   */\n      pop\n        /* \"#utility.yul\":8936:8940   */\n      0xa0\n        /* \"#utility.yul\":8929:8934   */\n      dup4\n        /* \"#utility.yul\":8925:8941   */\n      add\n        /* \"#utility.yul\":8919:8942   */\n      mload\n        /* \"#utility.yul\":8955:9018   */\n      tag_290\n        /* \"#utility.yul\":9012:9016   */\n      0xa0\n        /* \"#utility.yul\":9007:9010   */\n      dup7\n        /* \"#utility.yul\":9003:9017   */\n      add\n        /* \"#utility.yul\":8989:9001   */\n      dup3\n        /* \"#utility.yul\":8955:9018   */\n      tag_149\n      jump\t// in\n    tag_290:\n        /* \"#utility.yul\":8859:9028   */\n      pop\n        /* \"#utility.yul\":9110:9114   */\n      0xc0\n        /* \"#utility.yul\":9103:9108   */\n      dup4\n        /* \"#utility.yul\":9099:9115   */\n      add\n        /* \"#utility.yul\":9093:9116   */\n      mload\n        /* \"#utility.yul\":9163:9166   */\n      dup5\n        /* \"#utility.yul\":9157:9161   */\n      dup3\n        /* \"#utility.yul\":9153:9167   */\n      sub\n        /* \"#utility.yul\":9146:9150   */\n      0xc0\n        /* \"#utility.yul\":9141:9144   */\n      dup7\n        /* \"#utility.yul\":9137:9151   */\n      add\n        /* \"#utility.yul\":9130:9168   */\n      mstore\n        /* \"#utility.yul\":9189:9338   */\n      tag_291\n        /* \"#utility.yul\":9333:9337   */\n      dup3\n        /* \"#utility.yul\":9319:9331   */\n      dup3\n        /* \"#utility.yul\":9189:9338   */\n      tag_163\n      jump\t// in\n    tag_291:\n        /* \"#utility.yul\":9181:9338   */\n      swap2\n      pop\n        /* \"#utility.yul\":9038:9349   */\n      pop\n        /* \"#utility.yul\":9366:9370   */\n      dup1\n        /* \"#utility.yul\":9359:9370   */\n      swap2\n      pop\n        /* \"#utility.yul\":7947:9376   */\n      pop\n        /* \"#utility.yul\":7831:9376   */\n      swap3\n      swap2\n      pop\n      pop\n      jump\t// out\n        /* \"#utility.yul\":9382:9642   */\n    tag_165:\n        /* \"#utility.yul\":9503:9513   */\n      0x00\n        /* \"#utility.yul\":9538:9636   */\n      tag_293\n        /* \"#utility.yul\":9632:9635   */\n      dup4\n        /* \"#utility.yul\":9624:9630   */\n      dup4\n        /* \"#utility.yul\":9538:9636   */\n      tag_164\n      jump\t// in\n    tag_293:\n        /* \"#utility.yul\":9524:9636   */\n      swap1\n      pop\n        /* \"#utility.yul\":9382:9642   */\n      swap3\n      swap2\n      pop\n      pop\n      jump\t// out\n        /* \"#utility.yul\":9648:9787   */\n    tag_166:\n        /* \"#utility.yul\":9744:9748   */\n      0x00\n        /* \"#utility.yul\":9776:9780   */\n      0x20\n        /* \"#utility.yul\":9771:9774   */\n      dup3\n        /* \"#utility.yul\":9767:9781   */\n      add\n        /* \"#utility.yul\":9759:9781   */\n      swap1\n      pop\n        /* \"#utility.yul\":9648:9787   */\n      swap2\n      swap1\n      pop\n      jump\t// out\n        /* \"#utility.yul\":9867:10986   */\n    tag_167:\n        /* \"#utility.yul\":10038:10041   */\n      0x00\n        /* \"#utility.yul\":10067:10147   */\n      tag_296\n        /* \"#utility.yul\":10141:10146   */\n      dup3\n        /* \"#utility.yul\":10067:10147   */\n      tag_146\n      jump\t// in\n    tag_296:\n        /* \"#utility.yul\":10163:10275   */\n      tag_297\n        /* \"#utility.yul\":10268:10274   */\n      dup2\n        /* \"#utility.yul\":10263:10266   */\n      dup6\n        /* \"#utility.yul\":10163:10275   */\n      tag_147\n      jump\t// in\n    tag_297:\n        /* \"#utility.yul\":10156:10275   */\n      swap4\n      pop\n        /* \"#utility.yul\":10301:10304   */\n      dup4\n        /* \"#utility.yul\":10346:10350   */\n      0x20\n        /* \"#utility.yul\":10338:10344   */\n      dup3\n        /* \"#utility.yul\":10334:10351   */\n      mul\n        /* \"#utility.yul\":10329:10332   */\n      dup6\n        /* \"#utility.yul\":10325:10352   */\n      add\n        /* \"#utility.yul\":10376:10458   */\n      tag_298\n        /* \"#utility.yul\":10452:10457   */\n      dup6\n        /* \"#utility.yul\":10376:10458   */\n      tag_148\n      jump\t// in\n    tag_298:\n        /* \"#utility.yul\":10481:10488   */\n      dup1\n        /* \"#utility.yul\":10512:10513   */\n      0x00\n        /* \"#utility.yul\":10497:10941   */\n    tag_299:\n        /* \"#utility.yul\":10522:10528   */\n      dup6\n        /* \"#utility.yul\":10519:10520   */\n      dup2\n        /* \"#utility.yul\":10516:10529   */\n      lt\n        /* \"#utility.yul\":10497:10941   */\n      iszero\n      tag_301\n      jumpi\n        /* \"#utility.yul\":10593:10602   */\n      dup5\n        /* \"#utility.yul\":10587:10591   */\n      dup5\n        /* \"#utility.yul\":10583:10603   */\n      sub\n        /* \"#utility.yul\":10578:10581   */\n      dup10\n        /* \"#utility.yul\":10571:10604   */\n      mstore\n        /* \"#utility.yul\":10644:10650   */\n      dup2\n        /* \"#utility.yul\":10638:10651   */\n      mload\n        /* \"#utility.yul\":10672:10788   */\n      tag_302\n        /* \"#utility.yul\":10783:10787   */\n      dup6\n        /* \"#utility.yul\":10768:10781   */\n      dup3\n        /* \"#utility.yul\":10672:10788   */\n      tag_165\n      jump\t// in\n    tag_302:\n        /* \"#utility.yul\":10664:10788   */\n      swap5\n      pop\n        /* \"#utility.yul\":10811:10897   */\n      tag_303\n        /* \"#utility.yul\":10890:10896   */\n      dup4\n        /* \"#utility.yul\":10811:10897   */\n      tag_166\n      jump\t// in\n    tag_303:\n        /* \"#utility.yul\":10801:10897   */\n      swap3\n      pop\n        /* \"#utility.yul\":10926:10930   */\n      0x20\n        /* \"#utility.yul\":10921:10924   */\n      dup11\n        /* \"#utility.yul\":10917:10931   */\n      add\n        /* \"#utility.yul\":10910:10931   */\n      swap10\n      pop\n        /* \"#utility.yul\":10557:10941   */\n      pop\n        /* \"#utility.yul\":10544:10545   */\n      0x01\n        /* \"#utility.yul\":10541:10542   */\n      dup2\n        /* \"#utility.yul\":10537:10546   */\n      add\n        /* \"#utility.yul\":10532:10546   */\n      swap1\n      pop\n        /* \"#utility.yul\":10497:10941   */\n      jump(tag_299)\n    tag_301:\n        /* \"#utility.yul\":10501:10515   */\n      pop\n        /* \"#utility.yul\":10957:10961   */\n      dup3\n        /* \"#utility.yul\":10950:10961   */\n      swap8\n      pop\n        /* \"#utility.yul\":10977:10980   */\n      dup8\n        /* \"#utility.yul\":10970:10980   */\n      swap6\n      pop\n        /* \"#utility.yul\":10043:10986   */\n      pop\n      pop\n      pop\n      pop\n      pop\n        /* \"#utility.yul\":9867:10986   */\n      swap3\n      swap2\n      pop\n      pop\n      jump\t// out\n        /* \"#utility.yul\":10992:11469   */\n    tag_31:\n        /* \"#utility.yul\":11187:11191   */\n      0x00\n        /* \"#utility.yul\":11225:11227   */\n      0x20\n        /* \"#utility.yul\":11214:11223   */\n      dup3\n        /* \"#utility.yul\":11210:11228   */\n      add\n        /* \"#utility.yul\":11202:11228   */\n      swap1\n      pop\n        /* \"#utility.yul\":11274:11283   */\n      dup2\n        /* \"#utility.yul\":11268:11272   */\n      dup2\n        /* \"#utility.yul\":11264:11284   */\n      sub\n        /* \"#utility.yul\":11260:11261   */\n      0x00\n        /* \"#utility.yul\":11249:11258   */\n      dup4\n        /* \"#utility.yul\":11245:11262   */\n      add\n        /* \"#utility.yul\":11238:11285   */\n      mstore\n        /* \"#utility.yul\":11302:11462   */\n      tag_305\n        /* \"#utility.yul\":11457:11461   */\n      dup2\n        /* \"#utility.yul\":11448:11454   */\n      dup5\n        /* \"#utility.yul\":11302:11462   */\n      tag_167\n      jump\t// in\n    tag_305:\n        /* \"#utility.yul\":11294:11462   */\n      swap1\n      pop\n        /* \"#utility.yul\":10992:11469   */\n      swap3\n      swap2\n      pop\n      pop\n      jump\t// out\n        /* \"#utility.yul\":11475:11592   */\n    tag_168:\n        /* \"#utility.yul\":11584:11585   */\n      0x00\n        /* \"#utility.yul\":11581:11582   */\n      dup1\n        /* \"#utility.yul\":11574:11586   */\n      revert\n        /* \"#utility.yul\":11598:11778   */\n    tag_169:\n        /* \"#utility.yul\":11646:11723   */\n      0x4e487b7100000000000000000000000000000000000000000000000000000000\n        /* \"#utility.yul\":11643:11644   */\n      0x00\n        /* \"#utility.yul\":11636:11724   */\n      mstore\n        /* \"#utility.yul\":11743:11747   */\n      0x41\n        /* \"#utility.yul\":11740:11741   */\n      0x04\n        /* \"#utility.yul\":11733:11748   */\n      mstore\n        /* \"#utility.yul\":11767:11771   */\n      0x24\n        /* \"#utility.yul\":11764:11765   */\n      0x00\n        /* \"#utility.yul\":11757:11772   */\n      revert\n        /* \"#utility.yul\":11784:12065   */\n    tag_170:\n        /* \"#utility.yul\":11867:11894   */\n      tag_309\n        /* \"#utility.yul\":11889:11893   */\n      dup3\n        /* \"#utility.yul\":11867:11894   */\n      tag_158\n      jump\t// in\n    tag_309:\n        /* \"#utility.yul\":11859:11865   */\n      dup2\n        /* \"#utility.yul\":11855:11895   */\n      add\n        /* \"#utility.yul\":11997:12003   */\n      dup2\n        /* \"#utility.yul\":11985:11995   */\n      dup2\n        /* \"#utility.yul\":11982:12004   */\n      lt\n        /* \"#utility.yul\":11961:11979   */\n      0xffffffffffffffff\n        /* \"#utility.yul\":11949:11959   */\n      dup3\n        /* \"#utility.yul\":11946:11980   */\n      gt\n        /* \"#utility.yul\":11943:12005   */\n      or\n        /* \"#utility.yul\":11940:12028   */\n      iszero\n      tag_310\n      jumpi\n        /* \"#utility.yul\":12008:12026   */\n      tag_311\n      tag_169\n      jump\t// in\n    tag_311:\n        /* \"#utility.yul\":11940:12028   */\n    tag_310:\n        /* \"#utility.yul\":12048:12058   */\n      dup1\n        /* \"#utility.yul\":12044:12046   */\n      0x40\n        /* \"#utility.yul\":12037:12059   */\n      mstore\n        /* \"#utility.yul\":11827:12065   */\n      pop\n        /* \"#utility.yul\":11784:12065   */\n      pop\n      pop\n      jump\t// out\n        /* \"#utility.yul\":12071:12200   */\n    tag_171:\n        /* \"#utility.yul\":12105:12111   */\n      0x00\n        /* \"#utility.yul\":12132:12152   */\n      tag_313\n      tag_132\n      jump\t// in\n    tag_313:\n        /* \"#utility.yul\":12122:12152   */\n      swap1\n      pop\n        /* \"#utility.yul\":12161:12194   */\n      tag_314\n        /* \"#utility.yul\":12189:12193   */\n      dup3\n        /* \"#utility.yul\":12181:12187   */\n      dup3\n        /* \"#utility.yul\":12161:12194   */\n      tag_170\n      jump\t// in\n    tag_314:\n        /* \"#utility.yul\":12071:12200   */\n      swap2\n      swap1\n      pop\n      jump\t// out\n        /* \"#utility.yul\":12206:12527   */\n    tag_172:\n        /* \"#utility.yul\":12293:12297   */\n      0x00\n        /* \"#utility.yul\":12383:12401   */\n      0xffffffffffffffff\n        /* \"#utility.yul\":12375:12381   */\n      dup3\n        /* \"#utility.yul\":12372:12402   */\n      gt\n        /* \"#utility.yul\":12369:12425   */\n      iszero\n      tag_316\n      jumpi\n        /* \"#utility.yul\":12405:12423   */\n      tag_317\n      tag_169\n      jump\t// in\n    tag_317:\n        /* \"#utility.yul\":12369:12425   */\n    tag_316:\n        /* \"#utility.yul\":12455:12459   */\n      0x20\n        /* \"#utility.yul\":12447:12453   */\n      dup3\n        /* \"#utility.yul\":12443:12460   */\n      mul\n        /* \"#utility.yul\":12435:12460   */\n      swap1\n      pop\n        /* \"#utility.yul\":12515:12519   */\n      0x20\n        /* \"#utility.yul\":12509:12513   */\n      dup2\n        /* \"#utility.yul\":12505:12520   */\n      add\n        /* \"#utility.yul\":12497:12520   */\n      swap1\n      pop\n        /* \"#utility.yul\":12206:12527   */\n      swap2\n      swap1\n      pop\n      jump\t// out\n        /* \"#utility.yul\":12533:12650   */\n    tag_173:\n        /* \"#utility.yul\":12642:12643   */\n      0x00\n        /* \"#utility.yul\":12639:12640   */\n      dup1\n        /* \"#utility.yul\":12632:12644   */\n      revert\n        /* \"#utility.yul\":12656:12773   */\n    tag_174:\n        /* \"#utility.yul\":12765:12766   */\n      0x00\n        /* \"#utility.yul\":12762:12763   */\n      dup1\n        /* \"#utility.yul\":12755:12767   */\n      revert\n        /* \"#utility.yul\":12779:13087   */\n    tag_175:\n        /* \"#utility.yul\":12841:12845   */\n      0x00\n        /* \"#utility.yul\":12931:12949   */\n      0xffffffffffffffff\n        /* \"#utility.yul\":12923:12929   */\n      dup3\n        /* \"#utility.yul\":12920:12950   */\n      gt\n        /* \"#utility.yul\":12917:12973   */\n      iszero\n      tag_321\n      jumpi\n        /* \"#utility.yul\":12953:12971   */\n      tag_322\n      tag_169\n      jump\t// in\n    tag_322:\n        /* \"#utility.yul\":12917:12973   */\n    tag_321:\n        /* \"#utility.yul\":12991:13020   */\n      tag_323\n        /* \"#utility.yul\":13013:13019   */\n      dup3\n        /* \"#utility.yul\":12991:13020   */\n      tag_158\n      jump\t// in\n    tag_323:\n        /* \"#utility.yul\":12983:13020   */\n      swap1\n      pop\n        /* \"#utility.yul\":13075:13079   */\n      0x20\n        /* \"#utility.yul\":13069:13073   */\n      dup2\n        /* \"#utility.yul\":13065:13080   */\n      add\n        /* \"#utility.yul\":13057:13080   */\n      swap1\n      pop\n        /* \"#utility.yul\":12779:13087   */\n      swap2\n      swap1\n      pop\n      jump\t// out\n        /* \"#utility.yul\":13093:13241   */\n    tag_176:\n        /* \"#utility.yul\":13191:13197   */\n      dup3\n        /* \"#utility.yul\":13186:13189   */\n      dup2\n        /* \"#utility.yul\":13181:13184   */\n      dup4\n        /* \"#utility.yul\":13168:13198   */\n      calldatacopy\n        /* \"#utility.yul\":13232:13233   */\n      0x00\n        /* \"#utility.yul\":13223:13229   */\n      dup4\n        /* \"#utility.yul\":13218:13221   */\n      dup4\n        /* \"#utility.yul\":13214:13230   */\n      add\n        /* \"#utility.yul\":13207:13234   */\n      mstore\n        /* \"#utility.yul\":13093:13241   */\n      pop\n      pop\n      pop\n      jump\t// out\n        /* \"#utility.yul\":13247:13672   */\n    tag_177:\n        /* \"#utility.yul\":13325:13330   */\n      0x00\n        /* \"#utility.yul\":13350:13416   */\n      tag_326\n        /* \"#utility.yul\":13366:13415   */\n      tag_327\n        /* \"#utility.yul\":13408:13414   */\n      dup5\n        /* \"#utility.yul\":13366:13415   */\n      tag_175\n      jump\t// in\n    tag_327:\n        /* \"#utility.yul\":13350:13416   */\n      tag_171\n      jump\t// in\n    tag_326:\n        /* \"#utility.yul\":13341:13416   */\n      swap1\n      pop\n        /* \"#utility.yul\":13439:13445   */\n      dup3\n        /* \"#utility.yul\":13432:13437   */\n      dup2\n        /* \"#utility.yul\":13425:13446   */\n      mstore\n        /* \"#utility.yul\":13477:13481   */\n      0x20\n        /* \"#utility.yul\":13470:13475   */\n      dup2\n        /* \"#utility.yul\":13466:13482   */\n      add\n        /* \"#utility.yul\":13515:13518   */\n      dup5\n        /* \"#utility.yul\":13506:13512   */\n      dup5\n        /* \"#utility.yul\":13501:13504   */\n      dup5\n        /* \"#utility.yul\":13497:13513   */\n      add\n        /* \"#utility.yul\":13494:13519   */\n      gt\n        /* \"#utility.yul\":13491:13603   */\n      iszero\n      tag_328\n      jumpi\n        /* \"#utility.yul\":13522:13601   */\n      tag_329\n      tag_174\n      jump\t// in\n    tag_329:\n        /* \"#utility.yul\":13491:13603   */\n    tag_328:\n        /* \"#utility.yul\":13612:13666   */\n      tag_330\n        /* \"#utility.yul\":13659:13665   */\n      dup5\n        /* \"#utility.yul\":13654:13657   */\n      dup3\n        /* \"#utility.yul\":13649:13652   */\n      dup6\n        /* \"#utility.yul\":13612:13666   */\n      tag_176\n      jump\t// in\n    tag_330:\n        /* \"#utility.yul\":13331:13672   */\n      pop\n        /* \"#utility.yul\":13247:13672   */\n      swap4\n      swap3\n      pop\n      pop\n      pop\n      jump\t// out\n        /* \"#utility.yul\":13692:14032   */\n    tag_178:\n        /* \"#utility.yul\":13748:13753   */\n      0x00\n        /* \"#utility.yul\":13797:13800   */\n      dup3\n        /* \"#utility.yul\":13790:13794   */\n      0x1f\n        /* \"#utility.yul\":13782:13788   */\n      dup4\n        /* \"#utility.yul\":13778:13795   */\n      add\n        /* \"#utility.yul\":13774:13801   */\n      slt\n        /* \"#utility.yul\":13764:13886   */\n      tag_332\n      jumpi\n        /* \"#utility.yul\":13805:13884   */\n      tag_333\n      tag_168\n      jump\t// in\n    tag_333:\n        /* \"#utility.yul\":13764:13886   */\n    tag_332:\n        /* \"#utility.yul\":13922:13928   */\n      dup2\n        /* \"#utility.yul\":13909:13929   */\n      calldataload\n        /* \"#utility.yul\":13947:14026   */\n      tag_334\n        /* \"#utility.yul\":14022:14025   */\n      dup5\n        /* \"#utility.yul\":14014:14020   */\n      dup3\n        /* \"#utility.yul\":14007:14011   */\n      0x20\n        /* \"#utility.yul\":13999:14005   */\n      dup7\n        /* \"#utility.yul\":13995:14012   */\n      add\n        /* \"#utility.yul\":13947:14026   */\n      tag_177\n      jump\t// in\n    tag_334:\n        /* \"#utility.yul\":13938:14026   */\n      swap2\n      pop\n        /* \"#utility.yul\":13754:14032   */\n      pop\n        /* \"#utility.yul\":13692:14032   */\n      swap3\n      swap2\n      pop\n      pop\n      jump\t// out\n        /* \"#utility.yul\":14054:14999   */\n    tag_179:\n        /* \"#utility.yul\":14160:14165   */\n      0x00\n        /* \"#utility.yul\":14185:14276   */\n      tag_336\n        /* \"#utility.yul\":14201:14275   */\n      tag_337\n        /* \"#utility.yul\":14268:14274   */\n      dup5\n        /* \"#utility.yul\":14201:14275   */\n      tag_172\n      jump\t// in\n    tag_337:\n        /* \"#utility.yul\":14185:14276   */\n      tag_171\n      jump\t// in\n    tag_336:\n        /* \"#utility.yul\":14176:14276   */\n      swap1\n      pop\n        /* \"#utility.yul\":14296:14301   */\n      dup1\n        /* \"#utility.yul\":14325:14331   */\n      dup4\n        /* \"#utility.yul\":14318:14323   */\n      dup3\n        /* \"#utility.yul\":14311:14332   */\n      mstore\n        /* \"#utility.yul\":14359:14363   */\n      0x20\n        /* \"#utility.yul\":14352:14357   */\n      dup3\n        /* \"#utility.yul\":14348:14364   */\n      add\n        /* \"#utility.yul\":14341:14364   */\n      swap1\n      pop\n        /* \"#utility.yul\":14412:14416   */\n      0x20\n        /* \"#utility.yul\":14404:14410   */\n      dup5\n        /* \"#utility.yul\":14400:14417   */\n      mul\n        /* \"#utility.yul\":14392:14398   */\n      dup4\n        /* \"#utility.yul\":14388:14418   */\n      add\n        /* \"#utility.yul\":14441:14444   */\n      dup6\n        /* \"#utility.yul\":14433:14439   */\n      dup2\n        /* \"#utility.yul\":14430:14445   */\n      gt\n        /* \"#utility.yul\":14427:14549   */\n      iszero\n      tag_338\n      jumpi\n        /* \"#utility.yul\":14460:14539   */\n      tag_339\n      tag_173\n      jump\t// in\n    tag_339:\n        /* \"#utility.yul\":14427:14549   */\n    tag_338:\n        /* \"#utility.yul\":14575:14581   */\n      dup4\n        /* \"#utility.yul\":14558:14993   */\n    tag_340:\n        /* \"#utility.yul\":14592:14598   */\n      dup2\n        /* \"#utility.yul\":14587:14590   */\n      dup2\n        /* \"#utility.yul\":14584:14599   */\n      lt\n        /* \"#utility.yul\":14558:14993   */\n      iszero\n      tag_342\n      jumpi\n        /* \"#utility.yul\":14681:14684   */\n      dup1\n        /* \"#utility.yul\":14668:14685   */\n      calldataload\n        /* \"#utility.yul\":14717:14735   */\n      0xffffffffffffffff\n        /* \"#utility.yul\":14704:14715   */\n      dup2\n        /* \"#utility.yul\":14701:14736   */\n      gt\n        /* \"#utility.yul\":14698:14820   */\n      iszero\n      tag_343\n      jumpi\n        /* \"#utility.yul\":14739:14818   */\n      tag_344\n      tag_168\n      jump\t// in\n    tag_344:\n        /* \"#utility.yul\":14698:14820   */\n    tag_343:\n        /* \"#utility.yul\":14863:14874   */\n      dup1\n        /* \"#utility.yul\":14855:14861   */\n      dup7\n        /* \"#utility.yul\":14851:14875   */\n      add\n        /* \"#utility.yul\":14901:14948   */\n      tag_345\n        /* \"#utility.yul\":14944:14947   */\n      dup10\n        /* \"#utility.yul\":14932:14942   */\n      dup3\n        /* \"#utility.yul\":14901:14948   */\n      tag_178\n      jump\t// in\n    tag_345:\n        /* \"#utility.yul\":14896:14899   */\n      dup6\n        /* \"#utility.yul\":14889:14949   */\n      mstore\n        /* \"#utility.yul\":14978:14982   */\n      0x20\n        /* \"#utility.yul\":14973:14976   */\n      dup6\n        /* \"#utility.yul\":14969:14983   */\n      add\n        /* \"#utility.yul\":14962:14983   */\n      swap5\n      pop\n        /* \"#utility.yul\":14634:14993   */\n      pop\n      pop\n        /* \"#utility.yul\":14618:14622   */\n      0x20\n        /* \"#utility.yul\":14613:14616   */\n      dup2\n        /* \"#utility.yul\":14609:14623   */\n      add\n        /* \"#utility.yul\":14602:14623   */\n      swap1\n      pop\n        /* \"#utility.yul\":14558:14993   */\n      jump(tag_340)\n    tag_342:\n        /* \"#utility.yul\":14562:14583   */\n      pop\n        /* \"#utility.yul\":14166:14999   */\n      pop\n      pop\n        /* \"#utility.yul\":14054:14999   */\n      swap4\n      swap3\n      pop\n      pop\n      pop\n      jump\t// out\n        /* \"#utility.yul\":15021:15411   */\n    tag_180:\n        /* \"#utility.yul\":15102:15107   */\n      0x00\n        /* \"#utility.yul\":15151:15154   */\n      dup3\n        /* \"#utility.yul\":15144:15148   */\n      0x1f\n        /* \"#utility.yul\":15136:15142   */\n      dup4\n        /* \"#utility.yul\":15132:15149   */\n      add\n        /* \"#utility.yul\":15128:15155   */\n      slt\n        /* \"#utility.yul\":15118:15240   */\n      tag_347\n      jumpi\n        /* \"#utility.yul\":15159:15238   */\n      tag_348\n      tag_168\n      jump\t// in\n    tag_348:\n        /* \"#utility.yul\":15118:15240   */\n    tag_347:\n        /* \"#utility.yul\":15276:15282   */\n      dup2\n        /* \"#utility.yul\":15263:15283   */\n      calldataload\n        /* \"#utility.yul\":15301:15405   */\n      tag_349\n        /* \"#utility.yul\":15401:15404   */\n      dup5\n        /* \"#utility.yul\":15393:15399   */\n      dup3\n        /* \"#utility.yul\":15386:15390   */\n      0x20\n        /* \"#utility.yul\":15378:15384   */\n      dup7\n        /* \"#utility.yul\":15374:15391   */\n      add\n        /* \"#utility.yul\":15301:15405   */\n      tag_179\n      jump\t// in\n    tag_349:\n        /* \"#utility.yul\":15292:15405   */\n      swap2\n      pop\n        /* \"#utility.yul\":15108:15411   */\n      pop\n        /* \"#utility.yul\":15021:15411   */\n      swap3\n      swap2\n      pop\n      pop\n      jump\t// out\n        /* \"#utility.yul\":15417:15976   */\n    tag_34:\n        /* \"#utility.yul\":15511:15517   */\n      0x00\n        /* \"#utility.yul\":15560:15562   */\n      0x20\n        /* \"#utility.yul\":15548:15557   */\n      dup3\n        /* \"#utility.yul\":15539:15546   */\n      dup5\n        /* \"#utility.yul\":15535:15558   */\n      sub\n        /* \"#utility.yul\":15531:15563   */\n      slt\n        /* \"#utility.yul\":15528:15647   */\n      iszero\n      tag_351\n      jumpi\n        /* \"#utility.yul\":15566:15645   */\n      tag_352\n      tag_133\n      jump\t// in\n    tag_352:\n        /* \"#utility.yul\":15528:15647   */\n    tag_351:\n        /* \"#utility.yul\":15714:15715   */\n      0x00\n        /* \"#utility.yul\":15703:15712   */\n      dup3\n        /* \"#utility.yul\":15699:15716   */\n      add\n        /* \"#utility.yul\":15686:15717   */\n      calldataload\n        /* \"#utility.yul\":15744:15762   */\n      0xffffffffffffffff\n        /* \"#utility.yul\":15736:15742   */\n      dup2\n        /* \"#utility.yul\":15733:15763   */\n      gt\n        /* \"#utility.yul\":15730:15847   */\n      iszero\n      tag_353\n      jumpi\n        /* \"#utility.yul\":15766:15845   */\n      tag_354\n      tag_134\n      jump\t// in\n    tag_354:\n        /* \"#utility.yul\":15730:15847   */\n    tag_353:\n        /* \"#utility.yul\":15871:15959   */\n      tag_355\n        /* \"#utility.yul\":15951:15958   */\n      dup5\n        /* \"#utility.yul\":15942:15948   */\n      dup3\n        /* \"#utility.yul\":15931:15940   */\n      dup6\n        /* \"#utility.yul\":15927:15949   */\n      add\n        /* \"#utility.yul\":15871:15959   */\n      tag_180\n      jump\t// in\n    tag_355:\n        /* \"#utility.yul\":15861:15959   */\n      swap2\n      pop\n        /* \"#utility.yul\":15657:15969   */\n      pop\n        /* \"#utility.yul\":15417:15976   */\n      swap3\n      swap2\n      pop\n      pop\n      jump\t// out\n        /* \"#utility.yul\":15982:16686   */\n    tag_38:\n        /* \"#utility.yul\":16085:16091   */\n      0x00\n        /* \"#utility.yul\":16093:16099   */\n      dup1\n        /* \"#utility.yul\":16142:16144   */\n      0x40\n        /* \"#utility.yul\":16130:16139   */\n      dup4\n        /* \"#utility.yul\":16121:16128   */\n      dup6\n        /* \"#utility.yul\":16117:16140   */\n      sub\n        /* \"#utility.yul\":16113:16145   */\n      slt\n        /* \"#utility.yul\":16110:16229   */\n      iszero\n      tag_357\n      jumpi\n        /* \"#utility.yul\":16148:16227   */\n      tag_358\n      tag_133\n      jump\t// in\n    tag_358:\n        /* \"#utility.yul\":16110:16229   */\n    tag_357:\n        /* \"#utility.yul\":16268:16269   */\n      0x00\n        /* \"#utility.yul\":16293:16346   */\n      tag_359\n        /* \"#utility.yul\":16338:16345   */\n      dup6\n        /* \"#utility.yul\":16329:16335   */\n      dup3\n        /* \"#utility.yul\":16318:16327   */\n      dup7\n        /* \"#utility.yul\":16314:16336   */\n      add\n        /* \"#utility.yul\":16293:16346   */\n      tag_137\n      jump\t// in\n    tag_359:\n        /* \"#utility.yul\":16283:16346   */\n      swap3\n      pop\n        /* \"#utility.yul\":16239:16356   */\n      pop\n        /* \"#utility.yul\":16423:16425   */\n      0x20\n        /* \"#utility.yul\":16412:16421   */\n      dup4\n        /* \"#utility.yul\":16408:16426   */\n      add\n        /* \"#utility.yul\":16395:16427   */\n      calldataload\n        /* \"#utility.yul\":16454:16472   */\n      0xffffffffffffffff\n        /* \"#utility.yul\":16446:16452   */\n      dup2\n        /* \"#utility.yul\":16443:16473   */\n      gt\n        /* \"#utility.yul\":16440:16557   */\n      iszero\n      tag_360\n      jumpi\n        /* \"#utility.yul\":16476:16555   */\n      tag_361\n      tag_134\n      jump\t// in\n    tag_361:\n        /* \"#utility.yul\":16440:16557   */\n    tag_360:\n        /* \"#utility.yul\":16581:16669   */\n      tag_362\n        /* \"#utility.yul\":16661:16668   */\n      dup6\n        /* \"#utility.yul\":16652:16658   */\n      dup3\n        /* \"#utility.yul\":16641:16650   */\n      dup7\n        /* \"#utility.yul\":16637:16659   */\n      add\n        /* \"#utility.yul\":16581:16669   */\n      tag_180\n      jump\t// in\n    tag_362:\n        /* \"#utility.yul\":16571:16669   */\n      swap2\n      pop\n        /* \"#utility.yul\":16366:16679   */\n      pop\n        /* \"#utility.yul\":15982:16686   */\n      swap3\n      pop\n      swap3\n      swap1\n      pop\n      jump\t// out\n        /* \"#utility.yul\":16692:16899   */\n    tag_181:\n        /* \"#utility.yul\":16814:16825   */\n      0x00\n        /* \"#utility.yul\":16848:16854   */\n      dup3\n        /* \"#utility.yul\":16843:16846   */\n      dup3\n        /* \"#utility.yul\":16836:16855   */\n      mstore\n        /* \"#utility.yul\":16888:16892   */\n      0x20\n        /* \"#utility.yul\":16883:16886   */\n      dup3\n        /* \"#utility.yul\":16879:16893   */\n      add\n        /* \"#utility.yul\":16864:16893   */\n      swap1\n      pop\n        /* \"#utility.yul\":16692:16899   */\n      swap3\n      swap2\n      pop\n      pop\n      jump\t// out\n        /* \"#utility.yul\":16975:18070   */\n    tag_182:\n        /* \"#utility.yul\":17140:17143   */\n      0x00\n        /* \"#utility.yul\":17169:17246   */\n      tag_365\n        /* \"#utility.yul\":17240:17245   */\n      dup3\n        /* \"#utility.yul\":17169:17246   */\n      tag_152\n      jump\t// in\n    tag_365:\n        /* \"#utility.yul\":17262:17371   */\n      tag_366\n        /* \"#utility.yul\":17364:17370   */\n      dup2\n        /* \"#utility.yul\":17359:17362   */\n      dup6\n        /* \"#utility.yul\":17262:17371   */\n      tag_181\n      jump\t// in\n    tag_366:\n        /* \"#utility.yul\":17255:17371   */\n      swap4\n      pop\n        /* \"#utility.yul\":17397:17400   */\n      dup4\n        /* \"#utility.yul\":17442:17446   */\n      0x20\n        /* \"#utility.yul\":17434:17440   */\n      dup3\n        /* \"#utility.yul\":17430:17447   */\n      mul\n        /* \"#utility.yul\":17425:17428   */\n      dup6\n        /* \"#utility.yul\":17421:17448   */\n      add\n        /* \"#utility.yul\":17472:17551   */\n      tag_367\n        /* \"#utility.yul\":17545:17550   */\n      dup6\n        /* \"#utility.yul\":17472:17551   */\n      tag_154\n      jump\t// in\n    tag_367:\n        /* \"#utility.yul\":17574:17581   */\n      dup1\n        /* \"#utility.yul\":17605:17606   */\n      0x00\n        /* \"#utility.yul\":17590:18025   */\n    tag_368:\n        /* \"#utility.yul\":17615:17621   */\n      dup6\n        /* \"#utility.yul\":17612:17613   */\n      dup2\n        /* \"#utility.yul\":17609:17622   */\n      lt\n        /* \"#utility.yul\":17590:18025   */\n      iszero\n      tag_370\n      jumpi\n        /* \"#utility.yul\":17686:17695   */\n      dup5\n        /* \"#utility.yul\":17680:17684   */\n      dup5\n        /* \"#utility.yul\":17676:17696   */\n      sub\n        /* \"#utility.yul\":17671:17674   */\n      dup10\n        /* \"#utility.yul\":17664:17697   */\n      mstore\n        /* \"#utility.yul\":17737:17743   */\n      dup2\n        /* \"#utility.yul\":17731:17744   */\n      mload\n        /* \"#utility.yul\":17765:17875   */\n      tag_371\n        /* \"#utility.yul\":17870:17874   */\n      dup6\n        /* \"#utility.yul\":17855:17868   */\n      dup3\n        /* \"#utility.yul\":17765:17875   */\n      tag_161\n      jump\t// in\n    tag_371:\n        /* \"#utility.yul\":17757:17875   */\n      swap5\n      pop\n        /* \"#utility.yul\":17898:17981   */\n      tag_372\n        /* \"#utility.yul\":17974:17980   */\n      dup4\n        /* \"#utility.yul\":17898:17981   */\n      tag_162\n      jump\t// in\n    tag_372:\n        /* \"#utility.yul\":17888:17981   */\n      swap3\n      pop\n        /* \"#utility.yul\":18010:18014   */\n      0x20\n        /* \"#utility.yul\":18005:18008   */\n      dup11\n        /* \"#utility.yul\":18001:18015   */\n      add\n        /* \"#utility.yul\":17994:18015   */\n      swap10\n      pop\n        /* \"#utility.yul\":17650:18025   */\n      pop\n        /* \"#utility.yul\":17637:17638   */\n      0x01\n        /* \"#utility.yul\":17634:17635   */\n      dup2\n        /* \"#utility.yul\":17630:17639   */\n      add\n        /* \"#utility.yul\":17625:17639   */\n      swap1\n      pop\n        /* \"#utility.yul\":17590:18025   */\n      jump(tag_368)\n    tag_370:\n        /* \"#utility.yul\":17594:17608   */\n      pop\n        /* \"#utility.yul\":18041:18045   */\n      dup3\n        /* \"#utility.yul\":18034:18045   */\n      swap8\n      pop\n        /* \"#utility.yul\":18061:18064   */\n      dup8\n        /* \"#utility.yul\":18054:18064   */\n      swap6\n      pop\n        /* \"#utility.yul\":17145:18070   */\n      pop\n      pop\n      pop\n      pop\n      pop\n        /* \"#utility.yul\":16975:18070   */\n      swap3\n      swap2\n      pop\n      pop\n      jump\t// out\n        /* \"#utility.yul\":18076:18541   */\n    tag_44:\n        /* \"#utility.yul\":18265:18269   */\n      0x00\n        /* \"#utility.yul\":18303:18305   */\n      0x20\n        /* \"#utility.yul\":18292:18301   */\n      dup3\n        /* \"#utility.yul\":18288:18306   */\n      add\n        /* \"#utility.yul\":18280:18306   */\n      swap1\n      pop\n        /* \"#utility.yul\":18352:18361   */\n      dup2\n        /* \"#utility.yul\":18346:18350   */\n      dup2\n        /* \"#utility.yul\":18342:18362   */\n      sub\n        /* \"#utility.yul\":18338:18339   */\n      0x00\n        /* \"#utility.yul\":18327:18336   */\n      dup4\n        /* \"#utility.yul\":18323:18340   */\n      add\n        /* \"#utility.yul\":18316:18363   */\n      mstore\n        /* \"#utility.yul\":18380:18534   */\n      tag_374\n        /* \"#utility.yul\":18529:18533   */\n      dup2\n        /* \"#utility.yul\":18520:18526   */\n      dup5\n        /* \"#utility.yul\":18380:18534   */\n      tag_182\n      jump\t// in\n    tag_374:\n        /* \"#utility.yul\":18372:18534   */\n      swap1\n      pop\n        /* \"#utility.yul\":18076:18541   */\n      swap3\n      swap2\n      pop\n      pop\n      jump\t// out\n        /* \"#utility.yul\":18547:18727   */\n    tag_183:\n        /* \"#utility.yul\":18595:18672   */\n      0x4e487b7100000000000000000000000000000000000000000000000000000000\n        /* \"#utility.yul\":18592:18593   */\n      0x00\n        /* \"#utility.yul\":18585:18673   */\n      mstore\n        /* \"#utility.yul\":18692:18696   */\n      0x22\n        /* \"#utility.yul\":18689:18690   */\n      0x04\n        /* \"#utility.yul\":18682:18697   */\n      mstore\n        /* \"#utility.yul\":18716:18720   */\n      0x24\n        /* \"#utility.yul\":18713:18714   */\n      0x00\n        /* \"#utility.yul\":18706:18721   */\n      revert\n        /* \"#utility.yul\":18733:19053   */\n    tag_60:\n        /* \"#utility.yul\":18777:18783   */\n      0x00\n        /* \"#utility.yul\":18814:18815   */\n      0x02\n        /* \"#utility.yul\":18808:18812   */\n      dup3\n        /* \"#utility.yul\":18804:18816   */\n      div\n        /* \"#utility.yul\":18794:18816   */\n      swap1\n      pop\n        /* \"#utility.yul\":18861:18862   */\n      0x01\n        /* \"#utility.yul\":18855:18859   */\n      dup3\n        /* \"#utility.yul\":18851:18863   */\n      and\n        /* \"#utility.yul\":18882:18900   */\n      dup1\n        /* \"#utility.yul\":18872:18953   */\n      tag_377\n      jumpi\n        /* \"#utility.yul\":18938:18942   */\n      0x7f\n        /* \"#utility.yul\":18930:18936   */\n      dup3\n        /* \"#utility.yul\":18926:18943   */\n      and\n        /* \"#utility.yul\":18916:18943   */\n      swap2\n      pop\n        /* \"#utility.yul\":18872:18953   */\n    tag_377:\n        /* \"#utility.yul\":19000:19002   */\n      0x20\n        /* \"#utility.yul\":18992:18998   */\n      dup3\n        /* \"#utility.yul\":18989:19003   */\n      lt\n        /* \"#utility.yul\":18969:18987   */\n      dup2\n        /* \"#utility.yul\":18966:19004   */\n      sub\n        /* \"#utility.yul\":18963:19047   */\n      tag_378\n      jumpi\n        /* \"#utility.yul\":19019:19037   */\n      tag_379\n      tag_183\n      jump\t// in\n    tag_379:\n        /* \"#utility.yul\":18963:19047   */\n    tag_378:\n        /* \"#utility.yul\":18784:19053   */\n      pop\n        /* \"#utility.yul\":18733:19053   */\n      swap2\n      swap1\n      pop\n      jump\t// out\n        /* \"#utility.yul\":19059:19228   */\n    tag_184:\n        /* \"#utility.yul\":19143:19154   */\n      0x00\n        /* \"#utility.yul\":19177:19183   */\n      dup3\n        /* \"#utility.yul\":19172:19175   */\n      dup3\n        /* \"#utility.yul\":19165:19184   */\n      mstore\n        /* \"#utility.yul\":19217:19221   */\n      0x20\n        /* \"#utility.yul\":19212:19215   */\n      dup3\n        /* \"#utility.yul\":19208:19222   */\n      add\n        /* \"#utility.yul\":19193:19222   */\n      swap1\n      pop\n        /* \"#utility.yul\":19059:19228   */\n      swap3\n      swap2\n      pop\n      pop\n      jump\t// out\n        /* \"#utility.yul\":19234:19404   */\n    tag_185:\n        /* \"#utility.yul\":19374:19396   */\n      0x426c6f622063616e6e6f7420626520656d707479000000000000000000000000\n        /* \"#utility.yul\":19370:19371   */\n      0x00\n        /* \"#utility.yul\":19362:19368   */\n      dup3\n        /* \"#utility.yul\":19358:19372   */\n      add\n        /* \"#utility.yul\":19351:19397   */\n      mstore\n        /* \"#utility.yul\":19234:19404   */\n      pop\n      jump\t// out\n        /* \"#utility.yul\":19410:19776   */\n    tag_186:\n        /* \"#utility.yul\":19552:19555   */\n      0x00\n        /* \"#utility.yul\":19573:19640   */\n      tag_383\n        /* \"#utility.yul\":19637:19639   */\n      0x14\n        /* \"#utility.yul\":19632:19635   */\n      dup4\n        /* \"#utility.yul\":19573:19640   */\n      tag_184\n      jump\t// in\n    tag_383:\n        /* \"#utility.yul\":19566:19640   */\n      swap2\n      pop\n        /* \"#utility.yul\":19649:19742   */\n      tag_384\n        /* \"#utility.yul\":19738:19741   */\n      dup3\n        /* \"#utility.yul\":19649:19742   */\n      tag_185\n      jump\t// in\n    tag_384:\n        /* \"#utility.yul\":19767:19769   */\n      0x20\n        /* \"#utility.yul\":19762:19765   */\n      dup3\n        /* \"#utility.yul\":19758:19770   */\n      add\n        /* \"#utility.yul\":19751:19770   */\n      swap1\n      pop\n        /* \"#utility.yul\":19410:19776   */\n      swap2\n      swap1\n      pop\n      jump\t// out\n        /* \"#utility.yul\":19782:20201   */\n    tag_68:\n        /* \"#utility.yul\":19948:19952   */\n      0x00\n        /* \"#utility.yul\":19986:19988   */\n      0x20\n        /* \"#utility.yul\":19975:19984   */\n      dup3\n        /* \"#utility.yul\":19971:19989   */\n      add\n        /* \"#utility.yul\":19963:19989   */\n      swap1\n      pop\n        /* \"#utility.yul\":20035:20044   */\n      dup2\n        /* \"#utility.yul\":20029:20033   */\n      dup2\n        /* \"#utility.yul\":20025:20045   */\n      sub\n        /* \"#utility.yul\":20021:20022   */\n      0x00\n        /* \"#utility.yul\":20010:20019   */\n      dup4\n        /* \"#utility.yul\":20006:20023   */\n      add\n        /* \"#utility.yul\":19999:20046   */\n      mstore\n        /* \"#utility.yul\":20063:20194   */\n      tag_386\n        /* \"#utility.yul\":20189:20193   */\n      dup2\n        /* \"#utility.yul\":20063:20194   */\n      tag_186\n      jump\t// in\n    tag_386:\n        /* \"#utility.yul\":20055:20194   */\n      swap1\n      pop\n        /* \"#utility.yul\":19782:20201   */\n      swap2\n      swap1\n      pop\n      jump\t// out\n        /* \"#utility.yul\":20207:20387   */\n    tag_187:\n        /* \"#utility.yul\":20255:20332   */\n      0x4e487b7100000000000000000000000000000000000000000000000000000000\n        /* \"#utility.yul\":20252:20253   */\n      0x00\n        /* \"#utility.yul\":20245:20333   */\n      mstore\n        /* \"#utility.yul\":20352:20356   */\n      0x11\n        /* \"#utility.yul\":20349:20350   */\n      0x04\n        /* \"#utility.yul\":20342:20357   */\n      mstore\n        /* \"#utility.yul\":20376:20380   */\n      0x24\n        /* \"#utility.yul\":20373:20374   */\n      0x00\n        /* \"#utility.yul\":20366:20381   */\n      revert\n        /* \"#utility.yul\":20393:20584   */\n    tag_70:\n        /* \"#utility.yul\":20433:20436   */\n      0x00\n        /* \"#utility.yul\":20452:20472   */\n      tag_389\n        /* \"#utility.yul\":20470:20471   */\n      dup3\n        /* \"#utility.yul\":20452:20472   */\n      tag_135\n      jump\t// in\n    tag_389:\n        /* \"#utility.yul\":20447:20472   */\n      swap2\n      pop\n        /* \"#utility.yul\":20486:20506   */\n      tag_390\n        /* \"#utility.yul\":20504:20505   */\n      dup4\n        /* \"#utility.yul\":20486:20506   */\n      tag_135\n      jump\t// in\n    tag_390:\n        /* \"#utility.yul\":20481:20506   */\n      swap3\n      pop\n        /* \"#utility.yul\":20529:20530   */\n      dup3\n        /* \"#utility.yul\":20526:20527   */\n      dup3\n        /* \"#utility.yul\":20522:20531   */\n      add\n        /* \"#utility.yul\":20515:20531   */\n      swap1\n      pop\n        /* \"#utility.yul\":20550:20553   */\n      dup1\n        /* \"#utility.yul\":20547:20548   */\n      dup3\n        /* \"#utility.yul\":20544:20554   */\n      gt\n        /* \"#utility.yul\":20541:20577   */\n      iszero\n      tag_391\n      jumpi\n        /* \"#utility.yul\":20557:20575   */\n      tag_392\n      tag_187\n      jump\t// in\n    tag_392:\n        /* \"#utility.yul\":20541:20577   */\n    tag_391:\n        /* \"#utility.yul\":20393:20584   */\n      swap3\n      swap2\n      pop\n      pop\n      jump\t// out\n        /* \"#utility.yul\":20590:20770   */\n    tag_76:\n        /* \"#utility.yul\":20638:20715   */\n      0x4e487b7100000000000000000000000000000000000000000000000000000000\n        /* \"#utility.yul\":20635:20636   */\n      0x00\n        /* \"#utility.yul\":20628:20716   */\n      mstore\n        /* \"#utility.yul\":20735:20739   */\n      0x32\n        /* \"#utility.yul\":20732:20733   */\n      0x04\n        /* \"#utility.yul\":20725:20740   */\n      mstore\n        /* \"#utility.yul\":20759:20763   */\n      0x24\n        /* \"#utility.yul\":20756:20757   */\n      0x00\n        /* \"#utility.yul\":20749:20764   */\n      revert\n        /* \"#utility.yul\":20776:20917   */\n    tag_188:\n        /* \"#utility.yul\":20825:20829   */\n      0x00\n        /* \"#utility.yul\":20848:20851   */\n      dup2\n        /* \"#utility.yul\":20840:20851   */\n      swap1\n      pop\n        /* \"#utility.yul\":20871:20874   */\n      dup2\n        /* \"#utility.yul\":20868:20869   */\n      0x00\n        /* \"#utility.yul\":20861:20875   */\n      mstore\n        /* \"#utility.yul\":20905:20909   */\n      0x20\n        /* \"#utility.yul\":20902:20903   */\n      0x00\n        /* \"#utility.yul\":20892:20910   */\n      keccak256\n        /* \"#utility.yul\":20884:20910   */\n      swap1\n      pop\n        /* \"#utility.yul\":20776:20917   */\n      swap2\n      swap1\n      pop\n      jump\t// out\n        /* \"#utility.yul\":20923:21016   */\n    tag_189:\n        /* \"#utility.yul\":20960:20966   */\n      0x00\n        /* \"#utility.yul\":21007:21009   */\n      0x20\n        /* \"#utility.yul\":21002:21004   */\n      0x1f\n        /* \"#utility.yul\":20995:21000   */\n      dup4\n        /* \"#utility.yul\":20991:21005   */\n      add\n        /* \"#utility.yul\":20987:21010   */\n      div\n        /* \"#utility.yul\":20977:21010   */\n      swap1\n      pop\n        /* \"#utility.yul\":20923:21016   */\n      swap2\n      swap1\n      pop\n      jump\t// out\n        /* \"#utility.yul\":21022:21129   */\n    tag_190:\n        /* \"#utility.yul\":21066:21074   */\n      0x00\n        /* \"#utility.yul\":21116:21121   */\n      dup3\n        /* \"#utility.yul\":21110:21114   */\n      dup3\n        /* \"#utility.yul\":21106:21122   */\n      shl\n        /* \"#utility.yul\":21085:21122   */\n      swap1\n      pop\n        /* \"#utility.yul\":21022:21129   */\n      swap3\n      swap2\n      pop\n      pop\n      jump\t// out\n        /* \"#utility.yul\":21135:21528   */\n    tag_191:\n        /* \"#utility.yul\":21204:21210   */\n      0x00\n        /* \"#utility.yul\":21254:21255   */\n      0x08\n        /* \"#utility.yul\":21242:21252   */\n      dup4\n        /* \"#utility.yul\":21238:21256   */\n      mul\n        /* \"#utility.yul\":21277:21374   */\n      tag_398\n        /* \"#utility.yul\":21307:21373   */\n      0xffffffffffffffffffffffffffffffffffffffffffffffffffffffffffffffff\n        /* \"#utility.yul\":21296:21305   */\n      dup3\n        /* \"#utility.yul\":21277:21374   */\n      tag_190\n      jump\t// in\n    tag_398:\n        /* \"#utility.yul\":21395:21434   */\n      tag_399\n        /* \"#utility.yul\":21425:21433   */\n      dup7\n        /* \"#utility.yul\":21414:21423   */\n      dup4\n        /* \"#utility.yul\":21395:21434   */\n      tag_190\n      jump\t// in\n    tag_399:\n        /* \"#utility.yul\":21383:21434   */\n      swap6\n      pop\n        /* \"#utility.yul\":21467:21471   */\n      dup1\n        /* \"#utility.yul\":21463:21472   */\n      not\n        /* \"#utility.yul\":21456:21461   */\n      dup5\n        /* \"#utility.yul\":21452:21473   */\n      and\n        /* \"#utility.yul\":21443:21473   */\n      swap4\n      pop\n        /* \"#utility.yul\":21516:21520   */\n      dup1\n        /* \"#utility.yul\":21506:21514   */\n      dup7\n        /* \"#utility.yul\":21502:21521   */\n      and\n        /* \"#utility.yul\":21495:21500   */\n      dup5\n        /* \"#utility.yul\":21492:21522   */\n      or\n        /* \"#utility.yul\":21482:21522   */\n      swap3\n      pop\n        /* \"#utility.yul\":21211:21528   */\n      pop\n      pop\n        /* \"#utility.yul\":21135:21528   */\n      swap4\n      swap3\n      pop\n      pop\n      pop\n      jump\t// out\n        /* \"#utility.yul\":21534:21594   */\n    tag_192:\n        /* \"#utility.yul\":21562:21565   */\n      0x00\n        /* \"#utility.yul\":21583:21588   */\n      dup2\n        /* \"#utility.yul\":21576:21588   */\n      swap1\n      pop\n        /* \"#utility.yul\":21534:21594   */\n      swap2\n      swap1\n      pop\n      jump\t// out\n        /* \"#utility.yul\":21600:21742   */\n    tag_193:\n        /* \"#utility.yul\":21650:21659   */\n      0x00\n        /* \"#utility.yul\":21683:21736   */\n      tag_402\n        /* \"#utility.yul\":21701:21735   */\n      tag_403\n        /* \"#utility.yul\":21710:21734   */\n      tag_404\n        /* \"#utility.yul\":21728:21733   */\n      dup5\n        /* \"#utility.yul\":21710:21734   */\n      tag_135\n      jump\t// in\n    tag_404:\n        /* \"#utility.yul\":21701:21735   */\n      tag_192\n      jump\t// in\n    tag_403:\n        /* \"#utility.yul\":21683:21736   */\n      tag_135\n      jump\t// in\n    tag_402:\n        /* \"#utility.yul\":21670:21736   */\n      swap1\n      pop\n        /* \"#utility.yul\":21600:21742   */\n      swap2\n      swap1\n      pop\n      jump\t// out\n        /* \"#utility.yul\":21748:21823   */\n    tag_194:\n        /* \"#utility.yul\":21791:21794   */\n      0x00\n        /* \"#utility.yul\":21812:21817   */\n      dup2\n        /* \"#utility.yul\":21805:21817   */\n      swap1\n      pop\n        /* \"#utility.yul\":21748:21823   */\n      swap2\n      swap1\n      pop\n      jump\t// out\n        /* \"#utility.yul\":21829:22098   */\n    tag_195:\n        /* \"#utility.yul\":21939:21978   */\n      tag_407\n        /* \"#utility.yul\":21970:21977   */\n      dup4\n        /* \"#utility.yul\":21939:21978   */\n      tag_193\n      jump\t// in\n    tag_407:\n        /* \"#utility.yul\":22000:22091   */\n      tag_408\n        /* \"#utility.yul\":22049:22090   */\n      tag_409\n        /* \"#utility.yul\":22073:22089   */\n      dup3\n        /* \"#utility.yul\":22049:22090   */\n      tag_194\n      jump\t// in\n    tag_409:\n        /* \"#utility.yul\":22041:22047   */\n      dup5\n        /* \"#utility.yul\":22034:22038   */\n      dup5\n        /* \"#utility.yul\":22028:22039   */\n      sload\n        /* \"#utility.yul\":22000:22091   */\n      tag_191\n      jump\t// in\n    tag_408:\n        /* \"#utility.yul\":21994:21998   */\n      dup3\n        /* \"#utility.yul\":21987:22092   */\n      sstore\n        /* \"#utility.yul\":21905:22098   */\n      pop\n        /* \"#utility.yul\":21829:22098   */\n      pop\n      pop\n      pop\n      jump\t// out\n        /* \"#utility.yul\":22104:22177   */\n    tag_196:\n        /* \"#utility.yul\":22149:22152   */\n      0x00\n        /* \"#utility.yul\":22104:22177   */\n      swap1\n      jump\t// out\n        /* \"#utility.yul\":22183:22372   */\n    tag_197:\n        /* \"#utility.yul\":22260:22292   */\n      tag_412\n      tag_196\n      jump\t// in\n    tag_412:\n        /* \"#utility.yul\":22301:22366   */\n      tag_413\n        /* \"#utility.yul\":22359:22365   */\n      dup2\n        /* \"#utility.yul\":22351:22357   */\n      dup5\n        /* \"#utility.yul\":22345:22349   */\n      dup5\n        /* \"#utility.yul\":22301:22366   */\n      tag_195\n      jump\t// in\n    tag_413:\n        /* \"#utility.yul\":22236:22372   */\n      pop\n        /* \"#utility.yul\":22183:22372   */\n      pop\n      pop\n      jump\t// out\n        /* \"#utility.yul\":22378:22564   */\n    tag_198:\n        /* \"#utility.yul\":22438:22558   */\n    tag_415:\n        /* \"#utility.yul\":22455:22458   */\n      dup2\n        /* \"#utility.yul\":22448:22453   */\n      dup2\n        /* \"#utility.yul\":22445:22459   */\n      lt\n        /* \"#utility.yul\":22438:22558   */\n      iszero\n      tag_417\n      jumpi\n        /* \"#utility.yul\":22509:22548   */\n      tag_418\n        /* \"#utility.yul\":22546:22547   */\n      0x00\n        /* \"#utility.yul\":22539:22544   */\n      dup3\n        /* \"#utility.yul\":22509:22548   */\n      tag_197\n      jump\t// in\n    tag_418:\n        /* \"#utility.yul\":22482:22483   */\n      0x01\n        /* \"#utility.yul\":22475:22480   */\n      dup2\n        /* \"#utility.yul\":22471:22484   */\n      add\n        /* \"#utility.yul\":22462:22484   */\n      swap1\n      pop\n        /* \"#utility.yul\":22438:22558   */\n      jump(tag_415)\n    tag_417:\n        /* \"#utility.yul\":22378:22564   */\n      pop\n      pop\n      jump\t// out\n        /* \"#utility.yul\":22570:23113   */\n    tag_199:\n        /* \"#utility.yul\":22671:22673   */\n      0x1f\n        /* \"#utility.yul\":22666:22669   */\n      dup3\n        /* \"#utility.yul\":22663:22674   */\n      gt\n        /* \"#utility.yul\":22660:23106   */\n      iszero\n      tag_420\n      jumpi\n        /* \"#utility.yul\":22705:22743   */\n      tag_421\n        /* \"#utility.yul\":22737:22742   */\n      dup2\n        /* \"#utility.yul\":22705:22743   */\n      tag_188\n      jump\t// in\n    tag_421:\n        /* \"#utility.yul\":22789:22818   */\n      tag_422\n        /* \"#utility.yul\":22807:22817   */\n      dup5\n        /* \"#utility.yul\":22789:22818   */\n      tag_189\n      jump\t// in\n    tag_422:\n        /* \"#utility.yul\":22779:22787   */\n      dup2\n        /* \"#utility.yul\":22775:22819   */\n      add\n        /* \"#utility.yul\":22972:22974   */\n      0x20\n        /* \"#utility.yul\":22960:22970   */\n      dup6\n        /* \"#utility.yul\":22957:22975   */\n      lt\n        /* \"#utility.yul\":22954:23003   */\n      iszero\n      tag_423\n      jumpi\n        /* \"#utility.yul\":22993:23001   */\n      dup2\n        /* \"#utility.yul\":22978:23001   */\n      swap1\n      pop\n        /* \"#utility.yul\":22954:23003   */\n    tag_423:\n        /* \"#utility.yul\":23016:23096   */\n      tag_424\n        /* \"#utility.yul\":23072:23094   */\n      tag_425\n        /* \"#utility.yul\":23090:23093   */\n      dup6\n        /* \"#utility.yul\":23072:23094   */\n      tag_189\n      jump\t// in\n    tag_425:\n        /* \"#utility.yul\":23062:23070   */\n      dup4\n        /* \"#utility.yul\":23058:23095   */\n      add\n        /* \"#utility.yul\":23045:23056   */\n      dup3\n        /* \"#utility.yul\":23016:23096   */\n      tag_198\n      jump\t// in\n    tag_424:\n        /* \"#utility.yul\":22675:23106   */\n      pop\n      pop\n        /* \"#utility.yul\":22660:23106   */\n    tag_420:\n        /* \"#utility.yul\":22570:23113   */\n      pop\n      pop\n      pop\n      jump\t// out\n        /* \"#utility.yul\":23119:23236   */\n    tag_200:\n        /* \"#utility.yul\":23173:23181   */\n      0x00\n        /* \"#utility.yul\":23223:23228   */\n      dup3\n        /* \"#utility.yul\":23217:23221   */\n      dup3\n        /* \"#utility.yul\":23213:23229   */\n      shr\n        /* \"#utility.yul\":23192:23229   */\n      swap1\n      pop\n        /* \"#utility.yul\":23119:23236   */\n      swap3\n      swap2\n      pop\n      pop\n      jump\t// out\n        /* \"#utility.yul\":23242:23411   */\n    tag_201:\n        /* \"#utility.yul\":23286:23292   */\n      0x00\n        /* \"#utility.yul\":23319:23370   */\n      tag_428\n        /* \"#utility.yul\":23367:23368   */\n      0x00\n        /* \"#utility.yul\":23363:23369   */\n      not\n        /* \"#utility.yul\":23355:23360   */\n      dup5\n        /* \"#utility.yul\":23352:23353   */\n      0x08\n        /* \"#utility.yul\":23348:23361   */\n      mul\n        /* \"#utility.yul\":23319:23370   */\n      tag_200\n      jump\t// in\n    tag_428:\n        /* \"#utility.yul\":23315:23371   */\n      not\n        /* \"#utility.yul\":23400:23404   */\n      dup1\n        /* \"#utility.yul\":23394:23398   */\n      dup4\n        /* \"#utility.yul\":23390:23405   */\n      and\n        /* \"#utility.yul\":23380:23405   */\n      swap2\n      pop\n        /* \"#utility.yul\":23293:23411   */\n      pop\n        /* \"#utility.yul\":23242:23411   */\n      swap3\n      swap2\n      pop\n      pop\n      jump\t// out\n        /* \"#utility.yul\":23416:23711   */\n    tag_202:\n        /* \"#utility.yul\":23492:23496   */\n      0x00\n        /* \"#utility.yul\":23638:23667   */\n      tag_430\n        /* \"#utility.yul\":23663:23666   */\n      dup4\n        /* \"#utility.yul\":23657:23661   */\n      dup4\n        /* \"#utility.yul\":23638:23667   */\n      tag_201\n      jump\t// in\n    tag_430:\n        /* \"#utility.yul\":23630:23667   */\n      swap2\n      pop\n        /* \"#utility.yul\":23700:23703   */\n      dup3\n        /* \"#utility.yul\":23697:23698   */\n      0x02\n        /* \"#utility.yul\":23693:23704   */\n      mul\n        /* \"#utility.yul\":23687:23691   */\n      dup3\n        /* \"#utility.yul\":23684:23705   */\n      or\n        /* \"#utility.yul\":23676:23705   */\n      swap1\n      pop\n        /* \"#utility.yul\":23416:23711   */\n      swap3\n      swap2\n      pop\n      pop\n      jump\t// out\n        /* \"#utility.yul\":23716:25111   */\n    tag_79:\n        /* \"#utility.yul\":23833:23870   */\n      tag_432\n        /* \"#utility.yul\":23866:23869   */\n      dup3\n        /* \"#utility.yul\":23833:23870   */\n      tag_155\n      jump\t// in\n    tag_432:\n        /* \"#utility.yul\":23935:23953   */\n      0xffffffffffffffff\n        /* \"#utility.yul\":23927:23933   */\n      dup2\n        /* \"#utility.yul\":23924:23954   */\n      gt\n        /* \"#utility.yul\":23921:23977   */\n      iszero\n      tag_433\n      jumpi\n        /* \"#utility.yul\":23957:23975   */\n      tag_434\n      tag_169\n      jump\t// in\n    tag_434:\n        /* \"#utility.yul\":23921:23977   */\n    tag_433:\n        /* \"#utility.yul\":24001:24039   */\n      tag_435\n        /* \"#utility.yul\":24033:24037   */\n      dup3\n        /* \"#utility.yul\":24027:24038   */\n      sload\n        /* \"#utility.yul\":24001:24039   */\n      tag_60\n      jump\t// in\n    tag_435:\n        /* \"#utility.yul\":24086:24153   */\n      tag_436\n        /* \"#utility.yul\":24146:24152   */\n      dup3\n        /* \"#utility.yul\":24138:24144   */\n      dup3\n        /* \"#utility.yul\":24132:24136   */\n      dup6\n        /* \"#utility.yul\":24086:24153   */\n      tag_199\n      jump\t// in\n    tag_436:\n        /* \"#utility.yul\":24180:24181   */\n      0x00\n        /* \"#utility.yul\":24204:24208   */\n      0x20\n        /* \"#utility.yul\":24191:24208   */\n      swap1\n      pop\n        /* \"#utility.yul\":24236:24238   */\n      0x1f\n        /* \"#utility.yul\":24228:24234   */\n      dup4\n        /* \"#utility.yul\":24225:24239   */\n      gt\n        /* \"#utility.yul\":24253:24254   */\n      0x01\n        /* \"#utility.yul\":24248:24866   */\n      dup2\n      eq\n      tag_438\n      jumpi\n        /* \"#utility.yul\":24910:24911   */\n      0x00\n        /* \"#utility.yul\":24927:24933   */\n      dup5\n        /* \"#utility.yul\":24924:25001   */\n      iszero\n      tag_439\n      jumpi\n        /* \"#utility.yul\":24976:24985   */\n      dup3\n        /* \"#utility.yul\":24971:24974   */\n      dup8\n        /* \"#utility.yul\":24967:24986   */\n      add\n        /* \"#utility.yul\":24961:24987   */\n      mload\n        /* \"#utility.yul\":24952:24987   */\n      swap1\n      pop\n        /* \"#utility.yul\":24924:25001   */\n    tag_439:\n        /* \"#utility.yul\":25027:25094   */\n      tag_440\n        /* \"#utility.yul\":25087:25093   */\n      dup6\n        /* \"#utility.yul\":25080:25085   */\n      dup3\n        /* \"#utility.yul\":25027:25094   */\n      tag_202\n      jump\t// in\n    tag_440:\n        /* \"#utility.yul\":25021:25025   */\n      dup7\n        /* \"#utility.yul\":25014:25095   */\n      sstore\n        /* \"#utility.yul\":24883:25105   */\n      pop\n        /* \"#utility.yul\":24218:25105   */\n      jump(tag_437)\n        /* \"#utility.yul\":24248:24866   */\n    tag_438:\n        /* \"#utility.yul\":24300:24304   */\n      0x1f\n        /* \"#utility.yul\":24296:24305   */\n      not\n        /* \"#utility.yul\":24288:24294   */\n      dup5\n        /* \"#utility.yul\":24284:24306   */\n      and\n        /* \"#utility.yul\":24334:24371   */\n      tag_441\n        /* \"#utility.yul\":24366:24370   */\n      dup7\n        /* \"#utility.yul\":24334:24371   */\n      tag_188\n      jump\t// in\n    tag_441:\n        /* \"#utility.yul\":24393:24394   */\n      0x00\n        /* \"#utility.yul\":24407:24615   */\n    tag_442:\n        /* \"#utility.yul\":24421:24428   */\n      dup3\n        /* \"#utility.yul\":24418:24419   */\n      dup2\n        /* \"#utility.yul\":24415:24429   */\n      lt\n        /* \"#utility.yul\":24407:24615   */\n      iszero\n      tag_444\n      jumpi\n        /* \"#utility.yul\":24500:24509   */\n      dup5\n        /* \"#utility.yul\":24495:24498   */\n      dup10\n        /* \"#utility.yul\":24491:24510   */\n      add\n        /* \"#utility.yul\":24485:24511   */\n      mload\n        /* \"#utility.yul\":24477:24483   */\n      dup3\n        /* \"#utility.yul\":24470:24512   */\n      sstore\n        /* \"#utility.yul\":24551:24552   */\n      0x01\n        /* \"#utility.yul\":24543:24549   */\n      dup3\n        /* \"#utility.yul\":24539:24553   */\n      add\n        /* \"#utility.yul\":24529:24553   */\n      swap2\n      pop\n        /* \"#utility.yul\":24598:24600   */\n      0x20\n        /* \"#utility.yul\":24587:24596   */\n      dup6\n        /* \"#utility.yul\":24583:24601   */\n      add\n        /* \"#utility.yul\":24570:24601   */\n      swap5\n      pop\n        /* \"#utility.yul\":24444:24448   */\n      0x20\n        /* \"#utility.yul\":24441:24442   */\n      dup2\n        /* \"#utility.yul\":24437:24449   */\n      add\n        /* \"#utility.yul\":24432:24449   */\n      swap1\n      pop\n        /* \"#utility.yul\":24407:24615   */\n      jump(tag_442)\n    tag_444:\n        /* \"#utility.yul\":24643:24649   */\n      dup7\n        /* \"#utility.yul\":24634:24641   */\n      dup4\n        /* \"#utility.yul\":24631:24650   */\n      lt\n        /* \"#utility.yul\":24628:24807   */\n      iszero\n      tag_445\n      jumpi\n        /* \"#utility.yul\":24701:24710   */\n      dup5\n        /* \"#utility.yul\":24696:24699   */\n      dup10\n        /* \"#utility.yul\":24692:24711   */\n      add\n        /* \"#utility.yul\":24686:24712   */\n      mload\n        /* \"#utility.yul\":24744:24792   */\n      tag_446\n        /* \"#utility.yul\":24786:24790   */\n      0x1f\n        /* \"#utility.yul\":24778:24784   */\n      dup10\n        /* \"#utility.yul\":24774:24791   */\n      and\n        /* \"#utility.yul\":24763:24772   */\n      dup3\n        /* \"#utility.yul\":24744:24792   */\n      tag_201\n      jump\t// in\n    tag_446:\n        /* \"#utility.yul\":24736:24742   */\n      dup4\n        /* \"#utility.yul\":24729:24793   */\n      sstore\n        /* \"#utility.yul\":24651:24807   */\n      pop\n        /* \"#utility.yul\":24628:24807   */\n    tag_445:\n        /* \"#utility.yul\":24853:24854   */\n      0x01\n        /* \"#utility.yul\":24849:24850   */\n      0x02\n        /* \"#utility.yul\":24841:24847   */\n      dup9\n        /* \"#utility.yul\":24837:24851   */\n      mul\n        /* \"#utility.yul\":24833:24855   */\n      add\n        /* \"#utility.yul\":24827:24831   */\n      dup9\n        /* \"#utility.yul\":24820:24856   */\n      sstore\n        /* \"#utility.yul\":24255:24866   */\n      pop\n      pop\n      pop\n        /* \"#utility.yul\":24218:25105   */\n    tag_437:\n      pop\n        /* \"#utility.yul\":23808:25111   */\n      pop\n      pop\n      pop\n        /* \"#utility.yul\":23716:25111   */\n      pop\n      pop\n      jump\t// out\n        /* \"#utility.yul\":25117:25350   */\n    tag_85:\n        /* \"#utility.yul\":25156:25159   */\n      0x00\n        /* \"#utility.yul\":25179:25203   */\n      tag_448\n        /* \"#utility.yul\":25197:25202   */\n      dup3\n        /* \"#utility.yul\":25179:25203   */\n      tag_135\n      jump\t// in\n    tag_448:\n        /* \"#utility.yul\":25170:25203   */\n      swap2\n      pop\n        /* \"#utility.yul\":25225:25291   */\n      0xffffffffffffffffffffffffffffffffffffffffffffffffffffffffffffffff\n        /* \"#utility.yul\":25218:25223   */\n      dup3\n        /* \"#utility.yul\":25215:25292   */\n      sub\n        /* \"#utility.yul\":25212:25315   */\n      tag_449\n      jumpi\n        /* \"#utility.yul\":25295:25313   */\n      tag_450\n      tag_187\n      jump\t// in\n    tag_450:\n        /* \"#utility.yul\":25212:25315   */\n    tag_449:\n        /* \"#utility.yul\":25342:25343   */\n      0x01\n        /* \"#utility.yul\":25335:25340   */\n      dup3\n        /* \"#utility.yul\":25331:25344   */\n      add\n        /* \"#utility.yul\":25324:25344   */\n      swap1\n      pop\n        /* \"#utility.yul\":25117:25350   */\n      swap2\n      swap1\n      pop\n      jump\t// out\n        /* \"#utility.yul\":25356:25527   */\n    tag_203:\n        /* \"#utility.yul\":25496:25519   */\n      0x426f74746c6520616c7265616479206f70656e65640000000000000000000000\n        /* \"#utility.yul\":25492:25493   */\n      0x00\n        /* \"#utility.yul\":25484:25490   */\n      dup3\n        /* \"#utility.yul\":25480:25494   */\n      add\n        /* \"#utility.yul\":25473:25520   */\n      mstore\n        /* \"#utility.yul\":25356:25527   */\n      pop\n      jump\t// out\n        /* \"#utility.yul\":25533:25899   */\n    tag_204:\n        /* \"#utility.yul\":25675:25678   */\n      0x00\n        /* \"#utility.yul\":25696:25763   */\n      tag_453\n        /* \"#utility.yul\":25760:25762   */\n      0x15\n        /* \"#utility.yul\":25755:25758   */\n      dup4\n        /* \"#utility.yul\":25696:25763   */\n      tag_184\n      jump\t// in\n    tag_453:\n        /* \"#utility.yul\":25689:25763   */\n      swap2\n      pop\n        /* \"#utility.yul\":25772:25865   */\n      tag_454\n        /* \"#utility.yul\":25861:25864   */\n      dup3\n        /* \"#utility.yul\":25772:25865   */\n      tag_203\n      jump\t// in\n    tag_454:\n        /* \"#utility.yul\":25890:25892   */\n      0x20\n        /* \"#utility.yul\":25885:25888   */\n      dup3\n        /* \"#utility.yul\":25881:25893   */\n      add\n        /* \"#utility.yul\":25874:25893   */\n      swap1\n      pop\n        /* \"#utility.yul\":25533:25899   */\n      swap2\n      swap1\n      pop\n      jump\t// out\n        /* \"#utility.yul\":25905:26324   */\n    tag_91:\n        /* \"#utility.yul\":26071:26075   */\n      0x00\n        /* \"#utility.yul\":26109:26111   */\n      0x20\n        /* \"#utility.yul\":26098:26107   */\n      dup3\n        /* \"#utility.yul\":26094:26112   */\n      add\n        /* \"#utility.yul\":26086:26112   */\n      swap1\n      pop\n        /* \"#utility.yul\":26158:26167   */\n      dup2\n        /* \"#utility.yul\":26152:26156   */\n      dup2\n        /* \"#utility.yul\":26148:26168   */\n      sub\n        /* \"#utility.yul\":26144:26145   */\n      0x00\n        /* \"#utility.yul\":26133:26142   */\n      dup4\n        /* \"#utility.yul\":26129:26146   */\n      add\n        /* \"#utility.yul\":26122:26169   */\n      mstore\n        /* \"#utility.yul\":26186:26317   */\n      tag_456\n        /* \"#utility.yul\":26312:26316   */\n      dup2\n        /* \"#utility.yul\":26186:26317   */\n      tag_204\n      jump\t// in\n    tag_456:\n        /* \"#utility.yul\":26178:26317   */\n      swap1\n      pop\n        /* \"#utility.yul\":25905:26324   */\n      swap2\n      swap1\n      pop\n      jump\t// out\n        /* \"#utility.yul\":26330:26524   */\n    tag_100:\n        /* \"#utility.yul\":26370:26374   */\n      0x00\n        /* \"#utility.yul\":26390:26410   */\n      tag_458\n        /* \"#utility.yul\":26408:26409   */\n      dup3\n        /* \"#utility.yul\":26390:26410   */\n      tag_135\n      jump\t// in\n    tag_458:\n        /* \"#utility.yul\":26385:26410   */\n      swap2\n      pop\n        /* \"#utility.yul\":26424:26444   */\n      tag_459\n        /* \"#utility.yul\":26442:26443   */\n      dup4\n        /* \"#utility.yul\":26424:26444   */\n      tag_135\n      jump\t// in\n    tag_459:\n        /* \"#utility.yul\":26419:26444   */\n      swap3\n      pop\n        /* \"#utility.yul\":26468:26469   */\n      dup3\n        /* \"#utility.yul\":26465:26466   */\n      dup3\n        /* \"#utility.yul\":26461:26470   */\n      sub\n        /* \"#utility.yul\":26453:26470   */\n      swap1\n      pop\n        /* \"#utility.yul\":26492:26493   */\n      dup2\n        /* \"#utility.yul\":26486:26490   */\n      dup2\n        /* \"#utility.yul\":26483:26494   */\n      gt\n        /* \"#utility.yul\":26480:26517   */\n      iszero\n      tag_460\n      jumpi\n        /* \"#utility.yul\":26497:26515   */\n      tag_461\n      tag_187\n      jump\t// in\n    tag_461:\n        /* \"#utility.yul\":26480:26517   */\n    tag_460:\n        /* \"#utility.yul\":26330:26524   */\n      swap3\n      swap2\n      pop\n      pop\n      jump\t// out\n        /* \"#utility.yul\":26530:26679   */\n    tag_205:\n        /* \"#utility.yul\":26579:26585   */\n      0x00\n        /* \"#utility.yul\":26613:26618   */\n      dup2\n        /* \"#utility.yul\":26607:26619   */\n      sload\n        /* \"#utility.yul\":26597:26619   */\n      swap1\n      pop\n        /* \"#utility.yul\":26639:26672   */\n      tag_463\n        /* \"#utility.yul\":26665:26671   */\n      dup2\n        /* \"#utility.yul\":26639:26672   */\n      tag_60\n      jump\t// in\n    tag_463:\n        /* \"#utility.yul\":26629:26672   */\n      swap1\n      pop\n        /* \"#utility.yul\":26530:26679   */\n      swap2\n      swap1\n      pop\n      jump\t// out\n        /* \"#utility.yul\":26685:28136   */\n    tag_118:\n        /* \"#utility.yul\":26796:26799   */\n      dup2\n        /* \"#utility.yul\":26790:26794   */\n      dup2\n        /* \"#utility.yul\":26787:26800   */\n      sub\n        /* \"#utility.yul\":26784:26810   */\n      tag_465\n      jumpi\n        /* \"#utility.yul\":26803:26808   */\n      pop\n      pop\n      jump(tag_464)\n        /* \"#utility.yul\":26784:26810   */\n    tag_465:\n        /* \"#utility.yul\":26834:26868   */\n      tag_466\n        /* \"#utility.yul\":26864:26867   */\n      dup3\n        /* \"#utility.yul\":26834:26868   */\n      tag_205\n      jump\t// in\n    tag_466:\n        /* \"#utility.yul\":26933:26951   */\n      0xffffffffffffffff\n        /* \"#utility.yul\":26925:26931   */\n      dup2\n        /* \"#utility.yul\":26922:26952   */\n      gt\n        /* \"#utility.yul\":26919:26975   */\n      iszero\n      tag_467\n      jumpi\n        /* \"#utility.yul\":26955:26973   */\n      tag_468\n      tag_169\n      jump\t// in\n    tag_468:\n        /* \"#utility.yul\":26919:26975   */\n    tag_467:\n        /* \"#utility.yul\":26999:27037   */\n      tag_469\n        /* \"#utility.yul\":27031:27035   */\n      dup3\n        /* \"#utility.yul\":27025:27036   */\n      sload\n        /* \"#utility.yul\":26999:27037   */\n      tag_60\n      jump\t// in\n    tag_469:\n        /* \"#utility.yul\":27084:27151   */\n      tag_470\n        /* \"#utility.yul\":27144:27150   */\n      dup3\n        /* \"#utility.yul\":27136:27142   */\n      dup3\n        /* \"#utility.yul\":27130:27134   */\n      dup6\n        /* \"#utility.yul\":27084:27151   */\n      tag_199\n      jump\t// in\n    tag_470:\n        /* \"#utility.yul\":27178:27179   */\n      0x00\n        /* \"#utility.yul\":27207:27209   */\n      0x1f\n        /* \"#utility.yul\":27199:27205   */\n      dup4\n        /* \"#utility.yul\":27196:27210   */\n      gt\n        /* \"#utility.yul\":27224:27225   */\n      0x01\n        /* \"#utility.yul\":27219:27891   */\n      dup2\n      eq\n      tag_472\n      jumpi\n        /* \"#utility.yul\":27935:27936   */\n      0x00\n        /* \"#utility.yul\":27952:27958   */\n      dup5\n        /* \"#utility.yul\":27949:28026   */\n      iszero\n      tag_473\n      jumpi\n        /* \"#utility.yul\":28001:28010   */\n      dup3\n        /* \"#utility.yul\":27996:27999   */\n      dup8\n        /* \"#utility.yul\":27992:28011   */\n      add\n        /* \"#utility.yul\":27986:28012   */\n      sload\n        /* \"#utility.yul\":27977:28012   */\n      swap1\n      pop\n        /* \"#utility.yul\":27949:28026   */\n    tag_473:\n        /* \"#utility.yul\":28052:28119   */\n      tag_474\n        /* \"#utility.yul\":28112:28118   */\n      dup6\n        /* \"#utility.yul\":28105:28110   */\n      dup3\n        /* \"#utility.yul\":28052:28119   */\n      tag_202\n      jump\t// in\n    tag_474:\n        /* \"#utility.yul\":28046:28050   */\n      dup7\n        /* \"#utility.yul\":28039:28120   */\n      sstore\n        /* \"#utility.yul\":27908:28130   */\n      pop\n        /* \"#utility.yul\":27189:28130   */\n      jump(tag_471)\n        /* \"#utility.yul\":27219:27891   */\n    tag_472:\n        /* \"#utility.yul\":27271:27275   */\n      0x1f\n        /* \"#utility.yul\":27267:27276   */\n      not\n        /* \"#utility.yul\":27259:27265   */\n      dup5\n        /* \"#utility.yul\":27255:27277   */\n      and\n        /* \"#utility.yul\":27297:27333   */\n      tag_475\n        /* \"#utility.yul\":27329:27332   */\n      dup8\n        /* \"#utility.yul\":27297:27333   */\n      tag_188\n      jump\t// in\n    tag_475:\n        /* \"#utility.yul\":27290:27333   */\n      swap7\n      pop\n        /* \"#utility.yul\":27360:27397   */\n      tag_476\n        /* \"#utility.yul\":27392:27396   */\n      dup7\n        /* \"#utility.yul\":27360:27397   */\n      tag_188\n      jump\t// in\n    tag_476:\n        /* \"#utility.yul\":27419:27420   */\n      0x00\n        /* \"#utility.yul\":27433:27640   */\n    tag_477:\n        /* \"#utility.yul\":27447:27454   */\n      dup3\n        /* \"#utility.yul\":27444:27445   */\n      dup2\n        /* \"#utility.yul\":27441:27455   */\n      lt\n        /* \"#utility.yul\":27433:27640   */\n      iszero\n      tag_479\n      jumpi\n        /* \"#utility.yul\":27526:27535   */\n      dup5\n        /* \"#utility.yul\":27521:27524   */\n      dup10\n        /* \"#utility.yul\":27517:27536   */\n      add\n        /* \"#utility.yul\":27511:27537   */\n      sload\n        /* \"#utility.yul\":27503:27509   */\n      dup3\n        /* \"#utility.yul\":27496:27538   */\n      sstore\n        /* \"#utility.yul\":27577:27578   */\n      0x01\n        /* \"#utility.yul\":27569:27575   */\n      dup3\n        /* \"#utility.yul\":27565:27579   */\n      add\n        /* \"#utility.yul\":27555:27579   */\n      swap2\n      pop\n        /* \"#utility.yul\":27624:27625   */\n      0x01\n        /* \"#utility.yul\":27613:27622   */\n      dup6\n        /* \"#utility.yul\":27609:27626   */\n      add\n        /* \"#utility.yul\":27596:27626   */\n      swap5\n      pop\n        /* \"#utility.yul\":27470:27474   */\n      0x20\n        /* \"#utility.yul\":27467:27468   */\n      dup2\n        /* \"#utility.yul\":27463:27475   */\n      add\n        /* \"#utility.yul\":27458:27475   */\n      swap1\n      pop\n        /* \"#utility.yul\":27433:27640   */\n      jump(tag_477)\n    tag_479:\n        /* \"#utility.yul\":27668:27674   */\n      dup7\n        /* \"#utility.yul\":27659:27666   */\n      dup4\n        /* \"#utility.yul\":27656:27675   */\n      lt\n        /* \"#utility.yul\":27653:27832   */\n      iszero\n      tag_480\n      jumpi\n        /* \"#utility.yul\":27726:27735   */\n      dup5\n        /* \"#utility.yul\":27721:27724   */\n      dup10\n        /* \"#utility.yul\":27717:27736   */\n      add\n        /* \"#utility.yul\":27711:27737   */\n      sload\n        /* \"#utility.yul\":27769:27817   */\n      tag_481\n        /* \"#utility.yul\":27811:27815   */\n      0x1f\n        /* \"#utility.yul\":27803:27809   */\n      dup10\n        /* \"#utility.yul\":27799:27816   */\n      and\n        /* \"#utility.yul\":27788:27797   */\n      dup3\n        /* \"#utility.yul\":27769:27817   */\n      tag_201\n      jump\t// in\n    tag_481:\n        /* \"#utility.yul\":27761:27767   */\n      dup4\n        /* \"#utility.yul\":27754:27818   */\n      sstore\n        /* \"#utility.yul\":27676:27832   */\n      pop\n        /* \"#utility.yul\":27653:27832   */\n    tag_480:\n        /* \"#utility.yul\":27878:27879   */\n      0x01\n        /* \"#utility.yul\":27874:27875   */\n      0x02\n        /* \"#utility.yul\":27866:27872   */\n      dup9\n        /* \"#utility.yul\":27862:27876   */\n      mul\n        /* \"#utility.yul\":27858:27880   */\n      add\n        /* \"#utility.yul\":27852:27856   */\n      dup9\n        /* \"#utility.yul\":27845:27881   */\n      sstore\n        /* \"#utility.yul\":27226:27891   */\n      pop\n      pop\n      pop\n        /* \"#utility.yul\":27189:28130   */\n    tag_471:\n      pop\n        /* \"#utility.yul\":26774:28136   */\n      pop\n      pop\n      pop\n        /* \"#utility.yul\":26685:28136   */\n      pop\n      pop\n    tag_464:\n      jump\t// out\n\n    auxdata: 0xa2646970667358221220d8b7a1c82ba7c71892533cffc07cd545997b62e5a1d2968f485866841da0de9764736f6c634300081a0033\n}\n",
				"bytecode": {
					"linkReferences": {},
					"object": "6080604052348015600e575f80fd5b50611bd58061001c5f395ff3fe608060405234801561000f575f80fd5b5060043610610086575f3560e01c80639eedc7a6116100595780639eedc7a614610142578063aff6b5151461015e578063df59e4771461017a578063f62c9e3c146101aa57610086565b8063437e7e5c1461008a57806352b31faa146100bf5780638a3aa27f146100f45780639d0d9b2e14610124575b5f80fd5b6100a4600480360381019061009f9190610e3d565b6101c8565b6040516100b696959493929190610ed0565b60405180910390f35b6100d960048036038101906100d49190610e3d565b61024b565b6040516100eb96959493929190610ed0565b60405180910390f35b61010e60048036038101906101099190610f59565b6102dc565b60405161011b9190610f97565b60405180910390f35b61012c610307565b6040516101399190611283565b60405180910390f35b61015c600480360381019061015791906114b1565b61052b565b005b610178600480360381019061017391906114f8565b6108e0565b005b610194600480360381019061018f9190610e3d565b610c1a565b6040516101a191906115d5565b60405180910390f35b6101b2610d15565b6040516101bf9190610f97565b60405180910390f35b6003602052805f5260405f205f91509050805f015490806001015f9054906101000a900473ffffffffffffffffffffffffffffffffffffffff1690806002015490806003015f9054906101000a900460ff16908060030160019054906101000a900473ffffffffffffffffffffffffffffffffffffffff16908060040154905086565b5f8181548110610259575f80fd5b905f5260205f2090600602015f91509050805f015490806001015f9054906101000a900473ffffffffffffffffffffffffffffffffffffffff1690806002015490806003015f9054906101000a900460ff16908060030160019054906101000a900473ffffffffffffffffffffffffffffffffffffffff16908060040154905086565b6002602052815f5260405f2081815481106102f5575f80fd5b905f5260205f20015f91509150505481565b60605f805480602002602001604051908101604052809291908181526020015f905b82821015610522578382905f5260205f2090600602016040518060e00160405290815f8201548152602001600182015f9054906101000a900473ffffffffffffffffffffffffffffffffffffffff1673ffffffffffffffffffffffffffffffffffffffff1673ffffffffffffffffffffffffffffffffffffffff16815260200160028201548152602001600382015f9054906101000a900460ff161515151581526020016003820160019054906101000a900473ffffffffffffffffffffffffffffffffffffffff1673ffffffffffffffffffffffffffffffffffffffff1673ffffffffffffffffffffffffffffffffffffffff1681526020016004820154815260200160058201805480602002602001604051908101604052809291908181526020015f905b8282101561050b578382905f5260205f20016040518060200160405290815f8201805461047c90611622565b80601f01602080910402602001604051908101604052809291908181526020018280546104a890611622565b80156104f35780601f106104ca576101008083540402835291602001916104f3565b820191905f5260205f20905b8154815290600101906020018083116104d657829003601f168201915b50505050508152505081526020019060010190610450565b505050508152505081526020019060010190610329565b50505050905090565b5f81511161056e576040517f08c379a0000000000000000000000000000000000000000000000000000000008152600401610565906116ac565b60405180910390fd5b5f6001805461057d91906116f7565b90505f60035f8381526020019081526020015f20905081815f018190555033816001015f6101000a81548173ffffffffffffffffffffffffffffffffffffffff021916908373ffffffffffffffffffffffffffffffffffffffff1602179055504281600201819055505f816003015f6101000a81548160ff0219169083151502179055505f8160030160016101000a81548173ffffffffffffffffffffffffffffffffffffffff021916908373ffffffffffffffffffffffffffffffffffffffff1602179055505f81600401819055505f5b83518110156106ca5781600501604051806020016040528086848151811061067a5761067961172a565b5b6020026020010151815250908060018154018082558091505060019003905f5260205f20015f909190919091505f820151815f0190816106ba91906118f4565b505050808060010191505061064f565b505f81908060018154018082558091505060019003905f5260205f2090600602015f909190919091505f820154815f0155600182015f9054906101000a900473ffffffffffffffffffffffffffffffffffffffff16816001015f6101000a81548173ffffffffffffffffffffffffffffffffffffffff021916908373ffffffffffffffffffffffffffffffffffffffff16021790555060028201548160020155600382015f9054906101000a900460ff16816003015f6101000a81548160ff0219169083151502179055506003820160019054906101000a900473ffffffffffffffffffffffffffffffffffffffff168160030160016101000a81548173ffffffffffffffffffffffffffffffffffffffff021916908373ffffffffffffffffffffffffffffffffffffffff16021790555060048201548160040155600582018160050190805461081c929190610d1b565b50505060025f3373ffffffffffffffffffffffffffffffffffffffff1673ffffffffffffffffffffffffffffffffffffffff1681526020019081526020015f2082908060018154018082558091505060019003905f5260205f20015f909190919091505560015f815480929190610892906119c3565b91905055503373ffffffffffffffffffffffffffffffffffffffff16827f7419087b84863b9247a8c31c3a72be5d66788987efdd825e3ce76975df572e0960405160405180910390a3505050565b5f815111610923576040517f08c379a000000000000000000000000000000000000000000000000000000000815260040161091a906116ac565b60405180910390fd5b5f60035f8481526020019081526020015f2090505f1515816003015f9054906101000a900460ff1615151461098d576040517f08c379a000000000000000000000000000000000000000000000000000000000815260040161098490611a54565b60405180910390fd5b5f5b8251811015610a0a578160050160405180602001604052808584815181106109ba576109b961172a565b5b6020026020010151815250908060018154018082558091505060019003905f5260205f20015f909190919091505f820151815f0190816109fa91906118f4565b505050808060010191505061098f565b506001816003015f6101000a81548160ff021916908315150217905550338160030160016101000a81548173ffffffffffffffffffffffffffffffffffffffff021916908373ffffffffffffffffffffffffffffffffffffffff1602179055504281600401819055505f600184610a819190611a72565b9050815f8281548110610a9757610a9661172a565b5b905f5260205f2090600602015f820154815f0155600182015f9054906101000a900473ffffffffffffffffffffffffffffffffffffffff16816001015f6101000a81548173ffffffffffffffffffffffffffffffffffffffff021916908373ffffffffffffffffffffffffffffffffffffffff16021790555060028201548160020155600382015f9054906101000a900460ff16816003015f6101000a81548160ff0219169083151502179055506003820160019054906101000a900473ffffffffffffffffffffffffffffffffffffffff168160030160016101000a81548173ffffffffffffffffffffffffffffffffffffffff021916908373ffffffffffffffffffffffffffffffffffffffff160217905550600482015481600401556005820181600501908054610bcc929190610d1b565b509050503373ffffffffffffffffffffffffffffffffffffffff16847f7f078c6460907c6dd14039d55eec592b282687310de4f597f33d141276a3349860405160405180910390a350505050565b606060035f8381526020019081526020015f20600501805480602002602001604051908101604052809291908181526020015f905b82821015610d0a578382905f5260205f20016040518060200160405290815f82018054610c7b90611622565b80601f0160208091040260200160405190810160405280929190818152602001828054610ca790611622565b8015610cf25780601f10610cc957610100808354040283529160200191610cf2565b820191905f5260205f20905b815481529060010190602001808311610cd557829003601f168201915b50505050508152505081526020019060010190610c4f565b505050509050919050565b60015481565b828054828255905f5260205f20908101928215610d6b575f5260205f209182015b82811115610d6a5782825f8201815f019081610d589190611aba565b50505091600101919060010190610d3c565b5b509050610d789190610d7c565b5090565b5b80821115610d9d575f8082015f610d949190610da1565b50600101610d7d565b5090565b508054610dad90611622565b5f825580601f10610dbe5750610ddb565b601f0160209004905f5260205f2090810190610dda9190610dde565b5b50565b5b80821115610df5575f815f905550600101610ddf565b5090565b5f604051905090565b5f80fd5b5f80fd5b5f819050919050565b610e1c81610e0a565b8114610e26575f80fd5b50565b5f81359050610e3781610e13565b92915050565b5f60208284031215610e5257610e51610e02565b5b5f610e5f84828501610e29565b91505092915050565b610e7181610e0a565b82525050565b5f73ffffffffffffffffffffffffffffffffffffffff82169050919050565b5f610ea082610e77565b9050919050565b610eb081610e96565b82525050565b5f8115159050919050565b610eca81610eb6565b82525050565b5f60c082019050610ee35f830189610e68565b610ef06020830188610ea7565b610efd6040830187610e68565b610f0a6060830186610ec1565b610f176080830185610ea7565b610f2460a0830184610e68565b979650505050505050565b610f3881610e96565b8114610f42575f80fd5b50565b5f81359050610f5381610f2f565b92915050565b5f8060408385031215610f6f57610f6e610e02565b5b5f610f7c85828601610f45565b9250506020610f8d85828601610e29565b9150509250929050565b5f602082019050610faa5f830184610e68565b92915050565b5f81519050919050565b5f82825260208201905092915050565b5f819050602082019050919050565b610fe281610e0a565b82525050565b610ff181610e96565b82525050565b61100081610eb6565b82525050565b5f81519050919050565b5f82825260208201905092915050565b5f819050602082019050919050565b5f81519050919050565b5f82825260208201905092915050565b8281835e5f83830152505050565b5f601f19601f8301169050919050565b5f6110718261102f565b61107b8185611039565b935061108b818560208601611049565b61109481611057565b840191505092915050565b5f602083015f8301518482035f8601526110b98282611067565b9150508091505092915050565b5f6110d1838361109f565b905092915050565b5f602082019050919050565b5f6110ef82611006565b6110f98185611010565b93508360208202850161110b85611020565b805f5b85811015611146578484038952815161112785826110c6565b9450611132836110d9565b925060208a0199505060018101905061110e565b50829750879550505050505092915050565b5f60e083015f83015161116d5f860182610fd9565b5060208301516111806020860182610fe8565b5060408301516111936040860182610fd9565b5060608301516111a66060860182610ff7565b5060808301516111b96080860182610fe8565b5060a08301516111cc60a0860182610fd9565b5060c083015184820360c08601526111e482826110e5565b9150508091505092915050565b5f6111fc8383611158565b905092915050565b5f602082019050919050565b5f61121a82610fb0565b6112248185610fba565b93508360208202850161123685610fca565b805f5b85811015611271578484038952815161125285826111f1565b945061125d83611204565b925060208a01995050600181019050611239565b50829750879550505050505092915050565b5f6020820190508181035f83015261129b8184611210565b905092915050565b5f80fd5b7f4e487b71000000000000000000000000000000000000000000000000000000005f52604160045260245ffd5b6112dd82611057565b810181811067ffffffffffffffff821117156112fc576112fb6112a7565b5b80604052505050565b5f61130e610df9565b905061131a82826112d4565b919050565b5f67ffffffffffffffff821115611339576113386112a7565b5b602082029050602081019050919050565b5f80fd5b5f80fd5b5f67ffffffffffffffff82111561136c5761136b6112a7565b5b61137582611057565b9050602081019050919050565b828183375f83830152505050565b5f6113a261139d84611352565b611305565b9050828152602081018484840111156113be576113bd61134e565b5b6113c9848285611382565b509392505050565b5f82601f8301126113e5576113e46112a3565b5b81356113f5848260208601611390565b91505092915050565b5f61141061140b8461131f565b611305565b905080838252602082019050602084028301858111156114335761143261134a565b5b835b8181101561147a57803567ffffffffffffffff811115611458576114576112a3565b5b80860161146589826113d1565b85526020850194505050602081019050611435565b5050509392505050565b5f82601f830112611498576114976112a3565b5b81356114a88482602086016113fe565b91505092915050565b5f602082840312156114c6576114c5610e02565b5b5f82013567ffffffffffffffff8111156114e3576114e2610e06565b5b6114ef84828501611484565b91505092915050565b5f806040838503121561150e5761150d610e02565b5b5f61151b85828601610e29565b925050602083013567ffffffffffffffff81111561153c5761153b610e06565b5b61154885828601611484565b9150509250929050565b5f82825260208201905092915050565b5f61156c82611006565b6115768185611552565b93508360208202850161158885611020565b805f5b858110156115c357848403895281516115a485826110c6565b94506115af836110d9565b925060208a0199505060018101905061158b565b50829750879550505050505092915050565b5f6020820190508181035f8301526115ed8184611562565b905092915050565b7f4e487b71000000000000000000000000000000000000000000000000000000005f52602260045260245ffd5b5f600282049050600182168061163957607f821691505b60208210810361164c5761164b6115f5565b5b50919050565b5f82825260208201905092915050565b7f426c6f622063616e6e6f7420626520656d7074790000000000000000000000005f82015250565b5f611696601483611652565b91506116a182611662565b602082019050919050565b5f6020820190508181035f8301526116c38161168a565b9050919050565b7f4e487b71000000000000000000000000000000000000000000000000000000005f52601160045260245ffd5b5f61170182610e0a565b915061170c83610e0a565b9250828201905080821115611724576117236116ca565b5b92915050565b7f4e487b71000000000000000000000000000000000000000000000000000000005f52603260045260245ffd5b5f819050815f5260205f209050919050565b5f6020601f8301049050919050565b5f82821b905092915050565b5f600883026117b37fffffffffffffffffffffffffffffffffffffffffffffffffffffffffffffffff82611778565b6117bd8683611778565b95508019841693508086168417925050509392505050565b5f819050919050565b5f6117f86117f36117ee84610e0a565b6117d5565b610e0a565b9050919050565b5f819050919050565b611811836117de565b61182561181d826117ff565b848454611784565b825550505050565b5f90565b61183961182d565b611844818484611808565b505050565b5b818110156118675761185c5f82611831565b60018101905061184a565b5050565b601f8211156118ac5761187d81611757565b61188684611769565b81016020851015611895578190505b6118a96118a185611769565b830182611849565b50505b505050565b5f82821c905092915050565b5f6118cc5f19846008026118b1565b1980831691505092915050565b5f6118e483836118bd565b9150826002028217905092915050565b6118fd8261102f565b67ffffffffffffffff811115611916576119156112a7565b5b6119208254611622565b61192b82828561186b565b5f60209050601f83116001811461195c575f841561194a578287015190505b61195485826118d9565b8655506119bb565b601f19841661196a86611757565b5f5b828110156119915784890151825560018201915060208501945060208101905061196c565b868310156119ae57848901516119aa601f8916826118bd565b8355505b6001600288020188555050505b505050505050565b5f6119cd82610e0a565b91507fffffffffffffffffffffffffffffffffffffffffffffffffffffffffffffffff82036119ff576119fe6116ca565b5b600182019050919050565b7f426f74746c6520616c7265616479206f70656e656400000000000000000000005f82015250565b5f611a3e601583611652565b9150611a4982611a0a565b602082019050919050565b5f6020820190508181035f830152611a6b81611a32565b9050919050565b5f611a7c82610e0a565b9150611a8783610e0a565b9250828203905081811115611a9f57611a9e6116ca565b5b92915050565b5f81549050611ab381611622565b9050919050565b818103611ac8575050611b9d565b611ad182611aa5565b67ffffffffffffffff811115611aea57611ae96112a7565b5b611af48254611622565b611aff82828561186b565b5f601f831160018114611b2c575f8415611b1a578287015490505b611b2485826118d9565b865550611b96565b601f198416611b3a87611757565b9650611b4586611757565b5f5b82811015611b6c57848901548255600182019150600185019450602081019050611b47565b86831015611b895784890154611b85601f8916826118bd565b8355505b6001600288020188555050505b5050505050505b56fea2646970667358221220d8b7a1c82ba7c71892533cffc07cd545997b62e5a1d2968f485866841da0de9764736f6c634300081a0033",
					"opcodes": "PUSH1 0x80 PUSH1 0x40 MSTORE CALLVALUE DUP1 ISZERO PUSH1 0xE JUMPI PUSH0 DUP1 REVERT JUMPDEST POP PUSH2 0x1BD5 DUP1 PUSH2 0x1C PUSH0 CODECOPY PUSH0 RETURN INVALID PUSH1 0x80 PUSH1 0x40 MSTORE CALLVALUE DUP1 ISZERO PUSH2 0xF JUMPI PUSH0 DUP1 REVERT JUMPDEST POP PUSH1 0x4 CALLDATASIZE LT PUSH2 0x86 JUMPI PUSH0 CALLDATALOAD PUSH1 0xE0 SHR DUP1 PUSH4 0x9EEDC7A6 GT PUSH2 0x59 JUMPI DUP1 PUSH4 0x9EEDC7A6 EQ PUSH2 0x142 JUMPI DUP1 PUSH4 0xAFF6B515 EQ PUSH2 0x15E JUMPI DUP1 PUSH4 0xDF59E477 EQ PUSH2 0x17A JUMPI DUP1 PUSH4 0xF62C9E3C EQ PUSH2 0x1AA JUMPI PUSH2 0x86 JUMP JUMPDEST DUP1 PUSH4 0x437E7E5C EQ PUSH2 0x8A JUMPI DUP1 PUSH4 0x52B31FAA EQ PUSH2 0xBF JUMPI DUP1 PUSH4 0x8A3AA27F EQ PUSH2 0xF4 JUMPI DUP1 PUSH4 0x9D0D9B2E EQ PUSH2 0x124 JUMPI JUMPDEST PUSH0 DUP1 REVERT JUMPDEST PUSH2 0xA4 PUSH1 0x4 DUP1 CALLDATASIZE SUB DUP2 ADD SWAP1 PUSH2 0x9F SWAP2 SWAP1 PUSH2 0xE3D JUMP JUMPDEST PUSH2 0x1C8 JUMP JUMPDEST PUSH1 0x40 MLOAD PUSH2 0xB6 SWAP7 SWAP6 SWAP5 SWAP4 SWAP3 SWAP2 SWAP1 PUSH2 0xED0 JUMP JUMPDEST PUSH1 0x40 MLOAD DUP1 SWAP2 SUB SWAP1 RETURN JUMPDEST PUSH2 0xD9 PUSH1 0x4 DUP1 CALLDATASIZE SUB DUP2 ADD SWAP1 PUSH2 0xD4 SWAP2 SWAP1 PUSH2 0xE3D JUMP JUMPDEST PUSH2 0x24B JUMP JUMPDEST PUSH1 0x40 MLOAD PUSH2 0xEB SWAP7 SWAP6 SWAP5 SWAP4 SWAP3 SWAP2 SWAP1 PUSH2 0xED0 JUMP JUMPDEST PUSH1 0x40 MLOAD DUP1 SWAP2 SUB SWAP1 RETURN JUMPDEST PUSH2 0x10E PUSH1 0x4 DUP1 CALLDATASIZE SUB DUP2 ADD SWAP1 PUSH2 0x109 SWAP2 SWAP1 PUSH2 0xF59 JUMP JUMPDEST PUSH2 0x2DC JUMP JUMPDEST PUSH1 0x40 MLOAD PUSH2 0x11B SWAP2 SWAP1 PUSH2 0xF97 JUMP JUMPDEST PUSH1 0x40 MLOAD DUP1 SWAP2 SUB SWAP1 RETURN JUMPDEST PUSH2 0x12C PUSH2 0x307 JUMP JUMPDEST PUSH1 0x40 MLOAD PUSH2 0x139 SWAP2 SWAP1 PUSH2 0x1283 JUMP JUMPDEST PUSH1 0x40 MLOAD DUP1 SWAP2 SUB SWAP1 RETURN JUMPDEST PUSH2 0x15C PUSH1 0x4 DUP1 CALLDATASIZE SUB DUP2 ADD SWAP1 PUSH2 0x157 SWAP2 SWAP1 PUSH2 0x14B1 JUMP JUMPDEST PUSH2 0x52B JUMP JUMPDEST STOP JUMPDEST PUSH2 0x178 PUSH1 0x4 DUP1 CALLDATASIZE SUB DUP2 ADD SWAP1 PUSH2 0x173 SWAP2 SWAP1 PUSH2 0x14F8 JUMP JUMPDEST PUSH2 0x8E0 JUMP JUMPDEST STOP JUMPDEST PUSH2 0x194 PUSH1 0x4 DUP1 CALLDATASIZE SUB DUP2 ADD SWAP1 PUSH2 0x18F SWAP2 SWAP1 PUSH2 0xE3D JUMP JUMPDEST PUSH2 0xC1A JUMP JUMPDEST PUSH1 0x40 MLOAD PUSH2 0x1A1 SWAP2 SWAP1 PUSH2 0x15D5 JUMP JUMPDEST PUSH1 0x40 MLOAD DUP1 SWAP2 SUB SWAP1 RETURN JUMPDEST PUSH2 0x1B2 PUSH2 0xD15 JUMP JUMPDEST PUSH1 0x40 MLOAD PUSH2 0x1BF SWAP2 SWAP1 PUSH2 0xF97 JUMP JUMPDEST PUSH1 0x40 MLOAD DUP1 SWAP2 SUB SWAP1 RETURN JUMPDEST PUSH1 0x3 PUSH1 0x20 MSTORE DUP1 PUSH0 MSTORE PUSH1 0x40 PUSH0 KECCAK256 PUSH0 SWAP2 POP SWAP1 POP DUP1 PUSH0 ADD SLOAD SWAP1 DUP1 PUSH1 0x1 ADD PUSH0 SWAP1 SLOAD SWAP1 PUSH2 0x100 EXP SWAP1 DIV PUSH20 0xFFFFFFFFFFFFFFFFFFFFFFFFFFFFFFFFFFFFFFFF AND SWAP1 DUP1 PUSH1 0x2 ADD SLOAD SWAP1 DUP1 PUSH1 0x3 ADD PUSH0 SWAP1 SLOAD SWAP1 PUSH2 0x100 EXP SWAP1 DIV PUSH1 0xFF AND SWAP1 DUP1 PUSH1 0x3 ADD PUSH1 0x1 SWAP1 SLOAD SWAP1 PUSH2 0x100 EXP SWAP1 DIV PUSH20 0xFFFFFFFFFFFFFFFFFFFFFFFFFFFFFFFFFFFFFFFF AND SWAP1 DUP1 PUSH1 0x4 ADD SLOAD SWAP1 POP DUP7 JUMP JUMPDEST PUSH0 DUP2 DUP2 SLOAD DUP2 LT PUSH2 0x259 JUMPI PUSH0 DUP1 REVERT JUMPDEST SWAP1 PUSH0 MSTORE PUSH1 0x20 PUSH0 KECCAK256 SWAP1 PUSH1 0x6 MUL ADD PUSH0 SWAP2 POP SWAP1 POP DUP1 PUSH0 ADD SLOAD SWAP1 DUP1 PUSH1 0x1 ADD PUSH0 SWAP1 SLOAD SWAP1 PUSH2 0x100 EXP SWAP1 DIV PUSH20 0xFFFFFFFFFFFFFFFFFFFFFFFFFFFFFFFFFFFFFFFF AND SWAP1 DUP1 PUSH1 0x2 ADD SLOAD SWAP1 DUP1 PUSH1 0x3 ADD PUSH0 SWAP1 SLOAD SWAP1 PUSH2 0x100 EXP SWAP1 DIV PUSH1 0xFF AND SWAP1 DUP1 PUSH1 0x3 ADD PUSH1 0x1 SWAP1 SLOAD SWAP1 PUSH2 0x100 EXP SWAP1 DIV PUSH20 0xFFFFFFFFFFFFFFFFFFFFFFFFFFFFFFFFFFFFFFFF AND SWAP1 DUP1 PUSH1 0x4 ADD SLOAD SWAP1 POP DUP7 JUMP JUMPDEST PUSH1 0x2 PUSH1 0x20 MSTORE DUP2 PUSH0 MSTORE PUSH1 0x40 PUSH0 KECCAK256 DUP2 DUP2 SLOAD DUP2 LT PUSH2 0x2F5 JUMPI PUSH0 DUP1 REVERT JUMPDEST SWAP1 PUSH0 MSTORE PUSH1 0x20 PUSH0 KECCAK256 ADD PUSH0 SWAP2 POP SWAP2 POP POP SLOAD DUP2 JUMP JUMPDEST PUSH1 0x60 PUSH0 DUP1 SLOAD DUP1 PUSH1 0x20 MUL PUSH1 0x20 ADD PUSH1 0x40 MLOAD SWAP1 DUP2 ADD PUSH1 0x40 MSTORE DUP1 SWAP3 SWAP2 SWAP1 DUP2 DUP2 MSTORE PUSH1 0x20 ADD PUSH0 SWAP1 JUMPDEST DUP3 DUP3 LT ISZERO PUSH2 0x522 JUMPI DUP4 DUP3 SWAP1 PUSH0 MSTORE PUSH1 0x20 PUSH0 KECCAK256 SWAP1 PUSH1 0x6 MUL ADD PUSH1 0x40 MLOAD DUP1 PUSH1 0xE0 ADD PUSH1 0x40 MSTORE SWAP1 DUP2 PUSH0 DUP3 ADD SLOAD DUP2 MSTORE PUSH1 0x20 ADD PUSH1 0x1 DUP3 ADD PUSH0 SWAP1 SLOAD SWAP1 PUSH2 0x100 EXP SWAP1 DIV PUSH20 0xFFFFFFFFFFFFFFFFFFFFFFFFFFFFFFFFFFFFFFFF AND PUSH20 0xFFFFFFFFFFFFFFFFFFFFFFFFFFFFFFFFFFFFFFFF AND PUSH20 0xFFFFFFFFFFFFFFFFFFFFFFFFFFFFFFFFFFFFFFFF AND DUP2 MSTORE PUSH1 0x20 ADD PUSH1 0x2 DUP3 ADD SLOAD DUP2 MSTORE PUSH1 0x20 ADD PUSH1 0x3 DUP3 ADD PUSH0 SWAP1 SLOAD SWAP1 PUSH2 0x100 EXP SWAP1 DIV PUSH1 0xFF AND ISZERO ISZERO ISZERO ISZERO DUP2 MSTORE PUSH1 0x20 ADD PUSH1 0x3 DUP3 ADD PUSH1 0x1 SWAP1 SLOAD SWAP1 PUSH2 0x100 EXP SWAP1 DIV PUSH20 0xFFFFFFFFFFFFFFFFFFFFFFFFFFFFFFFFFFFFFFFF AND PUSH20 0xFFFFFFFFFFFFFFFFFFFFFFFFFFFFFFFFFFFFFFFF AND PUSH20 0xFFFFFFFFFFFFFFFFFFFFFFFFFFFFFFFFFFFFFFFF AND DUP2 MSTORE PUSH1 0x20 ADD PUSH1 0x4 DUP3 ADD SLOAD DUP2 MSTORE PUSH1 0x20 ADD PUSH1 0x5 DUP3 ADD DUP1 SLOAD DUP1 PUSH1 0x20 MUL PUSH1 0x20 ADD PUSH1 0x40 MLOAD SWAP1 DUP2 ADD PUSH1 0x40 MSTORE DUP1 SWAP3 SWAP2 SWAP1 DUP2 DUP2 MSTORE PUSH1 0x20 ADD PUSH0 SWAP1 JUMPDEST DUP3 DUP3 LT ISZERO PUSH2 0x50B JUMPI DUP4 DUP3 SWAP1 PUSH0 MSTORE PUSH1 0x20 PUSH0 KECCAK256 ADD PUSH1 0x40 MLOAD DUP1 PUSH1 0x20 ADD PUSH1 0x40 MSTORE SWAP1 DUP2 PUSH0 DUP3 ADD DUP1 SLOAD PUSH2 0x47C SWAP1 PUSH2 0x1622 JUMP JUMPDEST DUP1 PUSH1 0x1F ADD PUSH1 0x20 DUP1 SWAP2 DIV MUL PUSH1 0x20 ADD PUSH1 0x40 MLOAD SWAP1 DUP2 ADD PUSH1 0x40 MSTORE DUP1 SWAP3 SWAP2 SWAP1 DUP2 DUP2 MSTORE PUSH1 0x20 ADD DUP3 DUP1 SLOAD PUSH2 0x4A8 SWAP1 PUSH2 0x1622 JUMP JUMPDEST DUP1 ISZERO PUSH2 0x4F3 JUMPI DUP1 PUSH1 0x1F LT PUSH2 0x4CA JUMPI PUSH2 0x100 DUP1 DUP4 SLOAD DIV MUL DUP4 MSTORE SWAP2 PUSH1 0x20 ADD SWAP2 PUSH2 0x4F3 JUMP JUMPDEST DUP3 ADD SWAP2 SWAP1 PUSH0 MSTORE PUSH1 0x20 PUSH0 KECCAK256 SWAP1 JUMPDEST DUP2 SLOAD DUP2 MSTORE SWAP1 PUSH1 0x1 ADD SWAP1 PUSH1 0x20 ADD DUP1 DUP4 GT PUSH2 0x4D6 JUMPI DUP3 SWAP1 SUB PUSH1 0x1F AND DUP3 ADD SWAP2 JUMPDEST POP POP POP POP POP DUP2 MSTORE POP POP DUP2 MSTORE PUSH1 0x20 ADD SWAP1 PUSH1 0x1 ADD SWAP1 PUSH2 0x450 JUMP JUMPDEST POP POP POP POP DUP2 MSTORE POP POP DUP2 MSTORE PUSH1 0x20 ADD SWAP1 PUSH1 0x1 ADD SWAP1 PUSH2 0x329 JUMP JUMPDEST POP POP POP POP SWAP1 POP SWAP1 JUMP JUMPDEST PUSH0 DUP2 MLOAD GT PUSH2 0x56E JUMPI PUSH1 0x40 MLOAD PUSH32 0x8C379A000000000000000000000000000000000000000000000000000000000 DUP2 MSTORE PUSH1 0x4 ADD PUSH2 0x565 SWAP1 PUSH2 0x16AC JUMP JUMPDEST PUSH1 0x40 MLOAD DUP1 SWAP2 SUB SWAP1 REVERT JUMPDEST PUSH0 PUSH1 0x1 DUP1 SLOAD PUSH2 0x57D SWAP2 SWAP1 PUSH2 0x16F7 JUMP JUMPDEST SWAP1 POP PUSH0 PUSH1 0x3 PUSH0 DUP4 DUP2 MSTORE PUSH1 0x20 ADD SWAP1 DUP2 MSTORE PUSH1 0x20 ADD PUSH0 KECCAK256 SWAP1 POP DUP2 DUP2 PUSH0 ADD DUP2 SWAP1 SSTORE POP CALLER DUP2 PUSH1 0x1 ADD PUSH0 PUSH2 0x100 EXP DUP2 SLOAD DUP2 PUSH20 0xFFFFFFFFFFFFFFFFFFFFFFFFFFFFFFFFFFFFFFFF MUL NOT AND SWAP1 DUP4 PUSH20 0xFFFFFFFFFFFFFFFFFFFFFFFFFFFFFFFFFFFFFFFF AND MUL OR SWAP1 SSTORE POP TIMESTAMP DUP2 PUSH1 0x2 ADD DUP2 SWAP1 SSTORE POP PUSH0 DUP2 PUSH1 0x3 ADD PUSH0 PUSH2 0x100 EXP DUP2 SLOAD DUP2 PUSH1 0xFF MUL NOT AND SWAP1 DUP4 ISZERO ISZERO MUL OR SWAP1 SSTORE POP PUSH0 DUP2 PUSH1 0x3 ADD PUSH1 0x1 PUSH2 0x100 EXP DUP2 SLOAD DUP2 PUSH20 0xFFFFFFFFFFFFFFFFFFFFFFFFFFFFFFFFFFFFFFFF MUL NOT AND SWAP1 DUP4 PUSH20 0xFFFFFFFFFFFFFFFFFFFFFFFFFFFFFFFFFFFFFFFF AND MUL OR SWAP1 SSTORE POP PUSH0 DUP2 PUSH1 0x4 ADD DUP2 SWAP1 SSTORE POP PUSH0 JUMPDEST DUP4 MLOAD DUP2 LT ISZERO PUSH2 0x6CA JUMPI DUP2 PUSH1 0x5 ADD PUSH1 0x40 MLOAD DUP1 PUSH1 0x20 ADD PUSH1 0x40 MSTORE DUP1 DUP7 DUP5 DUP2 MLOAD DUP2 LT PUSH2 0x67A JUMPI PUSH2 0x679 PUSH2 0x172A JUMP JUMPDEST JUMPDEST PUSH1 0x20 MUL PUSH1 0x20 ADD ADD MLOAD DUP2 MSTORE POP SWAP1 DUP1 PUSH1 0x1 DUP2 SLOAD ADD DUP1 DUP3 SSTORE DUP1 SWAP2 POP POP PUSH1 0x1 SWAP1 SUB SWAP1 PUSH0 MSTORE PUSH1 0x20 PUSH0 KECCAK256 ADD PUSH0 SWAP1 SWAP2 SWAP1 SWAP2 SWAP1 SWAP2 POP PUSH0 DUP3 ADD MLOAD DUP2 PUSH0 ADD SWAP1 DUP2 PUSH2 0x6BA SWAP2 SWAP1 PUSH2 0x18F4 JUMP JUMPDEST POP POP POP DUP1 DUP1 PUSH1 0x1 ADD SWAP2 POP POP PUSH2 0x64F JUMP JUMPDEST POP PUSH0 DUP2 SWAP1 DUP1 PUSH1 0x1 DUP2 SLOAD ADD DUP1 DUP3 SSTORE DUP1 SWAP2 POP POP PUSH1 0x1 SWAP1 SUB SWAP1 PUSH0 MSTORE PUSH1 0x20 PUSH0 KECCAK256 SWAP1 PUSH1 0x6 MUL ADD PUSH0 SWAP1 SWAP2 SWAP1 SWAP2 SWAP1 SWAP2 POP PUSH0 DUP3 ADD SLOAD DUP2 PUSH0 ADD SSTORE PUSH1 0x1 DUP3 ADD PUSH0 SWAP1 SLOAD SWAP1 PUSH2 0x100 EXP SWAP1 DIV PUSH20 0xFFFFFFFFFFFFFFFFFFFFFFFFFFFFFFFFFFFFFFFF AND DUP2 PUSH1 0x1 ADD PUSH0 PUSH2 0x100 EXP DUP2 SLOAD DUP2 PUSH20 0xFFFFFFFFFFFFFFFFFFFFFFFFFFFFFFFFFFFFFFFF MUL NOT AND SWAP1 DUP4 PUSH20 0xFFFFFFFFFFFFFFFFFFFFFFFFFFFFFFFFFFFFFFFF AND MUL OR SWAP1 SSTORE POP PUSH1 0x2 DUP3 ADD SLOAD DUP2 PUSH1 0x2 ADD SSTORE PUSH1 0x3 DUP3 ADD PUSH0 SWAP1 SLOAD SWAP1 PUSH2 0x100 EXP SWAP1 DIV PUSH1 0xFF AND DUP2 PUSH1 0x3 ADD PUSH0 PUSH2 0x100 EXP DUP2 SLOAD DUP2 PUSH1 0xFF MUL NOT AND SWAP1 DUP4 ISZERO ISZERO MUL OR SWAP1 SSTORE POP PUSH1 0x3 DUP3 ADD PUSH1 0x1 SWAP1 SLOAD SWAP1 PUSH2 0x100 EXP SWAP1 DIV PUSH20 0xFFFFFFFFFFFFFFFFFFFFFFFFFFFFFFFFFFFFFFFF AND DUP2 PUSH1 0x3 ADD PUSH1 0x1 PUSH2 0x100 EXP DUP2 SLOAD DUP2 PUSH20 0xFFFFFFFFFFFFFFFFFFFFFFFFFFFFFFFFFFFFFFFF MUL NOT AND SWAP1 DUP4 PUSH20 0xFFFFFFFFFFFFFFFFFFFFFFFFFFFFFFFFFFFFFFFF AND MUL OR SWAP1 SSTORE POP PUSH1 0x4 DUP3 ADD SLOAD DUP2 PUSH1 0x4 ADD SSTORE PUSH1 0x5 DUP3 ADD DUP2 PUSH1 0x5 ADD SWAP1 DUP1 SLOAD PUSH2 0x81C SWAP3 SWAP2 SWAP1 PUSH2 0xD1B JUMP JUMPDEST POP POP POP PUSH1 0x2 PUSH0 CALLER PUSH20 0xFFFFFFFFFFFFFFFFFFFFFFFFFFFFFFFFFFFFFFFF AND PUSH20 0xFFFFFFFFFFFFFFFFFFFFFFFFFFFFFFFFFFFFFFFF AND DUP2 MSTORE PUSH1 0x20 ADD SWAP1 DUP2 MSTORE PUSH1 0x20 ADD PUSH0 KECCAK256 DUP3 SWAP1 DUP1 PUSH1 0x1 DUP2 SLOAD ADD DUP1 DUP3 SSTORE DUP1 SWAP2 POP POP PUSH1 0x1 SWAP1 SUB SWAP1 PUSH0 MSTORE PUSH1 0x20 PUSH0 KECCAK256 ADD PUSH0 SWAP1 SWAP2 SWAP1 SWAP2 SWAP1 SWAP2 POP SSTORE PUSH1 0x1 PUSH0 DUP2 SLOAD DUP1 SWAP3 SWAP2 SWAP1 PUSH2 0x892 SWAP1 PUSH2 0x19C3 JUMP JUMPDEST SWAP2 SWAP1 POP SSTORE POP CALLER PUSH20 0xFFFFFFFFFFFFFFFFFFFFFFFFFFFFFFFFFFFFFFFF AND DUP3 PUSH32 0x7419087B84863B9247A8C31C3A72BE5D66788987EFDD825E3CE76975DF572E09 PUSH1 0x40 MLOAD PUSH1 0x40 MLOAD DUP1 SWAP2 SUB SWAP1 LOG3 POP POP POP JUMP JUMPDEST PUSH0 DUP2 MLOAD GT PUSH2 0x923 JUMPI PUSH1 0x40 MLOAD PUSH32 0x8C379A000000000000000000000000000000000000000000000000000000000 DUP2 MSTORE PUSH1 0x4 ADD PUSH2 0x91A SWAP1 PUSH2 0x16AC JUMP JUMPDEST PUSH1 0x40 MLOAD DUP1 SWAP2 SUB SWAP1 REVERT JUMPDEST PUSH0 PUSH1 0x3 PUSH0 DUP5 DUP2 MSTORE PUSH1 0x20 ADD SWAP1 DUP2 MSTORE PUSH1 0x20 ADD PUSH0 KECCAK256 SWAP1 POP PUSH0 ISZERO ISZERO DUP2 PUSH1 0x3 ADD PUSH0 SWAP1 SLOAD SWAP1 PUSH2 0x100 EXP SWAP1 DIV PUSH1 0xFF AND ISZERO ISZERO EQ PUSH2 0x98D JUMPI PUSH1 0x40 MLOAD PUSH32 0x8C379A000000000000000000000000000000000000000000000000000000000 DUP2 MSTORE PUSH1 0x4 ADD PUSH2 0x984 SWAP1 PUSH2 0x1A54 JUMP JUMPDEST PUSH1 0x40 MLOAD DUP1 SWAP2 SUB SWAP1 REVERT JUMPDEST PUSH0 JUMPDEST DUP3 MLOAD DUP2 LT ISZERO PUSH2 0xA0A JUMPI DUP2 PUSH1 0x5 ADD PUSH1 0x40 MLOAD DUP1 PUSH1 0x20 ADD PUSH1 0x40 MSTORE DUP1 DUP6 DUP5 DUP2 MLOAD DUP2 LT PUSH2 0x9BA JUMPI PUSH2 0x9B9 PUSH2 0x172A JUMP JUMPDEST JUMPDEST PUSH1 0x20 MUL PUSH1 0x20 ADD ADD MLOAD DUP2 MSTORE POP SWAP1 DUP1 PUSH1 0x1 DUP2 SLOAD ADD DUP1 DUP3 SSTORE DUP1 SWAP2 POP POP PUSH1 0x1 SWAP1 SUB SWAP1 PUSH0 MSTORE PUSH1 0x20 PUSH0 KECCAK256 ADD PUSH0 SWAP1 SWAP2 SWAP1 SWAP2 SWAP1 SWAP2 POP PUSH0 DUP3 ADD MLOAD DUP2 PUSH0 ADD SWAP1 DUP2 PUSH2 0x9FA SWAP2 SWAP1 PUSH2 0x18F4 JUMP JUMPDEST POP POP POP DUP1 DUP1 PUSH1 0x1 ADD SWAP2 POP POP PUSH2 0x98F JUMP JUMPDEST POP PUSH1 0x1 DUP2 PUSH1 0x3 ADD PUSH0 PUSH2 0x100 EXP DUP2 SLOAD DUP2 PUSH1 0xFF MUL NOT AND SWAP1 DUP4 ISZERO ISZERO MUL OR SWAP1 SSTORE POP CALLER DUP2 PUSH1 0x3 ADD PUSH1 0x1 PUSH2 0x100 EXP DUP2 SLOAD DUP2 PUSH20 0xFFFFFFFFFFFFFFFFFFFFFFFFFFFFFFFFFFFFFFFF MUL NOT AND SWAP1 DUP4 PUSH20 0xFFFFFFFFFFFFFFFFFFFFFFFFFFFFFFFFFFFFFFFF AND MUL OR SWAP1 SSTORE POP TIMESTAMP DUP2 PUSH1 0x4 ADD DUP2 SWAP1 SSTORE POP PUSH0 PUSH1 0x1 DUP5 PUSH2 0xA81 SWAP2 SWAP1 PUSH2 0x1A72 JUMP JUMPDEST SWAP1 POP DUP2 PUSH0 DUP3 DUP2 SLOAD DUP2 LT PUSH2 0xA97 JUMPI PUSH2 0xA96 PUSH2 0x172A JUMP JUMPDEST JUMPDEST SWAP1 PUSH0 MSTORE PUSH1 0x20 PUSH0 KECCAK256 SWAP1 PUSH1 0x6 MUL ADD PUSH0 DUP3 ADD SLOAD DUP2 PUSH0 ADD SSTORE PUSH1 0x1 DUP3 ADD PUSH0 SWAP1 SLOAD SWAP1 PUSH2 0x100 EXP SWAP1 DIV PUSH20 0xFFFFFFFFFFFFFFFFFFFFFFFFFFFFFFFFFFFFFFFF AND DUP2 PUSH1 0x1 ADD PUSH0 PUSH2 0x100 EXP DUP2 SLOAD DUP2 PUSH20 0xFFFFFFFFFFFFFFFFFFFFFFFFFFFFFFFFFFFFFFFF MUL NOT AND SWAP1 DUP4 PUSH20 0xFFFFFFFFFFFFFFFFFFFFFFFFFFFFFFFFFFFFFFFF AND MUL OR SWAP1 SSTORE POP PUSH1 0x2 DUP3 ADD SLOAD DUP2 PUSH1 0x2 ADD SSTORE PUSH1 0x3 DUP3 ADD PUSH0 SWAP1 SLOAD SWAP1 PUSH2 0x100 EXP SWAP1 DIV PUSH1 0xFF AND DUP2 PUSH1 0x3 ADD PUSH0 PUSH2 0x100 EXP DUP2 SLOAD DUP2 PUSH1 0xFF MUL NOT AND SWAP1 DUP4 ISZERO ISZERO MUL OR SWAP1 SSTORE POP PUSH1 0x3 DUP3 ADD PUSH1 0x1 SWAP1 SLOAD SWAP1 PUSH2 0x100 EXP SWAP1 DIV PUSH20 0xFFFFFFFFFFFFFFFFFFFFFFFFFFFFFFFFFFFFFFFF AND DUP2 PUSH1 0x3 ADD PUSH1 0x1 PUSH2 0x100 EXP DUP2 SLOAD DUP2 PUSH20 0xFFFFFFFFFFFFFFFFFFFFFFFFFFFFFFFFFFFFFFFF MUL NOT AND SWAP1 DUP4 PUSH20 0xFFFFFFFFFFFFFFFFFFFFFFFFFFFFFFFFFFFFFFFF AND MUL OR SWAP1 SSTORE POP PUSH1 0x4 DUP3 ADD SLOAD DUP2 PUSH1 0x4 ADD SSTORE PUSH1 0x5 DUP3 ADD DUP2 PUSH1 0x5 ADD SWAP1 DUP1 SLOAD PUSH2 0xBCC SWAP3 SWAP2 SWAP1 PUSH2 0xD1B JUMP JUMPDEST POP SWAP1 POP POP CALLER PUSH20 0xFFFFFFFFFFFFFFFFFFFFFFFFFFFFFFFFFFFFFFFF AND DUP5 PUSH32 0x7F078C6460907C6DD14039D55EEC592B282687310DE4F597F33D141276A33498 PUSH1 0x40 MLOAD PUSH1 0x40 MLOAD DUP1 SWAP2 SUB SWAP1 LOG3 POP POP POP POP JUMP JUMPDEST PUSH1 0x60 PUSH1 0x3 PUSH0 DUP4 DUP2 MSTORE PUSH1 0x20 ADD SWAP1 DUP2 MSTORE PUSH1 0x20 ADD PUSH0 KECCAK256 PUSH1 0x5 ADD DUP1 SLOAD DUP1 PUSH1 0x20 MUL PUSH1 0x20 ADD PUSH1 0x40 MLOAD SWAP1 DUP2 ADD PUSH1 0x40 MSTORE DUP1 SWAP3 SWAP2 SWAP1 DUP2 DUP2 MSTORE PUSH1 0x20 ADD PUSH0 SWAP1 JUMPDEST DUP3 DUP3 LT ISZERO PUSH2 0xD0A JUMPI DUP4 DUP3 SWAP1 PUSH0 MSTORE PUSH1 0x20 PUSH0 KECCAK256 ADD PUSH1 0x40 MLOAD DUP1 PUSH1 0x20 ADD PUSH1 0x40 MSTORE SWAP1 DUP2 PUSH0 DUP3 ADD DUP1 SLOAD PUSH2 0xC7B SWAP1 PUSH2 0x1622 JUMP JUMPDEST DUP1 PUSH1 0x1F ADD PUSH1 0x20 DUP1 SWAP2 DIV MUL PUSH1 0x20 ADD PUSH1 0x40 MLOAD SWAP1 DUP2 ADD PUSH1 0x40 MSTORE DUP1 SWAP3 SWAP2 SWAP1 DUP2 DUP2 MSTORE PUSH1 0x20 ADD DUP3 DUP1 SLOAD PUSH2 0xCA7 SWAP1 PUSH2 0x1622 JUMP JUMPDEST DUP1 ISZERO PUSH2 0xCF2 JUMPI DUP1 PUSH1 0x1F LT PUSH2 0xCC9 JUMPI PUSH2 0x100 DUP1 DUP4 SLOAD DIV MUL DUP4 MSTORE SWAP2 PUSH1 0x20 ADD SWAP2 PUSH2 0xCF2 JUMP JUMPDEST DUP3 ADD SWAP2 SWAP1 PUSH0 MSTORE PUSH1 0x20 PUSH0 KECCAK256 SWAP1 JUMPDEST DUP2 SLOAD DUP2 MSTORE SWAP1 PUSH1 0x1 ADD SWAP1 PUSH1 0x20 ADD DUP1 DUP4 GT PUSH2 0xCD5 JUMPI DUP3 SWAP1 SUB PUSH1 0x1F AND DUP3 ADD SWAP2 JUMPDEST POP POP POP POP POP DUP2 MSTORE POP POP DUP2 MSTORE PUSH1 0x20 ADD SWAP1 PUSH1 0x1 ADD SWAP1 PUSH2 0xC4F JUMP JUMPDEST POP POP POP POP SWAP1 POP SWAP2 SWAP1 POP JUMP JUMPDEST PUSH1 0x1 SLOAD DUP2 JUMP JUMPDEST DUP3 DUP1 SLOAD DUP3 DUP3 SSTORE SWAP1 PUSH0 MSTORE PUSH1 0x20 PUSH0 KECCAK256 SWAP1 DUP2 ADD SWAP3 DUP3 ISZERO PUSH2 0xD6B JUMPI PUSH0 MSTORE PUSH1 0x20 PUSH0 KECCAK256 SWAP2 DUP3 ADD JUMPDEST DUP3 DUP2 GT ISZERO PUSH2 0xD6A JUMPI DUP3 DUP3 PUSH0 DUP3 ADD DUP2 PUSH0 ADD SWAP1 DUP2 PUSH2 0xD58 SWAP2 SWAP1 PUSH2 0x1ABA JUMP JUMPDEST POP POP POP SWAP2 PUSH1 0x1 ADD SWAP2 SWAP1 PUSH1 0x1 ADD SWAP1 PUSH2 0xD3C JUMP JUMPDEST JUMPDEST POP SWAP1 POP PUSH2 0xD78 SWAP2 SWAP1 PUSH2 0xD7C JUMP JUMPDEST POP SWAP1 JUMP JUMPDEST JUMPDEST DUP1 DUP3 GT ISZERO PUSH2 0xD9D JUMPI PUSH0 DUP1 DUP3 ADD PUSH0 PUSH2 0xD94 SWAP2 SWAP1 PUSH2 0xDA1 JUMP JUMPDEST POP PUSH1 0x1 ADD PUSH2 0xD7D JUMP JUMPDEST POP SWAP1 JUMP JUMPDEST POP DUP1 SLOAD PUSH2 0xDAD SWAP1 PUSH2 0x1622 JUMP JUMPDEST PUSH0 DUP3 SSTORE DUP1 PUSH1 0x1F LT PUSH2 0xDBE JUMPI POP PUSH2 0xDDB JUMP JUMPDEST PUSH1 0x1F ADD PUSH1 0x20 SWAP1 DIV SWAP1 PUSH0 MSTORE PUSH1 0x20 PUSH0 KECCAK256 SWAP1 DUP2 ADD SWAP1 PUSH2 0xDDA SWAP2 SWAP1 PUSH2 0xDDE JUMP JUMPDEST JUMPDEST POP JUMP JUMPDEST JUMPDEST DUP1 DUP3 GT ISZERO PUSH2 0xDF5 JUMPI PUSH0 DUP2 PUSH0 SWAP1 SSTORE POP PUSH1 0x1 ADD PUSH2 0xDDF JUMP JUMPDEST POP SWAP1 JUMP JUMPDEST PUSH0 PUSH1 0x40 MLOAD SWAP1 POP SWAP1 JUMP JUMPDEST PUSH0 DUP1 REVERT JUMPDEST PUSH0 DUP1 REVERT JUMPDEST PUSH0 DUP2 SWAP1 POP SWAP2 SWAP1 POP JUMP JUMPDEST PUSH2 0xE1C DUP2 PUSH2 0xE0A JUMP JUMPDEST DUP2 EQ PUSH2 0xE26 JUMPI PUSH0 DUP1 REVERT JUMPDEST POP JUMP JUMPDEST PUSH0 DUP2 CALLDATALOAD SWAP1 POP PUSH2 0xE37 DUP2 PUSH2 0xE13 JUMP JUMPDEST SWAP3 SWAP2 POP POP JUMP JUMPDEST PUSH0 PUSH1 0x20 DUP3 DUP5 SUB SLT ISZERO PUSH2 0xE52 JUMPI PUSH2 0xE51 PUSH2 0xE02 JUMP JUMPDEST JUMPDEST PUSH0 PUSH2 0xE5F DUP5 DUP3 DUP6 ADD PUSH2 0xE29 JUMP JUMPDEST SWAP2 POP POP SWAP3 SWAP2 POP POP JUMP JUMPDEST PUSH2 0xE71 DUP2 PUSH2 0xE0A JUMP JUMPDEST DUP3 MSTORE POP POP JUMP JUMPDEST PUSH0 PUSH20 0xFFFFFFFFFFFFFFFFFFFFFFFFFFFFFFFFFFFFFFFF DUP3 AND SWAP1 POP SWAP2 SWAP1 POP JUMP JUMPDEST PUSH0 PUSH2 0xEA0 DUP3 PUSH2 0xE77 JUMP JUMPDEST SWAP1 POP SWAP2 SWAP1 POP JUMP JUMPDEST PUSH2 0xEB0 DUP2 PUSH2 0xE96 JUMP JUMPDEST DUP3 MSTORE POP POP JUMP JUMPDEST PUSH0 DUP2 ISZERO ISZERO SWAP1 POP SWAP2 SWAP1 POP JUMP JUMPDEST PUSH2 0xECA DUP2 PUSH2 0xEB6 JUMP JUMPDEST DUP3 MSTORE POP POP JUMP JUMPDEST PUSH0 PUSH1 0xC0 DUP3 ADD SWAP1 POP PUSH2 0xEE3 PUSH0 DUP4 ADD DUP10 PUSH2 0xE68 JUMP JUMPDEST PUSH2 0xEF0 PUSH1 0x20 DUP4 ADD DUP9 PUSH2 0xEA7 JUMP JUMPDEST PUSH2 0xEFD PUSH1 0x40 DUP4 ADD DUP8 PUSH2 0xE68 JUMP JUMPDEST PUSH2 0xF0A PUSH1 0x60 DUP4 ADD DUP7 PUSH2 0xEC1 JUMP JUMPDEST PUSH2 0xF17 PUSH1 0x80 DUP4 ADD DUP6 PUSH2 0xEA7 JUMP JUMPDEST PUSH2 0xF24 PUSH1 0xA0 DUP4 ADD DUP5 PUSH2 0xE68 JUMP JUMPDEST SWAP8 SWAP7 POP POP POP POP POP POP POP JUMP JUMPDEST PUSH2 0xF38 DUP2 PUSH2 0xE96 JUMP JUMPDEST DUP2 EQ PUSH2 0xF42 JUMPI PUSH0 DUP1 REVERT JUMPDEST POP JUMP JUMPDEST PUSH0 DUP2 CALLDATALOAD SWAP1 POP PUSH2 0xF53 DUP2 PUSH2 0xF2F JUMP JUMPDEST SWAP3 SWAP2 POP POP JUMP JUMPDEST PUSH0 DUP1 PUSH1 0x40 DUP4 DUP6 SUB SLT ISZERO PUSH2 0xF6F JUMPI PUSH2 0xF6E PUSH2 0xE02 JUMP JUMPDEST JUMPDEST PUSH0 PUSH2 0xF7C DUP6 DUP3 DUP7 ADD PUSH2 0xF45 JUMP JUMPDEST SWAP3 POP POP PUSH1 0x20 PUSH2 0xF8D DUP6 DUP3 DUP7 ADD PUSH2 0xE29 JUMP JUMPDEST SWAP2 POP POP SWAP3 POP SWAP3 SWAP1 POP JUMP JUMPDEST PUSH0 PUSH1 0x20 DUP3 ADD SWAP1 POP PUSH2 0xFAA PUSH0 DUP4 ADD DUP5 PUSH2 0xE68 JUMP JUMPDEST SWAP3 SWAP2 POP POP JUMP JUMPDEST PUSH0 DUP2 MLOAD SWAP1 POP SWAP2 SWAP1 POP JUMP JUMPDEST PUSH0 DUP3 DUP3 MSTORE PUSH1 0x20 DUP3 ADD SWAP1 POP SWAP3 SWAP2 POP POP JUMP JUMPDEST PUSH0 DUP2 SWAP1 POP PUSH1 0x20 DUP3 ADD SWAP1 POP SWAP2 SWAP1 POP JUMP JUMPDEST PUSH2 0xFE2 DUP2 PUSH2 0xE0A JUMP JUMPDEST DUP3 MSTORE POP POP JUMP JUMPDEST PUSH2 0xFF1 DUP2 PUSH2 0xE96 JUMP JUMPDEST DUP3 MSTORE POP POP JUMP JUMPDEST PUSH2 0x1000 DUP2 PUSH2 0xEB6 JUMP JUMPDEST DUP3 MSTORE POP POP JUMP JUMPDEST PUSH0 DUP2 MLOAD SWAP1 POP SWAP2 SWAP1 POP JUMP JUMPDEST PUSH0 DUP3 DUP3 MSTORE PUSH1 0x20 DUP3 ADD SWAP1 POP SWAP3 SWAP2 POP POP JUMP JUMPDEST PUSH0 DUP2 SWAP1 POP PUSH1 0x20 DUP3 ADD SWAP1 POP SWAP2 SWAP1 POP JUMP JUMPDEST PUSH0 DUP2 MLOAD SWAP1 POP SWAP2 SWAP1 POP JUMP JUMPDEST PUSH0 DUP3 DUP3 MSTORE PUSH1 0x20 DUP3 ADD SWAP1 POP SWAP3 SWAP2 POP POP JUMP JUMPDEST DUP3 DUP2 DUP4 MCOPY PUSH0 DUP4 DUP4 ADD MSTORE POP POP POP JUMP JUMPDEST PUSH0 PUSH1 0x1F NOT PUSH1 0x1F DUP4 ADD AND SWAP1 POP SWAP2 SWAP1 POP JUMP JUMPDEST PUSH0 PUSH2 0x1071 DUP3 PUSH2 0x102F JUMP JUMPDEST PUSH2 0x107B DUP2 DUP6 PUSH2 0x1039 JUMP JUMPDEST SWAP4 POP PUSH2 0x108B DUP2 DUP6 PUSH1 0x20 DUP7 ADD PUSH2 0x1049 JUMP JUMPDEST PUSH2 0x1094 DUP2 PUSH2 0x1057 JUMP JUMPDEST DUP5 ADD SWAP2 POP POP SWAP3 SWAP2 POP POP JUMP JUMPDEST PUSH0 PUSH1 0x20 DUP4 ADD PUSH0 DUP4 ADD MLOAD DUP5 DUP3 SUB PUSH0 DUP7 ADD MSTORE PUSH2 0x10B9 DUP3 DUP3 PUSH2 0x1067 JUMP JUMPDEST SWAP2 POP POP DUP1 SWAP2 POP POP SWAP3 SWAP2 POP POP JUMP JUMPDEST PUSH0 PUSH2 0x10D1 DUP4 DUP4 PUSH2 0x109F JUMP JUMPDEST SWAP1 POP SWAP3 SWAP2 POP POP JUMP JUMPDEST PUSH0 PUSH1 0x20 DUP3 ADD SWAP1 POP SWAP2 SWAP1 POP JUMP JUMPDEST PUSH0 PUSH2 0x10EF DUP3 PUSH2 0x1006 JUMP JUMPDEST PUSH2 0x10F9 DUP2 DUP6 PUSH2 0x1010 JUMP JUMPDEST SWAP4 POP DUP4 PUSH1 0x20 DUP3 MUL DUP6 ADD PUSH2 0x110B DUP6 PUSH2 0x1020 JUMP JUMPDEST DUP1 PUSH0 JUMPDEST DUP6 DUP2 LT ISZERO PUSH2 0x1146 JUMPI DUP5 DUP5 SUB DUP10 MSTORE DUP2 MLOAD PUSH2 0x1127 DUP6 DUP3 PUSH2 0x10C6 JUMP JUMPDEST SWAP5 POP PUSH2 0x1132 DUP4 PUSH2 0x10D9 JUMP JUMPDEST SWAP3 POP PUSH1 0x20 DUP11 ADD SWAP10 POP POP PUSH1 0x1 DUP2 ADD SWAP1 POP PUSH2 0x110E JUMP JUMPDEST POP DUP3 SWAP8 POP DUP8 SWAP6 POP POP POP POP POP POP SWAP3 SWAP2 POP POP JUMP JUMPDEST PUSH0 PUSH1 0xE0 DUP4 ADD PUSH0 DUP4 ADD MLOAD PUSH2 0x116D PUSH0 DUP7 ADD DUP3 PUSH2 0xFD9 JUMP JUMPDEST POP PUSH1 0x20 DUP4 ADD MLOAD PUSH2 0x1180 PUSH1 0x20 DUP7 ADD DUP3 PUSH2 0xFE8 JUMP JUMPDEST POP PUSH1 0x40 DUP4 ADD MLOAD PUSH2 0x1193 PUSH1 0x40 DUP7 ADD DUP3 PUSH2 0xFD9 JUMP JUMPDEST POP PUSH1 0x60 DUP4 ADD MLOAD PUSH2 0x11A6 PUSH1 0x60 DUP7 ADD DUP3 PUSH2 0xFF7 JUMP JUMPDEST POP PUSH1 0x80 DUP4 ADD MLOAD PUSH2 0x11B9 PUSH1 0x80 DUP7 ADD DUP3 PUSH2 0xFE8 JUMP JUMPDEST POP PUSH1 0xA0 DUP4 ADD MLOAD PUSH2 0x11CC PUSH1 0xA0 DUP7 ADD DUP3 PUSH2 0xFD9 JUMP JUMPDEST POP PUSH1 0xC0 DUP4 ADD MLOAD DUP5 DUP3 SUB PUSH1 0xC0 DUP7 ADD MSTORE PUSH2 0x11E4 DUP3 DUP3 PUSH2 0x10E5 JUMP JUMPDEST SWAP2 POP POP DUP1 SWAP2 POP POP SWAP3 SWAP2 POP POP JUMP JUMPDEST PUSH0 PUSH2 0x11FC DUP4 DUP4 PUSH2 0x1158 JUMP JUMPDEST SWAP1 POP SWAP3 SWAP2 POP POP JUMP JUMPDEST PUSH0 PUSH1 0x20 DUP3 ADD SWAP1 POP SWAP2 SWAP1 POP JUMP JUMPDEST PUSH0 PUSH2 0x121A DUP3 PUSH2 0xFB0 JUMP JUMPDEST PUSH2 0x1224 DUP2 DUP6 PUSH2 0xFBA JUMP JUMPDEST SWAP4 POP DUP4 PUSH1 0x20 DUP3 MUL DUP6 ADD PUSH2 0x1236 DUP6 PUSH2 0xFCA JUMP JUMPDEST DUP1 PUSH0 JUMPDEST DUP6 DUP2 LT ISZERO PUSH2 0x1271 JUMPI DUP5 DUP5 SUB DUP10 MSTORE DUP2 MLOAD PUSH2 0x1252 DUP6 DUP3 PUSH2 0x11F1 JUMP JUMPDEST SWAP5 POP PUSH2 0x125D DUP4 PUSH2 0x1204 JUMP JUMPDEST SWAP3 POP PUSH1 0x20 DUP11 ADD SWAP10 POP POP PUSH1 0x1 DUP2 ADD SWAP1 POP PUSH2 0x1239 JUMP JUMPDEST POP DUP3 SWAP8 POP DUP8 SWAP6 POP POP POP POP POP POP SWAP3 SWAP2 POP POP JUMP JUMPDEST PUSH0 PUSH1 0x20 DUP3 ADD SWAP1 POP DUP2 DUP2 SUB PUSH0 DUP4 ADD MSTORE PUSH2 0x129B DUP2 DUP5 PUSH2 0x1210 JUMP JUMPDEST SWAP1 POP SWAP3 SWAP2 POP POP JUMP JUMPDEST PUSH0 DUP1 REVERT JUMPDEST PUSH32 0x4E487B7100000000000000000000000000000000000000000000000000000000 PUSH0 MSTORE PUSH1 0x41 PUSH1 0x4 MSTORE PUSH1 0x24 PUSH0 REVERT JUMPDEST PUSH2 0x12DD DUP3 PUSH2 0x1057 JUMP JUMPDEST DUP2 ADD DUP2 DUP2 LT PUSH8 0xFFFFFFFFFFFFFFFF DUP3 GT OR ISZERO PUSH2 0x12FC JUMPI PUSH2 0x12FB PUSH2 0x12A7 JUMP JUMPDEST JUMPDEST DUP1 PUSH1 0x40 MSTORE POP POP POP JUMP JUMPDEST PUSH0 PUSH2 0x130E PUSH2 0xDF9 JUMP JUMPDEST SWAP1 POP PUSH2 0x131A DUP3 DUP3 PUSH2 0x12D4 JUMP JUMPDEST SWAP2 SWAP1 POP JUMP JUMPDEST PUSH0 PUSH8 0xFFFFFFFFFFFFFFFF DUP3 GT ISZERO PUSH2 0x1339 JUMPI PUSH2 0x1338 PUSH2 0x12A7 JUMP JUMPDEST JUMPDEST PUSH1 0x20 DUP3 MUL SWAP1 POP PUSH1 0x20 DUP2 ADD SWAP1 POP SWAP2 SWAP1 POP JUMP JUMPDEST PUSH0 DUP1 REVERT JUMPDEST PUSH0 DUP1 REVERT JUMPDEST PUSH0 PUSH8 0xFFFFFFFFFFFFFFFF DUP3 GT ISZERO PUSH2 0x136C JUMPI PUSH2 0x136B PUSH2 0x12A7 JUMP JUMPDEST JUMPDEST PUSH2 0x1375 DUP3 PUSH2 0x1057 JUMP JUMPDEST SWAP1 POP PUSH1 0x20 DUP2 ADD SWAP1 POP SWAP2 SWAP1 POP JUMP JUMPDEST DUP3 DUP2 DUP4 CALLDATACOPY PUSH0 DUP4 DUP4 ADD MSTORE POP POP POP JUMP JUMPDEST PUSH0 PUSH2 0x13A2 PUSH2 0x139D DUP5 PUSH2 0x1352 JUMP JUMPDEST PUSH2 0x1305 JUMP JUMPDEST SWAP1 POP DUP3 DUP2 MSTORE PUSH1 0x20 DUP2 ADD DUP5 DUP5 DUP5 ADD GT ISZERO PUSH2 0x13BE JUMPI PUSH2 0x13BD PUSH2 0x134E JUMP JUMPDEST JUMPDEST PUSH2 0x13C9 DUP5 DUP3 DUP6 PUSH2 0x1382 JUMP JUMPDEST POP SWAP4 SWAP3 POP POP POP JUMP JUMPDEST PUSH0 DUP3 PUSH1 0x1F DUP4 ADD SLT PUSH2 0x13E5 JUMPI PUSH2 0x13E4 PUSH2 0x12A3 JUMP JUMPDEST JUMPDEST DUP2 CALLDATALOAD PUSH2 0x13F5 DUP5 DUP3 PUSH1 0x20 DUP7 ADD PUSH2 0x1390 JUMP JUMPDEST SWAP2 POP POP SWAP3 SWAP2 POP POP JUMP JUMPDEST PUSH0 PUSH2 0x1410 PUSH2 0x140B DUP5 PUSH2 0x131F JUMP JUMPDEST PUSH2 0x1305 JUMP JUMPDEST SWAP1 POP DUP1 DUP4 DUP3 MSTORE PUSH1 0x20 DUP3 ADD SWAP1 POP PUSH1 0x20 DUP5 MUL DUP4 ADD DUP6 DUP2 GT ISZERO PUSH2 0x1433 JUMPI PUSH2 0x1432 PUSH2 0x134A JUMP JUMPDEST JUMPDEST DUP4 JUMPDEST DUP2 DUP2 LT ISZERO PUSH2 0x147A JUMPI DUP1 CALLDATALOAD PUSH8 0xFFFFFFFFFFFFFFFF DUP2 GT ISZERO PUSH2 0x1458 JUMPI PUSH2 0x1457 PUSH2 0x12A3 JUMP JUMPDEST JUMPDEST DUP1 DUP7 ADD PUSH2 0x1465 DUP10 DUP3 PUSH2 0x13D1 JUMP JUMPDEST DUP6 MSTORE PUSH1 0x20 DUP6 ADD SWAP5 POP POP POP PUSH1 0x20 DUP2 ADD SWAP1 POP PUSH2 0x1435 JUMP JUMPDEST POP POP POP SWAP4 SWAP3 POP POP POP JUMP JUMPDEST PUSH0 DUP3 PUSH1 0x1F DUP4 ADD SLT PUSH2 0x1498 JUMPI PUSH2 0x1497 PUSH2 0x12A3 JUMP JUMPDEST JUMPDEST DUP2 CALLDATALOAD PUSH2 0x14A8 DUP5 DUP3 PUSH1 0x20 DUP7 ADD PUSH2 0x13FE JUMP JUMPDEST SWAP2 POP POP SWAP3 SWAP2 POP POP JUMP JUMPDEST PUSH0 PUSH1 0x20 DUP3 DUP5 SUB SLT ISZERO PUSH2 0x14C6 JUMPI PUSH2 0x14C5 PUSH2 0xE02 JUMP JUMPDEST JUMPDEST PUSH0 DUP3 ADD CALLDATALOAD PUSH8 0xFFFFFFFFFFFFFFFF DUP2 GT ISZERO PUSH2 0x14E3 JUMPI PUSH2 0x14E2 PUSH2 0xE06 JUMP JUMPDEST JUMPDEST PUSH2 0x14EF DUP5 DUP3 DUP6 ADD PUSH2 0x1484 JUMP JUMPDEST SWAP2 POP POP SWAP3 SWAP2 POP POP JUMP JUMPDEST PUSH0 DUP1 PUSH1 0x40 DUP4 DUP6 SUB SLT ISZERO PUSH2 0x150E JUMPI PUSH2 0x150D PUSH2 0xE02 JUMP JUMPDEST JUMPDEST PUSH0 PUSH2 0x151B DUP6 DUP3 DUP7 ADD PUSH2 0xE29 JUMP JUMPDEST SWAP3 POP POP PUSH1 0x20 DUP4 ADD CALLDATALOAD PUSH8 0xFFFFFFFFFFFFFFFF DUP2 GT ISZERO PUSH2 0x153C JUMPI PUSH2 0x153B PUSH2 0xE06 JUMP JUMPDEST JUMPDEST PUSH2 0x1548 DUP6 DUP3 DUP7 ADD PUSH2 0x1484 JUMP JUMPDEST SWAP2 POP POP SWAP3 POP SWAP3 SWAP1 POP JUMP JUMPDEST PUSH0 DUP3 DUP3 MSTORE PUSH1 0x20 DUP3 ADD SWAP1 POP SWAP3 SWAP2 POP POP JUMP JUMPDEST PUSH0 PUSH2 0x156C DUP3 PUSH2 0x1006 JUMP JUMPDEST PUSH2 0x1576 DUP2 DUP6 PUSH2 0x1552 JUMP JUMPDEST SWAP4 POP DUP4 PUSH1 0x20 DUP3 MUL DUP6 ADD PUSH2 0x1588 DUP6 PUSH2 0x1020 JUMP JUMPDEST DUP1 PUSH0 JUMPDEST DUP6 DUP2 LT ISZERO PUSH2 0x15C3 JUMPI DUP5 DUP5 SUB DUP10 MSTORE DUP2 MLOAD PUSH2 0x15A4 DUP6 DUP3 PUSH2 0x10C6 JUMP JUMPDEST SWAP5 POP PUSH2 0x15AF DUP4 PUSH2 0x10D9 JUMP JUMPDEST SWAP3 POP PUSH1 0x20 DUP11 ADD SWAP10 POP POP PUSH1 0x1 DUP2 ADD SWAP1 POP PUSH2 0x158B JUMP JUMPDEST POP DUP3 SWAP8 POP DUP8 SWAP6 POP POP POP POP POP POP SWAP3 SWAP2 POP POP JUMP JUMPDEST PUSH0 PUSH1 0x20 DUP3 ADD SWAP1 POP DUP2 DUP2 SUB PUSH0 DUP4 ADD MSTORE PUSH2 0x15ED DUP2 DUP5 PUSH2 0x1562 JUMP JUMPDEST SWAP1 POP SWAP3 SWAP2 POP POP JUMP JUMPDEST PUSH32 0x4E487B7100000000000000000000000000000000000000000000000000000000 PUSH0 MSTORE PUSH1 0x22 PUSH1 0x4 MSTORE PUSH1 0x24 PUSH0 REVERT JUMPDEST PUSH0 PUSH1 0x2 DUP3 DIV SWAP1 POP PUSH1 0x1 DUP3 AND DUP1 PUSH2 0x1639 JUMPI PUSH1 0x7F DUP3 AND SWAP2 POP JUMPDEST PUSH1 0x20 DUP3 LT DUP2 SUB PUSH2 0x164C JUMPI PUSH2 0x164B PUSH2 0x15F5 JUMP JUMPDEST JUMPDEST POP SWAP2 SWAP1 POP JUMP JUMPDEST PUSH0 DUP3 DUP3 MSTORE PUSH1 0x20 DUP3 ADD SWAP1 POP SWAP3 SWAP2 POP POP JUMP JUMPDEST PUSH32 0x426C6F622063616E6E6F7420626520656D707479000000000000000000000000 PUSH0 DUP3 ADD MSTORE POP JUMP JUMPDEST PUSH0 PUSH2 0x1696 PUSH1 0x14 DUP4 PUSH2 0x1652 JUMP JUMPDEST SWAP2 POP PUSH2 0x16A1 DUP3 PUSH2 0x1662 JUMP JUMPDEST PUSH1 0x20 DUP3 ADD SWAP1 POP SWAP2 SWAP1 POP JUMP JUMPDEST PUSH0 PUSH1 0x20 DUP3 ADD SWAP1 POP DUP2 DUP2 SUB PUSH0 DUP4 ADD MSTORE PUSH2 0x16C3 DUP2 PUSH2 0x168A JUMP JUMPDEST SWAP1 POP SWAP2 SWAP1 POP JUMP JUMPDEST PUSH32 0x4E487B7100000000000000000000000000000000000000000000000000000000 PUSH0 MSTORE PUSH1 0x11 PUSH1 0x4 MSTORE PUSH1 0x24 PUSH0 REVERT JUMPDEST PUSH0 PUSH2 0x1701 DUP3 PUSH2 0xE0A JUMP JUMPDEST SWAP2 POP PUSH2 0x170C DUP4 PUSH2 0xE0A JUMP JUMPDEST SWAP3 POP DUP3 DUP3 ADD SWAP1 POP DUP1 DUP3 GT ISZERO PUSH2 0x1724 JUMPI PUSH2 0x1723 PUSH2 0x16CA JUMP JUMPDEST JUMPDEST SWAP3 SWAP2 POP POP JUMP JUMPDEST PUSH32 0x4E487B7100000000000000000000000000000000000000000000000000000000 PUSH0 MSTORE PUSH1 0x32 PUSH1 0x4 MSTORE PUSH1 0x24 PUSH0 REVERT JUMPDEST PUSH0 DUP2 SWAP1 POP DUP2 PUSH0 MSTORE PUSH1 0x20 PUSH0 KECCAK256 SWAP1 POP SWAP2 SWAP1 POP JUMP JUMPDEST PUSH0 PUSH1 0x20 PUSH1 0x1F DUP4 ADD DIV SWAP1 POP SWAP2 SWAP1 POP JUMP JUMPDEST PUSH0 DUP3 DUP3 SHL SWAP1 POP SWAP3 SWAP2 POP POP JUMP JUMPDEST PUSH0 PUSH1 0x8 DUP4 MUL PUSH2 0x17B3 PUSH32 0xFFFFFFFFFFFFFFFFFFFFFFFFFFFFFFFFFFFFFFFFFFFFFFFFFFFFFFFFFFFFFFFF DUP3 PUSH2 0x1778 JUMP JUMPDEST PUSH2 0x17BD DUP7 DUP4 PUSH2 0x1778 JUMP JUMPDEST SWAP6 POP DUP1 NOT DUP5 AND SWAP4 POP DUP1 DUP7 AND DUP5 OR SWAP3 POP POP POP SWAP4 SWAP3 POP POP POP JUMP JUMPDEST PUSH0 DUP2 SWAP1 POP SWAP2 SWAP1 POP JUMP JUMPDEST PUSH0 PUSH2 0x17F8 PUSH2 0x17F3 PUSH2 0x17EE DUP5 PUSH2 0xE0A JUMP JUMPDEST PUSH2 0x17D5 JUMP JUMPDEST PUSH2 0xE0A JUMP JUMPDEST SWAP1 POP SWAP2 SWAP1 POP JUMP JUMPDEST PUSH0 DUP2 SWAP1 POP SWAP2 SWAP1 POP JUMP JUMPDEST PUSH2 0x1811 DUP4 PUSH2 0x17DE JUMP JUMPDEST PUSH2 0x1825 PUSH2 0x181D DUP3 PUSH2 0x17FF JUMP JUMPDEST DUP5 DUP5 SLOAD PUSH2 0x1784 JUMP JUMPDEST DUP3 SSTORE POP POP POP POP JUMP JUMPDEST PUSH0 SWAP1 JUMP JUMPDEST PUSH2 0x1839 PUSH2 0x182D JUMP JUMPDEST PUSH2 0x1844 DUP2 DUP5 DUP5 PUSH2 0x1808 JUMP JUMPDEST POP POP POP JUMP JUMPDEST JUMPDEST DUP2 DUP2 LT ISZERO PUSH2 0x1867 JUMPI PUSH2 0x185C PUSH0 DUP3 PUSH2 0x1831 JUMP JUMPDEST PUSH1 0x1 DUP2 ADD SWAP1 POP PUSH2 0x184A JUMP JUMPDEST POP POP JUMP JUMPDEST PUSH1 0x1F DUP3 GT ISZERO PUSH2 0x18AC JUMPI PUSH2 0x187D DUP2 PUSH2 0x1757 JUMP JUMPDEST PUSH2 0x1886 DUP5 PUSH2 0x1769 JUMP JUMPDEST DUP2 ADD PUSH1 0x20 DUP6 LT ISZERO PUSH2 0x1895 JUMPI DUP2 SWAP1 POP JUMPDEST PUSH2 0x18A9 PUSH2 0x18A1 DUP6 PUSH2 0x1769 JUMP JUMPDEST DUP4 ADD DUP3 PUSH2 0x1849 JUMP JUMPDEST POP POP JUMPDEST POP POP POP JUMP JUMPDEST PUSH0 DUP3 DUP3 SHR SWAP1 POP SWAP3 SWAP2 POP POP JUMP JUMPDEST PUSH0 PUSH2 0x18CC PUSH0 NOT DUP5 PUSH1 0x8 MUL PUSH2 0x18B1 JUMP JUMPDEST NOT DUP1 DUP4 AND SWAP2 POP POP SWAP3 SWAP2 POP POP JUMP JUMPDEST PUSH0 PUSH2 0x18E4 DUP4 DUP4 PUSH2 0x18BD JUMP JUMPDEST SWAP2 POP DUP3 PUSH1 0x2 MUL DUP3 OR SWAP1 POP SWAP3 SWAP2 POP POP JUMP JUMPDEST PUSH2 0x18FD DUP3 PUSH2 0x102F JUMP JUMPDEST PUSH8 0xFFFFFFFFFFFFFFFF DUP2 GT ISZERO PUSH2 0x1916 JUMPI PUSH2 0x1915 PUSH2 0x12A7 JUMP JUMPDEST JUMPDEST PUSH2 0x1920 DUP3 SLOAD PUSH2 0x1622 JUMP JUMPDEST PUSH2 0x192B DUP3 DUP3 DUP6 PUSH2 0x186B JUMP JUMPDEST PUSH0 PUSH1 0x20 SWAP1 POP PUSH1 0x1F DUP4 GT PUSH1 0x1 DUP2 EQ PUSH2 0x195C JUMPI PUSH0 DUP5 ISZERO PUSH2 0x194A JUMPI DUP3 DUP8 ADD MLOAD SWAP1 POP JUMPDEST PUSH2 0x1954 DUP6 DUP3 PUSH2 0x18D9 JUMP JUMPDEST DUP7 SSTORE POP PUSH2 0x19BB JUMP JUMPDEST PUSH1 0x1F NOT DUP5 AND PUSH2 0x196A DUP7 PUSH2 0x1757 JUMP JUMPDEST PUSH0 JUMPDEST DUP3 DUP2 LT ISZERO PUSH2 0x1991 JUMPI DUP5 DUP10 ADD MLOAD DUP3 SSTORE PUSH1 0x1 DUP3 ADD SWAP2 POP PUSH1 0x20 DUP6 ADD SWAP5 POP PUSH1 0x20 DUP2 ADD SWAP1 POP PUSH2 0x196C JUMP JUMPDEST DUP7 DUP4 LT ISZERO PUSH2 0x19AE JUMPI DUP5 DUP10 ADD MLOAD PUSH2 0x19AA PUSH1 0x1F DUP10 AND DUP3 PUSH2 0x18BD JUMP JUMPDEST DUP4 SSTORE POP JUMPDEST PUSH1 0x1 PUSH1 0x2 DUP9 MUL ADD DUP9 SSTORE POP POP POP JUMPDEST POP POP POP POP POP POP JUMP JUMPDEST PUSH0 PUSH2 0x19CD DUP3 PUSH2 0xE0A JUMP JUMPDEST SWAP2 POP PUSH32 0xFFFFFFFFFFFFFFFFFFFFFFFFFFFFFFFFFFFFFFFFFFFFFFFFFFFFFFFFFFFFFFFF DUP3 SUB PUSH2 0x19FF JUMPI PUSH2 0x19FE PUSH2 0x16CA JUMP JUMPDEST JUMPDEST PUSH1 0x1 DUP3 ADD SWAP1 POP SWAP2 SWAP1 POP JUMP JUMPDEST PUSH32 0x426F74746C6520616C7265616479206F70656E65640000000000000000000000 PUSH0 DUP3 ADD MSTORE POP JUMP JUMPDEST PUSH0 PUSH2 0x1A3E PUSH1 0x15 DUP4 PUSH2 0x1652 JUMP JUMPDEST SWAP2 POP PUSH2 0x1A49 DUP3 PUSH2 0x1A0A JUMP JUMPDEST PUSH1 0x20 DUP3 ADD SWAP1 POP SWAP2 SWAP1 POP JUMP JUMPDEST PUSH0 PUSH1 0x20 DUP3 ADD SWAP1 POP DUP2 DUP2 SUB PUSH0 DUP4 ADD MSTORE PUSH2 0x1A6B DUP2 PUSH2 0x1A32 JUMP JUMPDEST SWAP1 POP SWAP2 SWAP1 POP JUMP JUMPDEST PUSH0 PUSH2 0x1A7C DUP3 PUSH2 0xE0A JUMP JUMPDEST SWAP2 POP PUSH2 0x1A87 DUP4 PUSH2 0xE0A JUMP JUMPDEST SWAP3 POP DUP3 DUP3 SUB SWAP1 POP DUP2 DUP2 GT ISZERO PUSH2 0x1A9F JUMPI PUSH2 0x1A9E PUSH2 0x16CA JUMP JUMPDEST JUMPDEST SWAP3 SWAP2 POP POP JUMP JUMPDEST PUSH0 DUP2 SLOAD SWAP1 POP PUSH2 0x1AB3 DUP2 PUSH2 0x1622 JUMP JUMPDEST SWAP1 POP SWAP2 SWAP1 POP JUMP JUMPDEST DUP2 DUP2 SUB PUSH2 0x1AC8 JUMPI POP POP PUSH2 0x1B9D JUMP JUMPDEST PUSH2 0x1AD1 DUP3 PUSH2 0x1AA5 JUMP JUMPDEST PUSH8 0xFFFFFFFFFFFFFFFF DUP2 GT ISZERO PUSH2 0x1AEA JUMPI PUSH2 0x1AE9 PUSH2 0x12A7 JUMP JUMPDEST JUMPDEST PUSH2 0x1AF4 DUP3 SLOAD PUSH2 0x1622 JUMP JUMPDEST PUSH2 0x1AFF DUP3 DUP3 DUP6 PUSH2 0x186B JUMP JUMPDEST PUSH0 PUSH1 0x1F DUP4 GT PUSH1 0x1 DUP2 EQ PUSH2 0x1B2C JUMPI PUSH0 DUP5 ISZERO PUSH2 0x1B1A JUMPI DUP3 DUP8 ADD SLOAD SWAP1 POP JUMPDEST PUSH2 0x1B24 DUP6 DUP3 PUSH2 0x18D9 JUMP JUMPDEST DUP7 SSTORE POP PUSH2 0x1B96 JUMP JUMPDEST PUSH1 0x1F NOT DUP5 AND PUSH2 0x1B3A DUP8 PUSH2 0x1757 JUMP JUMPDEST SWAP7 POP PUSH2 0x1B45 DUP7 PUSH2 0x1757 JUMP JUMPDEST PUSH0 JUMPDEST DUP3 DUP2 LT ISZERO PUSH2 0x1B6C JUMPI DUP5 DUP10 ADD SLOAD DUP3 SSTORE PUSH1 0x1 DUP3 ADD SWAP2 POP PUSH1 0x1 DUP6 ADD SWAP5 POP PUSH1 0x20 DUP2 ADD SWAP1 POP PUSH2 0x1B47 JUMP JUMPDEST DUP7 DUP4 LT ISZERO PUSH2 0x1B89 JUMPI DUP5 DUP10 ADD SLOAD PUSH2 0x1B85 PUSH1 0x1F DUP10 AND DUP3 PUSH2 0x18BD JUMP JUMPDEST DUP4 SSTORE POP JUMPDEST PUSH1 0x1 PUSH1 0x2 DUP9 MUL ADD DUP9 SSTORE POP POP POP JUMPDEST POP POP POP POP POP POP JUMPDEST JUMP INVALID LOG2 PUSH5 0x6970667358 0x22 SLT KECCAK256 0xD8 0xB7 LOG1 0xC8 0x2B 0xA7 0xC7 XOR SWAP3 MSTORE8 EXTCODECOPY SELFDESTRUCT 0xC0 PUSH29 0xD545997B62E5A1D2968F485866841DA0DE9764736F6C634300081A0033 "
				},
				"gasEstimates": {
					"creation": {
						"codeDepositCost": "1425000",
						"executionCost": "1484",
						"totalCost": "1426484"
					},
					"external": {
						"allBottles(uint256)": "infinite",
						"bottleOwned(address,uint256)": "infinite",
						"createBottle(string[])": "infinite",
						"getAllBottles()": "infinite",
						"getBottleMessages(uint256)": "infinite",
						"idToBottle(uint256)": "infinite",
						"openAndReplyBottle(uint256,string[])": "infinite",
						"totalBottles()": "2491"
					}
				},
				"methodIdentifiers": {
					"allBottles(uint256)": "52b31faa",
					"bottleOwned(address,uint256)": "8a3aa27f",
					"createBottle(string[])": "9eedc7a6",
					"getAllBottles()": "9d0d9b2e",
					"getBottleMessages(uint256)": "df59e477",
					"idToBottle(uint256)": "437e7e5c",
					"openAndReplyBottle(uint256,string[])": "aff6b515",
					"totalBottles()": "f62c9e3c"
				}
			},
			"storageLayout": {
				"storage": [
					{
						"astId": 25,
						"contract": "contracts/driftBottle.sol:DriftBottle",
						"label": "allBottles",
						"offset": 0,
						"slot": "0",
						"type": "t_array(t_struct(BottleInfo)21_storage)dyn_storage"
					},
					{
						"astId": 27,
						"contract": "contracts/driftBottle.sol:DriftBottle",
						"label": "totalBottles",
						"offset": 0,
						"slot": "1",
						"type": "t_uint256"
					},
					{
						"astId": 32,
						"contract": "contracts/driftBottle.sol:DriftBottle",
						"label": "bottleOwned",
						"offset": 0,
						"slot": "2",
						"type": "t_mapping(t_address,t_array(t_uint256)dyn_storage)"
					},
					{
						"astId": 37,
						"contract": "contracts/driftBottle.sol:DriftBottle",
						"label": "idToBottle",
						"offset": 0,
						"slot": "3",
						"type": "t_mapping(t_uint256,t_struct(BottleInfo)21_storage)"
					}
				],
				"types": {
					"t_address": {
						"encoding": "inplace",
						"label": "address",
						"numberOfBytes": "20"
					},
					"t_array(t_struct(BlobInfo)4_storage)dyn_storage": {
						"base": "t_struct(BlobInfo)4_storage",
						"encoding": "dynamic_array",
						"label": "struct DriftBottle.BlobInfo[]",
						"numberOfBytes": "32"
					},
					"t_array(t_struct(BottleInfo)21_storage)dyn_storage": {
						"base": "t_struct(BottleInfo)21_storage",
						"encoding": "dynamic_array",
						"label": "struct DriftBottle.BottleInfo[]",
						"numberOfBytes": "32"
					},
					"t_array(t_uint256)dyn_storage": {
						"base": "t_uint256",
						"encoding": "dynamic_array",
						"label": "uint256[]",
						"numberOfBytes": "32"
					},
					"t_bool": {
						"encoding": "inplace",
						"label": "bool",
						"numberOfBytes": "1"
					},
					"t_mapping(t_address,t_array(t_uint256)dyn_storage)": {
						"encoding": "mapping",
						"key": "t_address",
						"label": "mapping(address => uint256[])",
						"numberOfBytes": "32",
						"value": "t_array(t_uint256)dyn_storage"
					},
					"t_mapping(t_uint256,t_struct(BottleInfo)21_storage)": {
						"encoding": "mapping",
						"key": "t_uint256",
						"label": "mapping(uint256 => struct DriftBottle.BottleInfo)",
						"numberOfBytes": "32",
						"value": "t_struct(BottleInfo)21_storage"
					},
					"t_string_storage": {
						"encoding": "bytes",
						"label": "string",
						"numberOfBytes": "32"
					},
					"t_struct(BlobInfo)4_storage": {
						"encoding": "inplace",
						"label": "struct DriftBottle.BlobInfo",
						"members": [
							{
								"astId": 3,
								"contract": "contracts/driftBottle.sol:DriftBottle",
								"label": "ipfsHash",
								"offset": 0,
								"slot": "0",
								"type": "t_string_storage"
							}
						],
						"numberOfBytes": "32"
					},
					"t_struct(BottleInfo)21_storage": {
						"encoding": "inplace",
						"label": "struct DriftBottle.BottleInfo",
						"members": [
							{
								"astId": 6,
								"contract": "contracts/driftBottle.sol:DriftBottle",
								"label": "id",
								"offset": 0,
								"slot": "0",
								"type": "t_uint256"
							},
							{
								"astId": 8,
								"contract": "contracts/driftBottle.sol:DriftBottle",
								"label": "from",
								"offset": 0,
								"slot": "1",
								"type": "t_address"
							},
							{
								"astId": 10,
								"contract": "contracts/driftBottle.sol:DriftBottle",
								"label": "fromTime",
								"offset": 0,
								"slot": "2",
								"type": "t_uint256"
							},
							{
								"astId": 12,
								"contract": "contracts/driftBottle.sol:DriftBottle",
								"label": "isOpen",
								"offset": 0,
								"slot": "3",
								"type": "t_bool"
							},
							{
								"astId": 14,
								"contract": "contracts/driftBottle.sol:DriftBottle",
								"label": "to",
								"offset": 1,
								"slot": "3",
								"type": "t_address"
							},
							{
								"astId": 16,
								"contract": "contracts/driftBottle.sol:DriftBottle",
								"label": "replyTime",
								"offset": 0,
								"slot": "4",
								"type": "t_uint256"
							},
							{
								"astId": 20,
								"contract": "contracts/driftBottle.sol:DriftBottle",
								"label": "msgs",
								"offset": 0,
								"slot": "5",
								"type": "t_array(t_struct(BlobInfo)4_storage)dyn_storage"
							}
						],
						"numberOfBytes": "192"
					},
					"t_uint256": {
						"encoding": "inplace",
						"label": "uint256",
						"numberOfBytes": "32"
					}
				}
			},
			"userdoc": {
				"kind": "user",
				"methods": {},
				"version": 1
			}
		}
	}
}